:020000040000fa
:020000041000ea
:10000000f0ff0110b9e600107343011075430110b1
:1000100000000000000000000000000000000000e0
:10002000000000000000000000000000714301100b
:10003000000000000000000021f0001071430110da
:0c0040007143011021100110453f011018
:020000040000fa
:020000041000ea
:10004c00f8b5c046f8bc08bc9e46704725ef0010ba
:10005c00450c0110f8b5c046f8bc08bc9e4670476c
:04006c00fdee001095
:020000040000fa
:020000041000ea
:02023a0070470b
:020000040000fa
:020000041000ea
:10023c0000000000000000000000000000000000b2
:10024c0000000000000000000000000000000000a2
:10025c000000000000000000000000000000000092
:10026c000000000000000000000000000000000082
:0417fc0000000000e9
:020000040000fa
:020000041000ea
:1018000000000000000000000000000000000000d8
:1018100000000000000000000000000000000000c8
:1018200000000000000000000000000000000000b8
:1018300000000000000000000000000000000000a8
:020000041000ea
:04228c00000000004e
:020000040000fa
:020000041000ea
:10229000000000000000000000000000000000003e
:1022a000000000000000000000000000000000002e
:1022b000000000000000000000000000000000001e
:1022c000000000000000000000000000000000000e
:1022d00000000000000000000000000000000000fe
:1022e00000000000000000000000000000000000ee
:1022f00000000000000000000000000000000000de
:1023000000000000000000000000000000000000cd
:1023100000000000000000000000000000000000bd
:1023200000000000000000000000000000000000ad
:10233000000000000000000000000000000000009d
:10234000000000000000000000000000000000008d
:10235000000000000000000000000000000000007d
:10236000000000000000000000000000000000006d
:10237000000000000000000000000000000000005d
:10238000000000000000000000000000000000004d
:10239000000000000000000000000000000000003d
:1023a000000000000000000000000000000000002d
:1023b000000000000000000000000000000000001d
:1023c000000000000000000000000000000000000d
:1023d00000000000000000000000000000000000fd
:1023e00000000000000000000000000000000000ed
:1023f00000000000000000000000000000000000dd
:1024000000000000000000000000000000000000cc
:1024100000000000000000000000000000000000bc
:1024200000000000000000000000000000000000ac
:0424300000000000a8
:020000040000fa
:020000041000ea
:102434000000000000000000000000000000000098
:102444000000000000000000000000000000000088
:102454000000000000000000000000000000000078
:102464000000000000000000000000000000000068
:102474000000000000000000000000000000000058
:102484000000000000000000000000000000000048
:102494000000000000000000000000000000000038
:1024a4000000000000000000000000000000000028
:1024b4000000000000000000000000000000000018
:1024c4000000000000000000000000000000000008
:1024d40000000000000000000000000000000000f8
:1024e40000000000000000000000000000000000e8
:1024f40000000000000000000000000000000000d8
:1025040000000000000000000000000000000000c7
:1025140000000000000000000000000000000000b7
:1025240000000000000000000000000000000000a7
:102534000000000000000000000000000000000097
:102544000000000000000000000000000000000087
:102554000000000000000000000000000000000077
:102564000000000000000000000000000000000067
:102574000000000000000000000000000000000057
:102584000000000000000000000000000000000047
:102594000000000000000000000000000000000037
:1025a4000000000000000000000000000000000027
:1025b4000000000000000000000000000000000017
:0c25c4000000000000000000000000000b
:020000040000fa
:020000041000ea
:1025d0006e2d21f0275a6f0b00000000e02500103f
:1025e000275a6f0b000000000200000000000000ee
:1025f0009cb40010c1a52ded0000000001000000fa
:102600000000000094b40010f6cd5bb4010000009f
:10261000000000008cb400100000000061dc017bb1
:1026200000000000010000000000000084b4001061
:10263000cae9e7ec00000000000000000000000014
:102640006cb400106a22eb0f0000000000000000d4
:1026500064b4001000000000e52bb60b0000000081
:1026600000000000000000004cb400104ee79ea6e1
:102670000000000000000000000000003cb400105a
:102680005896063b0000000000000000000000001b
:102690002cb400101da179ee000000000000000025
:1026a0000000000024b40010ef743e490000000058
:0c26b0000000000000000000000000001e
:020000040000fa
:020000041000ea
:1026bc00000000000000000000000000000000000e
:1026cc0000000000000000000000000000000000fe
:1026dc0000000000000000000000000000000000ee
:020000041000ea
:04294400000000008f
:020000040000fa
:020000041000ea
:10294800000000000000000000000000000000007f
:10295800000000000000000000000000000000006f
:10296800000000000000000000000000000000005f
:10297800000000000000000000000000000000004f
:10298800000000000000000000000000000000003f
:04299800000000003b
:020000040000fa
:020000041000ea
:10299c00000000000000000000000000000000002b
:1029ac00000000000000000000000000000000001b
:1029bc00000000000000000000000000000000000b
:1029cc0000000000000000000000000000000000fb
:0c29dc00000000000000000000000000ef
:020000040000fa
:020000041000ea
:1029e800000080531cfb011000f801100000005784
:1029f800000400520000005000000054000800527b
:102a0800001c00520040005100100051008000518d
:082a18000020005100000051f4
:020000040000fa
:020000041000ea
:102a200000000000000000000000000000000000a6
:102a30000000000000000000000000000000000096
:042a40000000000092
:020000040000fa
:020000041000ea
:102a44000000000000000000000000000000000082
:082a540000000000000000007a
:020000040000fa
:020000041000ea
:0c2a5c000000000000000000000000006e
:020000040000fa
:020000041000ea
:082a6800e07f000a00000000fd
:020000040000fa
:020000041000ea
:042a70000000000062
:020000040000fa
:020000041000ea
:102a7400f0b5de4657464e464546e0b58fb00500f4
:102a84000c000ff0e1fe0700ea69e169ad239b0049
:102a9400d150c54b9c46844460460090fb589b68cb
:102aa4009847051e00d159e10023994602930193ea
:102ab4009a469b4698463b004f461e001be05b46e9
:102ac4000133dbb29b460ff0bffe03681b6a012291
:102ad4000aa998470004000c0c38019b9c466044ea
:102ae40083b201930137b04bf358db692900009896
:102af4009847051e3ad0280011f016fc8402a40f52
:102b0400280011f011fc0a90280011f00bfcc36896
:102b14000d93022cd3d014d8012ce4d143460133b5
:102b2400dbb298460ff090fe03681b6a01220aa9e3
:102b340098470004000c0c38484483b29946013786
:102b4400d1e753460133dbb29a460ff07dfe0368aa
:102b54001b6a01220aa998470004000c0c38029b46
:102b64009c46604483b202930137bce733004e466f
:102b7400b9461f0043465b4453441b0104331f22e0
:102b8400934320330393434601335b0004939b0731
:102b940000d5efe0049b9c466644b6b2f30603d02e
:102ba4001f239e432036b6b2002306935b46002bb8
:102bb40014d001335b0006939a0701d502330693c0
:102bc400019b069a944663449bb2da0603d01f2203
:102bd400934320339bb240339bb20193002307936a
:102be4005346002b15d05c00a31c07939a0702d50b
:102bf400231d9bb20793029b079a944663449bb29e
:102c0400da0603d01f22934320339bb240339bb296
:102c140002933c009c3480225201ff21200011f0d9
:102c240071f9624abb5a01339bb2dc217b52bb521d
:102c34005f4bfb5cff2b00d1a0e03b00dc335c4a24
:102c4400ba5c9a705b4bfb5cff2b00d19ae03b00b3
:102c5400dc33584aba5cda703a00fc325649795c83
:102c64001170a0229a806a46908902002032b61818
:102c7400b6b2de805b46002b00d189e03300a0337e
:102c84003a00dc321381019b53815346002b00d15f
:102c940084e03b00dc335a89a032b6189e81029a44
:102ca400da813b00dc339988da888a185d89521905
:102cb400dd89521992b21a8280256d01aa1a5a82ac
:102cc40000221a755a759a75da759a61da6166186e
:102cd400039a94466144611808911a893032a21803
:102ce40009929b893033e318059343460b705b4686
:102cf400002b00d013705346002b02d0059b524684
:102d04001a7030804b46b370274bfb589b68009871
:102d1400984705003a00dc329188039b0498844666
:102d24006344cb18e31801931389303306998c4616
:102d34006344e31802939389079a944663443033b7
:102d4400e3180393002d00d115e100239a46049360
:102d540000243b005746b04699467ae00023994642
:102d64000293019300269a469b46984602330493a5
:102d74001e330393049b023304930be70c4baa22e8
:102d8400fa545ae7553b0b4abb540b4abb545ee713
:102d94003b00dc3300221a815a8176e73b00dc33a6
:102da40000229a81da817ce7381500005015000072
:102db400531500005415000055150000280011f0ab
:102dc400b5fa4770280011f0affa2601b346c344a0
:102dd4005b465860280011f0a9fa5b4642689a6085
:102de400280011f0a3fa5b468268da60280011f02b
:102df4009dfa5b46c2681a610ff026fd311d4144fd
:102e040003681b6a01229847060001347b00099a73
:102e14009446634402998a1a5a800137ffb2280003
:102e240011f080fa103e103001003200029b9b46e4
:102e3400180011f07bf8dc46b44463460293524b0d
:102e44004a46d358db69290000989847051e00d1eb
:102e540091e0280011f068fa8002800f0228add0ba
:102e640043d80128ebd1280011f05efa2601b346bd
:102e7400c3445b46586004995971280011f056fa0e
:102e84005b4642689a60280011f050fa5b468268fb
:102e9400da60280011f04afa5b46c2681a610ff042
:102ea400d3fc311d414403681b6a01229847060084
:102eb400013404994b00089a944663440198821a99
:102ec4005a804b1cdbb20493280011f02bfa103efd
:102ed400010010313200019b9b46180011f026f8c6
:102ee400dc46b44463460193a9e7280011f01efab6
:102ef40053464370280011f017fa2601b346c34421
:102f04005b465860280011f011fa5b4642689a60eb
:102f1400280011f00bfa5b468268da60280011f091
:102f240005fa5b46c2681a610ff08efc311d4144fc
:102f340003681b6a012298470600013453465b006c
:102f4400059a9446634403998a1a5a805346013376
:102f5400dbb29a46280011f0e5f9103e103001006a
:102f64003200039b9b46180010f0e0ffdc46b4449b
:102f74006346039363e705480fb03cbc904699460b
:102f8400a246ab46f0bdc046381500002b88fa7542
:020000040000fa
:020000041000ea
:102f94000ead00101aad00101aad00100ead0010e9
:102fa4001aad00100ead00100ead00101aad0010d9
:102fb4000ead00100ead00101aad00100ead0010d5
:102fc4000ead00100ead00100ead00100ead0010d1
:102fd4001aad00101aad0010bcac00101aad0010f0
:102fe4001aad00101aad00101aad00101aad001081
:102ff400bcac00101aad00101aad00101aad0010d0
:103004001aad00101aad00101aad00101aad001060
:10301400bcac00101aad00101aad0010bcac00100e
:10302400bcac00101aad0010bcac0010bcac00105d
:10303400bcac0010bcac0010bcac0010bcac0010ac
:10304400bcac00101aad0010bcac00101c32001057
:10305400200100000000202030000000903000100b
:103064008c0100000000302042000000fc330010fe
:103074009000000000004020180000003c330010c5
:10308400c0000000000010202000000001ffffff2e
:10309400ffffffffffffffffffffffffffffffff3c
:1030a400ffffffffffffffffffffffffffffffff2c
:1030b400ffffffffffffffffffffffffffffffff1c
:1030c400ffffffffffffffffffffffffffff01ff0a
:1030d400fffffffffffffffffffffffffffffffffc
:1030e400fffffffffffffffffffffffffffffffaf1
:1030f40051868783bf2f966b7fcc0148f709a5d0f3
:103104003bb5c9b8899c47aebb6fb71e91386409fb
:1031140000c6858e06b70404e9cd9e3ecb66239592
:10312400b4429c648139053fb521f828af606b4dea
:103134003dbaa14b5e77efe75928fe1dc127a2ffd8
:10314400a8de3348b3c1856a429bf97e7e31c2e56d
:10315400bd66011839296a789a3bc0045c8a5fb459
:103164002c7d1bd998f54449579b446817afbd176c
:10317400273e662c97ee72995ef42640c550b9013d
:103184003fad0761353c7086a272c24088be94761a
:103194009fd1665001ffffffffffffffffffffff0f
:1031a400ffffffffffffffffffffffffffffffff2b
:1031b400ffffffffffffffffffffffffffffffff1b
:1031c400ffffffffffffffffffffffffffffffff0b
:1031d400fffffffffffc0051953eb9618e1c9a1f53
:1031e400929a21a0b68540eea2da725b99b315f3e8
:1031f400b8b489918ef109e156193951ec7e937b6b
:103204001652c0bd3bb1bf073573df883d2c34f186
:10321400ef451fd46b503f00ffffffffffffffff91
:10322400ffffffffffffffffffffffffffffffffaa
:10323400fffffffffffffffeffffffff0000000097
:1032440000000000ffffffffffffffffffffffff86
:10325400ffffffffffffffffffffffffffffffff7a
:10326400c7634d81f4372ddf581a0db248b0a77ae1
:10327400ecec196accc52973aa87ca22be8b053720
:103284008eb1c71ef320ad746e1d3b628ba79b9855
:1032940059f741e082542a385502f25dbf55296c32
:1032a4003a545e3872760ab73617de4a96262c6f81
:1032b4005d9e98bf9292dc29f8f41dbd289a147c77
:1032c400e9da3113b5f0b8c00a60b1ce1d7e819d34
:1032d4007a431d7c90ea0e5fffffffffffffffffb5
:1032e400ffffffffffffffffffffffffffffffffea
:1032f400fffffffffffffffeffffffff00000000d7
:1033040000000000fffffffcb3312fa7e23ee7e41b
:10331400988e056be3f82d19181d9c6efe814112e1
:103324000314088f5013875ac656398d8a2ed19d9f
:103334002a85c8edd3ec2aefffffffff0000000150
:10334400000000000000000000000000ffffffff7d
:10335400ffffffffffffffffffffffff0000000075
:10336400ffffffffffffffffbce6faada7179e8438
:10337400f3b9cac2fc6325516b17d1f2e12c424761
:10338400f8bce6e563a440f277037d812deb33a01e
:10339400f4a13945d898c2964fe342e2fe1a7f9bc6
:1033a4008ee7eb4a7c0f9e162bce33576b315ecee5
:1033b400cbb6406837bf51f5ffffffff00000001a7
:1033c400000000000000000000000000fffffffffd
:1033d400fffffffffffffffc5ac635d8aa3a93e769
:1033e400b3ebbd55769886bc651d06b0cc53b0f6dc
:1033f4003bce3c3e27d2604bffffffffffffffffaa
:10340400fffffffffffffffeffffffffffffffffc9
:10341400ffffffffffffffffffffffff99def8360f
:10342400146bc9b1b4d22831188da80eb03090f6ff
:103434007cbf20eb43a18800f4ff0afd82ff101239
:1034440007192b95ffc8da78631011ed6b24cdd5dd
:1034540073f977a11e794811fffffffffffffffffc
:10346400fffffffffffffffefffffffffffffffc6c
:1034740064210519e59c80e70fa7e9ab7224304964
:08348400feb8deecc146b9b14f
:020000040000fa
:020000041000ea
:10348c00f0b5ce46474680b58fb004002b2102ab79
:10349c009c46614400230b700df0acfe051e00d160
:1034ac0090e02023e35c2b2202a98c466244117825
:1034bc008b4261d0a4225a438218107c400604d05f
:1034cc004020125c3138824306d10133dbb2994281
:1034dc0000d181e02022a35410f0d6fa0700036833
:1034ec009e68bf4bbf4a2821b04700286ad02023d2
:1034fc009946e35ca4267343eb189a6801921b6807
:10350c000093b94bb94aba4909900ef04ffc10f030
:10351c004dfa03689b690baa099998473b68db68cd
:10352c000b99380098474b46e35c5e43ae19403626
:10353c0033781b09042b00d177e00c2b42d10ff010
:10354c007ff90200ab4bc0182023e15c84334b4362
:10355c00eb1841331978a74bd358db68984709907f
:10356c00002800d10ce110f0dbfe4001400f0228d6
:10357c0000d184e0a04a04e100222023e254a36a93
:10358c006362a262002b02d01b68002b1ad1ad2300
:10359c009b00e269d158002919d000250095002321
:1035ac000122964806f06effe269ad239b00d550d0
:1035bc0010f0ecfa002805d010f0e8fa03681b6a4a
:1035cc008f4998470fb00cbc90469946f0bd01311d
:1035dc008a4808f03bfcebe700222023e254a36a64
:1035ec006362a262002b02d01b68002b0ed101215a
:1035fc00824808f02bfc10f0c9fa0028e2d010f039
:10360c00c5fa03681b6a7e499847dbe72b2602ab99
:10361c009c466644310020000df0ecfd0500202393
:10362c00e25c33789a42cdd056e73b689e68754b86
:10363c006c4a30213800b047061ec3d00ff000f999
:10364c0003685b6a9847704b1a682023e15c8433eb
:10365c004b43ed18ab6800210291c02109018c4647
:10366c006044019005210091644930000cf0b2fbdc
:10367c0010f09cf903681b6931009847a2e7099880
:10368c0010f050fe037b5b0701d05b4a79e0099890
:10369c0010f048fe027b70231a4201d0564a70e0ab
:1036ac00099810f03ffec37b9b0601d4524a68e098
:1036bc00099810f037fec37bdb0601d54e4a60e05b
:1036cc00099e300010f02efe437b202b07d03000db
:1036dc0010f028fe437b302b01d0474a51e009986b
:1036ec0010f020fe037b5b0700d06be7099810f00d
:1036fc0019fe027b70231a4200d063e73b689e6878
:10370c00424b384a44213800b047061e00d159e7d5
:10371c00099f380010f002fe80460ff091f8036804
:10372c005b6a98478146380010f0fcfdc3680d9326
:10373c00354a10682022a15c84324a43ad1800211e
:10374c0007912a0044320692aa6805920490c0227e
:10375c0012014a44039202914246103201924222d3
:10376c00aa5c5207520f0092244a294930000bf0f0
:10377c003ff810f01bf903681b693100984721e7eb
:10378c00244aad239b00e169c958002923d00025a8
:10379c0000950023194806f075fee269ad239b00e5
:1037ac00d55010f0f3f9002805d010f0eff90368ac
:1037bc001b6a13499847114c04230093164b174a64
:1037cc00174920000bf0dcfb164b174a1749200059
:1037dc000bf0f2fcf6e61100084808f037fbe0e7c6
:1037ec0024a3727ec96dee350c694bb31b40ffde12
:1037fc0032cb175d38150000140000806ebb3fc83b
:10380c0044c30d3bb09f6bb2002a00109e7158331d
:10381c00167d6e151200008030cd7f4d2731d817e4
:10382c00b857301496c4ecc38259bf603c736db862
:020000040000fa
:020000041000ea
:10383c0010b582b00c00ca691379052b3dd010d994
:10384c000b2b00d14ce126d90d2b00d1ade1f02b87
:10385c002dd153790b2b00d9b2e19b00c549cb5824
:10386c009f46032b45d000d9ebe0002b04d15379b4
:10387c00002b1ed0c04a00e0bf4a00230093e16930
:10388c00be4806f0fffd10f0fff8e1690368db6845
:10389c00984702b010bd062b07d15379062b00d9df
:1038ac0092e19b00b649cb589f46b34ae5e7b24a32
:1038bc00e3e70af069f902007ae15379042b00d9a5
:1038cc007ae19b00af4ad3589f4606f0d1fb020029
:1038dc006ee105f089fd02006ae108f0f9f80200da
:1038ec0066e108f041f9020062e108f0d3f9020048
:1038fc005ee15379072b00d960e19b00a249cb58bc
:10390c009f46210004f0e6fb020051e1210006f085
:10391c006bfa02004ce11288143a53425a4152425b
:10392c001e239a43994b9c466244a6e71288143a8c
:10393c0053425a4152421e239a43944b9c46624432
:10394c009be7210008f0b4ff020031e1210006f0f2
:10395c00b7fa02002ce11288143a53425a415242ef
:10396c001e239a43894b9c46624486e71288143a7c
:10397c0053425a4152421e239a43844b9c46624402
:10398c007be71288143a53425a4152421e239a43ff
:10399c007e4b9c46624470e71288143a53425a415b
:1039ac0052421e239a43794b9c46624465e7128827
:1039bc00103a53425a4152421e239a43734b9c462f
:1039cc0062445ae721000af09ffd0200f0e021005a
:1039dc000bf0f6f90200ebe01288103a53425a4110
:1039ec0052421e239a43694b9c46624445e7210090
:1039fc000af020fa0200dbe01288143a53425a41d2
:103a0c0052421e239a43614b9c46624435e712880e
:103a1c00143a53425a4152421e239a435b4b9c46e2
:103a2c0062442ae721000af07df80200c0e0210080
:103a3c000bf0ecf90200bbe021000af0d7f8020011
:103a4c00b6e05379062b00d9bce09b005049cb580b
:103a5c009f46210003f07afd0200a9e01288203a6b
:103a6c0053425a4152421e239a43484b9c4662444d
:103a7c0003e712881c3a53425a4152421e239a437e
:103a8c00424b9c466244f8e61288203a53425a4113
:103a9c0052421e239a433d4b9c466244ede61288eb
:103aac00143a53425a4152421e239a43374b9c4676
:103abc006244e2e61288143a53425a4152421e239f
:103acc009a43324b9c466244d7e61288203a5342c2
:103adc005a4152421e239a432c4b9c466244cce6dc
:103aec005379012b0bd0002b05d0022b0bd0032bc1
:103afc0014d0214ac1e605f0fbfb020058e005f0aa
:103b0c00edfc020054e01288183a53425a415242da
:103b1c001e239a431d4b9c466244aee61288183a0b
:103b2c0053425a4152421e239a43184b9c466244bc
:103b3c00a3e6210005f0e2fa020039e0210005f0cd
:103b4c0049f9020034e01288183a53425a41524261
:103b5c001e239a430d4b9c4662448ee61288203af3
:103b6c0053425a4152421e239a43084b9c4662448c
:103b7c0083e6c0468ca70010020000803c736db831
:103b8c00bca70010d8a70010eca7001021000080e3
:103b9c000ca800101288203a53425a4152421e235c
:103bac009a430a4b9c46624467e603f02bfb0200e7
:103bbc00012a00d16de660e6054a5ee6044a5ce641
:103bcc00034a5ae6024a58e6014a56e621000080aa
:043bdc000200008063
:020000040000fa
:020000041000ea
:103be0000000000000000000419c0010ef340110b4
:103bf0001df0001085dd0010710c01109d0c0110ee
:103c00005c52aa4c583efa5a14000000103c0010b6
:103c1000583efa5a0100000001000000403f001029
:103c2000483f0010db14592300000000030000008f
:103c300000000000283f0010db75aad8000000003b
:103c40000600000000000000f83e0010861d575dd1
:103c5000000000000200000000000000c83e00104c
:103c6000423357fb00000000040000000000000089
:103c7000a83e0010b50d7aed000000000200000023
:103c800000000000783e0010c9ba01ff00000000eb
:103c90000200000000000000683e00109c19d07a6d
:103ca000000000000600000000000000383e001088
:103cb000c0362d8b00000000050000000000000051
:103cc000103e001011b819fe0000000003000000b3
:103cd00000000000f83d001096122ad900000000f4
:103ce0000200000000000000e83d0010bb7c4a8399
:103cf000000000000200000000000000d83d00109d
:103d0000d017edff000000000200000000000000de
:103d1000c83d0010ebeb9ef3000000000200000025
:103d200000000000b83d0010ae6e5f930000000080
:103d30000200000000000000a83d0010f27d06b166
:103d4000000000000100000000000000a03d001085
:103d50003c40497300000000020000000000000029
:103d6000e83e0010a4b2ebe60000000002000000f4
:103d700000000000d83e00105586c05f0000000023
:103d80000200000000000000983e0010792765ee58
:103d9000000000000200000000000000883e00104b
:103da0004c357eb5583efa5a181722dc9c19d07a49
:103db0004c357eb5583efa5a6f81b237ae6e5f937e
:103dc0004c357eb5583efa5a6f81b237ebeb9ef315
:103dd0004c357eb5583efa5a98e0bb5bd017edffe4
:103de0004c357eb5583efa5ac58fe8d2bb7c4a8323
:103df0004c357eb5583efa5ac58fe8d296122ad96c
:103e000098e0bb5bd017edff4c357eb5583efa5ab3
:103e1000fa52426811b819fec58fe8d296122ad913
:103e200098e0bb5bd017edff98e0bb5bebeb9ef33c
:103e30004c357eb5583efa5a5582c29ac0362d8b03
:103e4000fa52426811b819fec58fe8d296122ad9e3
:103e500098e0bb5bd017edff98e0bb5bebeb9ef30c
:103e60004c357eb5583efa5a39da30999c19d07ad9
:103e70004c357eb5583efa5aeafe39d5c9ba01ff2b
:103e80004c357eb5583efa5afa524268b50d7aed75
:103e90004c357eb5583efa5afa524268792765ee9b
:103ea0004c357eb5583efa5a48daf2df5586c05f87
:103eb00074ced0aa792765ee39da30999c19d07a78
:103ec0004c357eb5583efa5aeafe39d5423357fb97
:103ed0004c357eb5583efa5ac58fe8d2861d575ddf
:103ee0004c357eb5583efa5ac58fe8d2a4b2ebe6ff
:103ef0004c357eb5583efa5af59f3ba13c4049737c
:103f0000211f9479a4b2ebe648daf2df5586c05f50
:103f1000fa524268792765ee39da30999c19d07add
:103f20004c357eb5583efa5aeafe39d5db75aad82b
:103f300039da30999c19d07a4c357eb5583efa5a08
:103f4000f73897cbf27d06b12b88fa75db1459232d
:020000040000fa
:020000041000ea
:103f500030b5cb785b075b0fd8b2052800d971e18b
:103f60009b00b948c3589f4688891030830700d109
:103f700067e103239843043063e10b7b5b075b0f2e
:103f8000dcb2012c78d05bb2002b15d01020032cb2
:103f900000d956e10b7b9b069b0fd8b2012876d047
:103fa0005bb2002b00d15be10238434258414042f2
:103fb00018231840103044e10b7b9b069b0fd8b2ae
:103fc000012811d05bb2002b10d00238444244418a
:103fd00064014b7b1b071b0fd8b2082800d93be1bb
:103fe0009b009a48c3589f461824f2e71024f0e734
:103ff0002000103025e1200010304d7b0f232b4096
:10400000052b0bd08b7b5b071fd5002a08d1103006
:104010008b7b9b0700d414e1103012e10019f1e70b
:104020004b7bdb0603d54b7b5b0600d510308b7bcf
:104030009b0700d405e14b7b9b0600d401e14b7b41
:10404000db0900d1fde01030fbe08b7b9b0700d447
:10405000f7e0002ae0d0eee710348b7b70221a42a2
:1040600004d05b065b0f01335b00e418c87b40079c
:10407000400f07300019e4e0087b000900d1ede0b3
:10408000022383428041313398434430d9e04b7b53
:104090005b0700d4e6e0002a00d1e5e04b7bdb07bc
:1040a00000d4e3e0487b8007c00f434258414042c0
:1040b000072398433030c4e00b7b5b075b0fdab219
:1040c000012a65d05bb2002b1cd0022a00d18ae005
:1040d0001020032a00d0b4e0887b0007800e041d66
:1040e0004b7b5b06db0ddbb2043314305a008018c7
:1040f000ca7b520600d50019ca7b920600d4a0e004
:10410000c0189ee04a7b0b7b5b065b0fd8b204288d
:1041100000d9ade09b004e48c3589f46cb7b102092
:10412000db0603d55000801840001030cb7b5b06c7
:1041300000d58018cb7b9b0600d482e0520080180b
:104140007fe0900080181030cb7b5b0600d5801894
:10415000cb7b9b0675d55200801872e0cb7b10207c
:104160005b0601d510001030cb7b9b0669d5520051
:10417000801866e0c87b4006c00f43425841404269
:104180001f2398433030cb7b9b065ad5203058e014
:104190000a7b9206920fd3b2012b1ad052b2002a98
:1041a0001ad0023b5a4253415b0218001030ca7bbe
:1041b000920605d5ca7bc018d20601d51800143066
:1041c000ca7b52063dd5ca7b7f2a07d85b00c01840
:1041d00037e080235b00e8e78023e6e75a005b08ce
:1041e000d318c0182de04b7b5b06db0d0433dbb22c
:1041f000ca7bd2060ad518001430ca7b920600d5b5
:10420000c018ca7b52061cd5c0181ae058001030de
:10421000f3e70b7bdb06db0edab2102a2ad89b0011
:104220000c4ad3589f4620200be0242009e02c2084
:1042300007e0302005e0402003e0502001e08889bd
:10424000103030bd1020fce7f4a200100ca30010c9
:1042500030a3001044a300101020f2e74020f0e744
:104260002820eee72820ece73020eae72820e8e7de
:084270001020e6e71020e4e74e
:020000040000fa
:020000041000ea
:10427800f8b5de4657464e464546e0b504000d0003
:104288003823cb5c9b46c6690b689b680800984737
:104298005d36ff363062e6235b00e2696969d1501a
:1042a800bc3b0022e2505b46062b00d9d7e09b00be
:1042b800a84ad3589f4688225200a35c01210b4389
:1042c800a354092398462600283688220021300066
:1042d8000ff016fe2000b030602200210ff010fe13
:1042e80023001133ff332362a36a1b0f1b07042229
:1042f8001343a3621b0e20210b43f3702832a35ce7
:104308000f26b343032003431027bc4667463b43ad
:10431800a354230030336362eb6923632b6a1a01c9
:104328001209a36b1b0f1b071343a3632200383228
:104338001b0e0b43d3703c22a35cb34303434021c1
:104348000b43a3542300403363636b6a2364824b9b
:104358001b686a6a934200d184e022004832d3780d
:1043680020200343d370ab6a19010909a36c1a0f03
:1043780012070a43a2644c26a35d0f2293434421eb
:10438800625c0127bc4667463a43625403221343e2
:104398000343a3553923eb5c002b6ad1b023ea6aa7
:1043a800e2506d4b1b68ea6a934200d1bce03923a6
:1043b800eb5c002b00d0bee00ef006f803681b6a29
:1043c80059469847b82200010309a158080f000769
:1043d8001843a0502300b833da7820210a43da7052
:1043e800bc22a35c0b43a354083aa35c01210b43f2
:1043f800a35420000bf064fc3cbc90469946a246ae
:10440800ab46f8bd88225200a35c02210b43a3549b
:104418000923984657e788225200a35c04210b43de
:10442800a354092398464ee788225200a35c08212a
:104438000b43a3540923984645e788225200a35cfe
:1044480010210b43a354112398463ce788225200bd
:10445800a35c20210b43a3541123984633e7002380
:10446800984630e722004832d37810210b43d370a6
:1044780073e7230050336364fe221340ba3aa3540f
:104488000832a35c24398b43a3540ef0dbf903688c
:104498005b6a984782468026f60056440df094ffe2
:1044a80003689b6a594698478146420000213000bc
:1044b8000ff026fd4b46aa6a9b1a984500d94b4433
:1044c8008022d200802150468154686bc100f218c6
:1044d800571f400f3870101f0f0e0770d01e0f0c9b
:1044e8000770901e0f0a0770013a117026652000a8
:1044f8005830c27820210a43c2701b011b09a26de3
:10450800120f12071343a3655c20235c0f22934309
:104518005426a25d0127bc4667463a43a2550322aa
:1045280013430b43235439e72200b832d3781021c0
:104538000b43d3703be70df047ff03685b6a5946ae
:104548009847b82200010309a158080f000718432b
:0c455800a0503fe77ceb0010002a001090
:020000040000fa
:020000041000ea
:1045640070b505000c000b689b6808009847984bd1
:10457400984200d1e6e045d8964b984200d104e138
:1045840012d9954b984200d18ae02ed8934b984289
:1045940000d18be0924b984200d198e0914b984225
:1045a40000d1dbe0002054e08f4b984200d1f2e0d0
:1045b4000dd98e4b984200d1a8e08d4b984200d182
:1045c40068e08c4b984200d19ae0002041e08a4b8d
:1045d400984200d1bce0894b984200d1e5e0884b79
:1045e400984200d1c5e0002033e0864b984200d1c8
:1045f400a8e0854b98425fd0844b984200d18ae072
:10460400002026e0824b984200d16ce027d8814bf1
:10461400984262d00bd9804b984200d1afe07f4bd7
:10462400984217d1280008f085fb002011e07c4b4c
:10463400984200d175e07b4b984205d121002800b7
:104644000bf034fa002004e0774b984200d16ee07e
:10465400002070bd754b98426fd00020f9e7744b71
:1046640098422fd00bd8734b984242d0724b984249
:1046740000d195e0714b984276d00020e9e7704b69
:10468400984265d06f4b984257d06f4b98424ed0aa
:104694000020dee72100280004f0fef90020d8e71e
:1046a4002100280005f058fa0020d2e72100280054
:1046b40007f050fe0020cce72100280008f090fd10
:1046c4000020c6e721002800fef7d2f9c1e7210047
:1046d400280009f0c5f90020bbe72100280008f0f4
:1046e4001dfc0020b5e72100280008f053fc002041
:1046f400afe7ea69216aad239b00d1500020a8e707
:10470400210028000ff040fc0020a2e7280008f058
:104714004bf800209de72100280001f005f8002057
:1047240097e72100280002f0abfa002091e721006e
:10473400280002f09ffb00208be728000cf02cfbe4
:10474400002086e72100280003f08cf8002080e791
:104754002100280009f030ff00207ae7210028001a
:1047640000f080fd002074e7280008f04ffc0020d2
:104774006fe72100280003f037ff002069e72100dc
:10478400280003f0cdff002063e72100280003f098
:10479400e1f900205de7280006f054f8002058e70e
:1047a400280008f0cbf8002053e7ad239b00ea690a
:1047b400d3581a790020052a00d04ae75b79042be4
:1047c40000d046e7280006f06ffe002041e7c0460f
:1047d400615c5d7302e13435053937569364785072
:1047e40049fc4351e9ba983cce311d0e66beda232a
:1047f40055aff1282fe7eb1a6a59070889817b0d19
:10480400c6358b01a5057066de12676961141459fb
:104814002315d4ca110650b941596bbe94cdd6c0e4
:10482400e13edda0881e8da1c62e81926a46f7bbab
:10483400a09a52e7f73897cbe2a9e9d81ebd48cb36
:0c484400820f7ae9a27a9cf11eab00e919
:020000040000fa
:020000041000ea
:10485000f0b593b0040090490df07efe8f490b0037
:1048600008332360250020352031280009f024fc7e
:1048700058239c46a44463462100009360460cf0f4
:10488000abfc2700803738000df046ff26009c3631
:10489000210030000df050fbbc218c46a444614641
:1048a000019160460df08cffd8208446a4446046f8
:1048b00002900df093fff4239c46a44463460393b7
:1048c00060460df061ff882149008c46a444614692
:1048d000049160460df04aff962040008446a444af
:1048e0006046210005900df047fca6235b009c4626
:1048f000a4446346069360460df090feb42149003f
:104900008c46a4446146079160460df0f7fec22034
:1049100040008446a444604608900df019ffd0235f
:104920005b009c46a44463462100099360460df059
:1049300053fbe02149008c46a44461460a9160463d
:104940000df0cefeee2040008446a44460462100d7
:104950000b900df061fcfe235b009c46a444634673
:1049600021000c9360460cf0f1fd882189008c46f3
:10497000a444604621000d900cf01afc912189009e
:104980008c46a44461460e9160460df0d3fe9820fb
:1049900080008446a44460460f900df05bfe9f2388
:1049a0009b009c46a4446346109360460df05cff58
:1049b000a62189008c46a4446146119160460df001
:1049c0008bffad239b000022e250009a344928005f
:1049d0000cf0a5f93a00334928000cf0a0f9320098
:1049e000314928000cf09bf9019a304928000cf05d
:1049f00096f9029a2e4928000cf091f9039a2d4954
:104a000028000cf08cf9049a2b4928000cf087f947
:104a1000059a2a4928000cf082f9069a28492800ac
:104a20000cf07df9089a274928000cf078f9079acc
:104a3000254928000cf073f9099a244928000cf044
:104a40006ef90a9a224928000cf069f90b9a21495b
:104a500028000cf064f90c9a1f4928000cf05ff94b
:104a60000d9a1e4928000cf05af90e9a1c4928008c
:104a70000cf055f90f9a1b4928000cf050f9109ac8
:104a8000194928000cf04bf9119a184928000cf02c
:104a900046f9200013b0f0bd85c5ce4be03b0010b9
:104aa000583efa5adb145923db75aad8861d575d88
:104ab000423357fbb50d7aedc9ba01ff9c19d07a84
:104ac000c0362d8b96122ad911b819fed017edffda
:104ad000bb7c4a83ebeb9ef3ae6e5f93f27d06b137
:104ae0003c404973a4b2ebe65586c05f792765ee7a
:020000040000fa
:020000041000ea
:104af000f0b5de4657464e464546e0b597b0050050
:104b00000c002030902200210ff0fef92800b03078
:104b1000602200210ff0f8f98a235b000022ea509e
:104b2000e36b139323689b6820009847944b98424b
:104b300000d184e02a001532ff32537840210b4324
:104b400053704523e35c002b05d18a225200ab5cf5
:104b500010210b43ab544623e35c002b00d0e7e06d
:104b60008a225200ab5c20210b43ab544423e35c0c
:104b7000012b00d176e0002b00d170e0022b00d198
:104b800079e0002314934623e35c002b00d0d9e0a6
:104b9000226be169e66a4523e35c584243415b428c
:104ba000142003400c33206a8346606a8246a06a60
:104bb0008146606b8046a06b8446002a00d1a2e04b
:104bc0000020129020301590129f381e00d09de0da
:104bd000109012980f9015980e900d9210220c9232
:104be000139a0b9200220a92604609904046089060
:104bf0000792069248460590504604905846039006
:104c00000293019600920023149a280003f010fbef
:104c1000ee6923689b68200098475d36ff36306256
:104c20006269e6235b00e969ca5028000bf04cf882
:104c300017b03cbc90469946a246ab46f0bd8a22ce
:104c40005200ab5c01210b43ab54f0235b00ea69db
:104c5000e16bd150eb69d133ff3313936ae7102333
:104c6000149390e78a225200ab5c08210b43ab54ab
:104c70001823149387e78a225200ab5c04210b436c
:104c8000ab54202314937ee74146c91a35008d406a
:104c90005146d940294317e04146891a3d008d40cd
:104ca0002900159dd5402a000a432272083bdbb239
:104cb0000130f82b10d01a00040020214942591865
:104cc000e2d43500cd4029002170202149425118fd
:104cd000e2d43a00ca40e8e765464c46e169e66a34
:104ce000b33be35c002b13d1236a9b46636a9a466d
:104cf000a36a9946636b9846a36b9c4620230022c7
:104d00000020159060e7129215925de710205fe792
:104d1000236a9b46636a9a46a36a9946636b9846e0
:104d2000a36b9c460c2300220020159010304fe707
:104d30004423e35c012b95d0002b90d0022b9ad01a
:104d4000002314930df082fd03689b6a98470600c8
:104d5000102200210ff0d8f8a36b5a0f9446db0005
:104d60009a46a36a5f0fdb009946129630003823fb
:104d7000202290466646ac464a461592a1469ae7de
:044d8000bb2e6038ae
:020000040000fa
:020000041000ea
:104d8400f0b583b00500844b1b689a6adb6b834bd8
:104d94001b689a6ada6b824a12689168926a5b6b42
:104da400c669e4235b00f458002c2ad00ef070fe90
:104db4000600a379062b22d89b007a4ad3589f4633
:104dc400102300e0142300930123012221007648dc
:104dd40005f05cfb3368db68210030009847ea6922
:104de400e4235b000021d150704803b0f0bd1823c8
:104df400e9e72023e7e73023e5e74023e3e700235f
:104e0400e1e733005d33ff331b6a694a93426fd095
:104e14001bd9684a934200d1bce032d9664a934216
:104e240054d0664a93421bd1e62464003159644b42
:104e3400644a5d480af0c4f90022eb691a51eb692f
:104e44005d33ff331a625948cfe75f4a93422cd04f
:104e54005e4a934200d18ae05d4a934200d197e0d2
:104e6400e62464003159564b5a4a4f480af0a8f9cf
:104e74000022eb691a51eb695d33ff331a624b4828
:104e8400b3e7554a9342ebd1e624640031594c4bc5
:104e9400524a45480af094f90022eb691a51eb6929
:104ea4005d33ff331a6241489fe7e62464003159b9
:104eb400434b4b4a3c480af083f90022eb691a51f0
:104ec400eb695d33ff331a6238488ee7e6277f00cb
:104ed400f159002400943a4b424a33480af054f8fa
:104ee400eb69dc51eb695d33ff331c622f487ce7cf
:104ef400f0235b00f1583c4b1b688b421ad0300006
:104f0400d130ff3010220df001fd43425841c0b2b0
:104f1400e624640031590090294b344a22480af0af
:104f240033f80022eb691a51eb695d33ff331a62df
:104f34001e485ae72c4b1b681a68e8235b00f35899
:104f44009a4210d13300d533ff333000e130ff30c3
:104f540025490a6812681c68944206d104338342c6
:104f6400f7d10120d4e70020d2e70020d0e7e624df
:104f740064003159124b1e4a0b480af021f90022f1
:104f8400eb691a51eb695d33ff331a6207482ce76a
:104f940018482ae7174828e71c2a0010042a00109a
:104fa400082a001048f90010eaebf924fa3108af96
:104fb400bb2e6038faee14ed03b880ed035744f7c6
:104fc40026a926146a46f7bb9bdf001acf2f1125aa
:104fd400167d6e1589817b0d5b96c897e2a9e9d889
:104fe400a27a9cf16a590708002a0010820f7ae914
:084ff400ce311d0ea40691de72
:020000040000fa
:020000041000ea
:104ffc00600e01104c0e0110500e0110540e0110d9
:10500c00540e0110580e0110580e01105c0e0110b8
:10501c005c0e01105c0e01105c0e0110600e011094
:10502c00500e0110540e0110540e0110580e0110a8
:10503c00580e01105c0e01105c0e01105c0e01107c
:10504c005c0e0110000a0110e8090110ec090110b6
:10505c00f0090110f4090110f8090110fc09011004
:10506c00f0090110f4090110f8090110fc090110f4
:10507c00000a0110ec090110f0090110f4090110eb
:10508c00f8090110fc090110f0090110f4090110d4
:10509c00f8090110fc0901102c0a0110140a011066
:1050ac00140a0110140a0110140a0110180a011034
:1050bc00180a01101c0a0110200a0110240a011000
:1050cc00280a01102c0a0110140a0110140a0110ec
:1050dc00140a0110180a0110180a01101c0a0110f8
:1050ec00200a0110240a0110280a0110c2f3001032
:1050fc00a0f30010a6f30010aaf30010b0f30010f8
:10510c00b6f30010bcf30010bcf30010bcf300109d
:10511c00bcf30010bcf30010c2f30010a6f3001097
:10512c00aaf30010b0f30010b6f30010bcf300109b
:10513c00bcf30010bcf30010bcf30010bcf3001067
:10514c000123456789abcdeffedcba98765432105b
:10515c00f0e1d2c3d89e05c107d57c3617dd70307f
:10516c0039590ef7310bc0ff11155868a78ff96428
:10517c00a44ffabe67e6096a85ae67bb72f36e3c54
:10518c003af54fa57f520e518c68059babd9831f06
:10519c0019cde05b5d9dbbcbd89e05c12a299a62d7
:1051ac0007d57c365a01599117dd7030d8ec2f1584
:1051bc0039590ef767263367310bc0ff874ab48e17
:1051cc00111558680d2e0cdba78ff9641d48b547d7
:1051dc00a44ffabe67e6096a08c9bcf385ae67bb83
:1051ec003ba7ca8472f36e3c2bf894fe3af54fa59c
:1051fc00f1361d5f7f520e51d182e6ad8c68059b56
:10520c001f6c3e2babd9831f6bbd41fb19cde05bf3
:10521c0079217e1367452301efcdab8998badcfe6b
:10522c00103254760000000000000000690e0110de
:10523c0029340110fd4101100342011009420110f3
:10524c00c11001102fff00109de80010410e01103d
:0c525c00dd090110090a011095f3001093
:020000040000fa
:020000041000ea
:10526800f0b5de4657464e464546e0b585b00500e2
:105278000c000df0e7fa0600ad239b00ea69e16a2d
:10528800d1503123e15c002912d1676a3023e15cf7
:10529800002921d0814bf358db68804ab018984721
:1052a800002836d00ff03cf80c239946814415e0cd
:1052b8007a4bc358db68794a80189847002804d08d
:1052c8000ff02ef80c300700e0e7e8690023002211
:1052d80073490af07bfa15e0236a99463223e15ca8
:1052e800002900d178e06d4b9a46b244f358db6848
:1052f80050469847002813d0e869002300226949de
:105308000af064fa05b03cbc90469946a246ab4602
:10531800f0bde8690023002261490af057faf1e775
:105328000ef0b4fb834603689b6898465e4b5f4a61
:105338002421c047031e03903bd07978296210319d
:105348005b461b689b689846594b5a4a5846c04763
:105358008046002833d0ad239b00ea69d3589b468a
:105368002a6a00210ef0ccfd0023424613605360e8
:105378009360d3605b469b7c93703223e35c13702d
:1053880001235b4293602b6a9381296a1031136869
:10539800039c20000cf0b2f8404bf3585b692100e5
:1053a8005046984710239c46e0440ef06ffb0600d9
:1053b80020e0e869002240490af008faa2e75b46c3
:1053c8001b68db68039958469847e8690023002260
:1053d80039490af0fbf995e70df034fa03685b6a7e
:1053e80098478023db00984680440ef04ffb060068
:1053f800002f1ed04b46002b2dd033689c6800230d
:105408002e4a28213000a047041e35d00ef0d0facd
:1054180006007b782b62434600933b004a462849a6
:1054280020000bf05bfb33681b69210030009847b4
:1054380068e7002300222349e8690af0c7f9ad2488
:10544800a400eb6919593368db6830009847eb69a9
:1054580000221a5156e700221b49e8690af0b6f9fa
:10546800ad24a400eb6919593368db68300098470c
:10547800eb6900221a5145e7002300220e49e8692a
:105488000af0a4f9ad24a400eb6919593368db6864
:1054980030009847eb6900221a5133e738150000ad
:1054a8001200008011000080c748a7c0b09c019777
:1054b8007cd18fd931b7ab5123000080c96dee354f
:0c54c8006ebb3fc8040000803000008074
:020000040000fa
:020000041000ea
:1054d400f0b5de4657464e464546e0b587b0070070
:1054e4008b464b6bdb080493dbb29946022b12d834
:1054f400c269e6235b00d15800230093834b844a9e
:10550400844809f041fd002007b03cbc9046994610
:10551400a246ab46f0bd04002034902200212000b6
:105524000ef0f0fcb0239846b844602200214046b7
:105534000ef0e8fc8a2252000023bb500123bb5426
:105544003a001532ff32537039235a46d35c012b8b
:1055540067d0002b77d0022b6cd0002302935b46dc
:105564001e6a4b465d004d446d00063debb203934d
:105574000121380006f08efd0125112292463a00e1
:105584001532ff325146009104230021380009f0fe
:10559400bbf880231b01524613430093029b5a46d7
:1055a400926a0121380009f0aff80095082332000f
:1055b4000621380009f0a8f808229446b44462464b
:1055c40005920095082365460721380009f09cf8e8
:1055d400082332000121380009f09afa08232a002e
:1055e4000221380009f094fa380006f001f84a4b19
:1055f4001a6814601c6842462261032363633c33c7
:10560400236303229246039b002b3dd01d00ff23fe
:10561400049a1340013b02934b46013bdbb20393d4
:105624001de08a225200bb5c08210b43bb541823a3
:10563400029394e78a225200bb5c04210b43bb54bf
:10564400202302938be71023029388e7e36bda07a6
:10565400fcd49b07fad4013debb2002b14d0029981
:10566400280006f085ffc9b2f3796b40f371002975
:1056740000d10399c90071189023f9504033f950af
:105684005346a363e36be2e732687168234b1c0063
:10569400544018004840044360424441e4b29a42f2
:1056a40008d05b4659690094184b194a194809f007
:1056b4006bfc28e79942f4d15b46586a184b1b6887
:1056c40083420ed05b461b6a8342ead0ff22049bce
:1056d4001a40144b9c466244d20005990ef026fcf5
:1056e400dfe7ff21049b194049000229d9d902238d
:1056f40002220b4d059e28689200925902600133e4
:10570400dbb21a008b42f6d3cbe7c046c2b7e9cc72
:105714009c685774eaebf9241c2a0010a6a6a6a6d6
:08572400002a0010ffffff1f27
:020000040000fa
:020000041000ea
:10572c00f0b5de4657464e464546e0b58db0060010
:10573c00ad239b000a6ac169ca50c269d358994605
:10574c000df07ef804004b46db795b0745d54b46e4
:10575c00597c002941d07d4bc358db687b4a8018ab
:10576c009847051e0cd00ef0dbfd4001400f0228bf
:10577c000dd0f0690023002275490af025f8b5e038
:10578c00f0690023002273490af01ef8aee02800ed
:10579c000ef0c8fd037b5b0706d0f06900230022e6
:1057ac006b490af011f8a1e028000ef0bbfd037b59
:1057bc0070221a4206d0f0690023002264490af0d4
:1057cc0003f893e028000ef0a9fdc3680a932800a3
:1057dc000ef0a4fd1030050007e023685b6a200082
:1057ec009847c3680a93103005000ef04df9070076
:1057fc000aab1b785b0700d08be00aab1b785b060f
:10580c005b0f00d079e00aabdb78db0607d50aab7f
:10581c0058784300c0184000c0b2099502e000203f
:10582c00002309930aabdb789b0601d50230c0b28a
:10583c002d183b689b689846474b484a44213800d2
:10584c00c0470890002800d179e04b46db79002650
:10585c005b0615d50aab5b789f089b0765d00137b3
:10586c0023685b6a2000984780231b01c61800231d
:10587c003b48026811689a00b1500133bb42f8d31f
:10588c004b469b795b075b0f9846354b1b689a46da
:10589c004b465b699b4623685b6a200098478146b0
:1058ac0023685b6a200098470a9b0b93079680231a
:1058bc001b014b4406935b4605935346049380238c
:1058cc00db009c4660440390099b02930195434680
:1058dc0000930a9b234a2449089c200008f088ff67
:1058ec000ef064f803681b69210098470db03cbcae
:1058fc0090469946a246ab46f0bdf06900230022c3
:10590c00134909f061ff3b68db684946380098474a
:10591c00ece7f069002300220d4909f055ff3b68c4
:10592c00db68494638009847e0e723685b6a20004b
:10593c00984780231b01c618002f98d1a0e7f06967
:10594c0000230022094909f03fffcfe7381500007a
:10595c00140000801200008071c26e78c96dee35a3
:10596c00002a00106ebb3fc8faee14ed2300008035
:020000040000fa
:020000041000ea
:10597c00f0b583b00ef088f804000ef017f80500af
:10598c00814b1b681e680196730700d471e0002cd4
:10599c0000d16ee0002800d16be023689f687b4b40
:1059ac007b4a20212000b847071e08d002227949e3
:1059bc000cf06afd2b685b6939002800984701ab35
:1059cc005b785b065dd401ab5b78db0900d1a0e0b2
:1059dc0023689f68704b6e4a20212000b847071e31
:1059ec0008d009226d490cf04ffd2b685b6939001a
:1059fc002800984701ab9b78db0700d591e001ab01
:105a0c009b789b075ed401ab9b785b0700d4afe01f
:105a1c00002c29d0002d27d023689f68604b5c4a4e
:105a2c0020212000b847071e08d00c225d490cf03d
:105a3c002bfd2b685b6939002800984701ab9b78dc
:105a4c001b0711d523689f68574b514a2021200012
:105a5c00b847041e08d00d2252490cf015fd2b68d6
:105a6c005b69210028009847474b1b689e6103b077
:105a7c00f0bd01ab5b785b0642d5002c40d0002d0d
:105a8c003ed023689f68494b414a20212000b847eb
:105a9c00071e08d0082241490cf0f6fc2b685b6904
:105aac0039002800984701ab5b78db0900d08fe701
:105abc0001ab9b78db0732d401ab9b789b07a2d55b
:105acc00002c50d0002d48d023689f68384b304aaa
:105adc0020212000b847071e08d00b2231490cf0ba
:105aec00d3fc2b685b6939002800984701ab9b7885
:105afc005b0700d590e701ab9b781b0740d4b3e75d
:105b0c0001ab5b78db0904d0002c02d0002d00d057
:105b1c005ee701ab9b78db07ced5002c23d0002da4
:105b2c001bd023689f68234b194a20212000b847bb
:105b3c00071e08d00a221b490cf0a6fc2b685b69d7
:105b4c0039002800984701ab9b789b07bcd401ab6c
:105b5c009b785b0700d55de70ae001ab9b785b07a0
:105b6c0000d581e704e001ab9b785b0700d57be7b0
:105b7c0001ab9b781b0700d476e7002c00d173e7b0
:105b8c00002d00d05ee76fe7f8290010ebafe5caf7
:105b9c00c96dee3532cb175d485c75011143369fec
:105bac00c33cbc22eaebf92432bee2caded1844506
:085bbc0042d188387164d568fc
:020000040000fa
:020000041000ea
:105bc400f0b5d6464f464646c0b582b006000c0036
:105bd4008f6b002f00d183e04b7f9946b944002599
:105be40023689b6820009847794b984271d0002322
:105bf400984631227f239d431543637f013bdbb2eb
:105c04001b02744a15401d4380235b051d43db00c2
:105c14001d434346002b5cd0636a9a4643469a7af6
:105c2400120912056c4b1d4015432900300005f084
:105c34002df843465b68627f012101910091390090
:105c4400300007f01ffa23689b6820009847604bd8
:105c5400984200d180e0627f0092534608213000d0
:105c640009f048fa627f53469b18009209213000dc
:105c740009f040fa636b594a12689a420dd0627f68
:105c840000920a21300009f035fa627f636b9b1899
:105c940000920b21300009f02dfaf56923689b6806
:105ca400200098475d35ff352862f3695d33ff3383
:105cb400627f5a62f3695d33ff33626b9a62f36900
:105cc4008e33ff3301221a70f369a26a5d33ff3306
:105cd400da62002002b01cbc90469946a246f0bd90
:105ce4004b7f202b63d017d9302b69d0b946422b78
:105cf40000d074e73a4b102290469844394b9946a9
:105d04001f00423f002523689b6820009847304bc2
:105d1400984240d031226de7b946182b00d05ee797
:105d240000250b689b6808009847294b984209d0c6
:105d34002b4b2022904698442b4b99461f00183f2a
:105d4400113257e7264b202290469844264b994619
:105d54001f00183f10324de7627f00925346062120
:105d6400300009f0c7f9e36b002b06d0627f009284
:105d74000721300009f0bef98fe7637f4a46616b63
:105d8400300005f093f9627f0092636b07213000c5
:105d940009f0b0f981e7657f013dedb22d023023b2
:105da4001d4380235b051d43db001d4334e70c4b7f
:105db4003022904698440d4b99461f00203fa1e79e
:105dc400074b98460a4b99461f00303f9ae7c04656
:105dd400faee14edff00ffffffff0fff002a001093
:105de40050300010d2300010143400105c33001016
:045df4004c3200101d
:020000040000fa
:020000041000ea
:105df800f0b5de4657464e464546e0b589b0060042
:105e08008846096a0a6807921004000ec5b2d200d3
:105e1800d20f00d0b0e0202d00d1dfe009d9302d1d
:105e280000d1e0e0422d20d1714f1037714b9a46d6
:105e38001ee0182d15d122246b1edbb21b021c4359
:105e480080235b051c43db001c43694b9b6a1c4396
:105e5800002a00d0a6e0664f2037674b9a460123f8
:105e680013e0002700239a4602e0002700239a4601
:105e780022246b1edbb21b021c4380235b051c43e0
:105e8800db001c43bb681c43012304aad27b920697
:105e980002d540001b18dbb29b00ca18039241468a
:105ea800c96989469944bb7a1b091b05534a1440a2
:105eb8001c432100300004f0e7fee400e40fe1b2e7
:105ec8008b467b680122019200912a0051463000de
:105ed80007f0d6f85946002969d00095039b2a0097
:105ee8000e21300009f004f900954b462a000c21d8
:105ef800300009f0fdf84b465b1900952a000d218a
:105f0800300009f0f5f83e4f3b683e4a1a603e48bb
:105f18003e4b3f4a010009f051f93b6803229a6061
:105f28000ef0a8f80368db680c219847e6235b00ad
:105f3800f26941464969d150f3695d33ff33354a07
:105f48001a62f3695d33ff335d62f3695d33ff33d2
:105f58004246526a9a62f3698e33ff331c70f269c3
:105f68000021e4235b00d150002009b03cbc9046de
:105f78009946a246ab46f0bd0b1d9a4622246b1edd
:105f8800dbb21b021c4380235b051c43db001c4364
:105f980000239b681c43002742001218520001325c
:105fa800d3b272e7124f2037134b9a46f4e70095a5
:105fb800039b2a000e2130000bf06afb00954b462c
:105fc8002a000c2130000bf063fb4b465b1900954f
:105fd8002a000d2130000bf05bfb94e7044f3037ab
:105fe8000d4b9a4644e7024f0c4b9a4640e7c04691
:105ff8005030001090300010fc330010ffff0fffee
:10600800182a00100c0e0600eaebf924cf08000845
:10601800a40691de88bf67713c3300101c32001063
:020000040000fa
:020000041000ea
:10602800f0b585b006000cf00dfc04006f4bc55ca4
:10603800012d00d1c8e06e4bc718202239006d48e9
:106048000cf062fc00282ed0002d00d0c6e0012301
:10605800b377664aa354684cb37f002b03d0f37f11
:106068000020002b1dd10df011fd03689d68002351
:10607800624a3021a84705000020002d11d00023d6
:1060880002930197043300933c3322005c492800b3
:1060980009f0a2fe0df08cfc03681b6929009847e3
:1060a800002005b0f0bd2300dc332903554a94468f
:1060b8006144fc2212011d0018000df035ff002379
:1060c800514a52494e4809f079f8aa78504be2549f
:1060d800ea78504be2542300fc331a784e4be254d2
:1060e8004e4b4f4a4f49504809f068f8dc23e25ab2
:1060f8004e4be252ab78aa2b2bd0ff2b2bd0013b77
:106108005a4253419b000022019200930023484abf
:1061180045493b4808f004fe2300dc33da780223c3
:10612800aa2a1ad00022019200930023414a3e492c
:10613800334808f0f5fd404b1b68002b19d02200ae
:10614800dc32d288002a14d01b68002b11d03b48bf
:10615800a7e70323d7e70223d5e72300fc331b78ff
:10616800aa2b04d0ff3b5a1e93410133dae70123df
:10617800d8e72c4e224f0023314a3100380009f06d
:106188001df8294d00230193013300930023294a68
:106198002900380008f0c4fdaa231e4aa3541e4a49
:1061a800a3541e4b1e4a3100280009f007f8dc34be
:1061b800e388002b06d13800224a390008f0feff98
:1061c80000206ee71d486ce7094bc71820223900ec
:1061d8001d480cf099fb002800d164e70123f377f0
:1061e800024b0022e254074c36e7c0465215000025
:1061f8009c1000008000006040100060c96dee3502
:106208006ebb3fc840000060f43ab2411357722792
:10621800531500005415000055150000b473cd6ed9
:106228000025d5ea3c736db8b857301450150000f6
:10623800964e2d8b2731d817f02900100d5d44c0dc
:0c6248005e85f50de1d308268010006093
:020000040000fa
:020000041000ea
:10625400f0b5c64600b504000d003823ce5cc7690e
:106264000b689b68080098475d37ff373862e62360
:106274005b00e2696969d150bc3b0022e250330003
:106284000c3bdab2042a09d89300774ad3589f46c4
:1062940088225200a35c02210b43a3542200113232
:1062a400ff32537801210b4302210b4304210b439a
:1062b4005370270028378822002138000df022fe71
:1062c4002000b030602200210df01cfe23001133a9
:1062d400ff332362a36a1b0f1b0704221343a36229
:1062e4001b0e20210b43fb702c239846e25c0f27e6
:1062f400ba430320024310239c4663461a43434691
:10630400e254230030336362eb6923632b6a1a017e
:106314001209a36b1b0f1b071343a363220038321c
:106324001b0e0b43d3703c22a35cbb431843802356
:106334005b421843a0542300403363636b6a2364b5
:106344004a4b1b686a6a934265d022004832d3786c
:1063540020210b43d370ab6a002b63d1a36c1b0fba
:106364001b0704221343a3644d23e2544c21635cb2
:106374000f2293434420225c01273a4322540322f0
:106384001343202213436354b023ea6ae250374b89
:106394001a68eb6a9a425fd00cf018f803685b6adb
:1063a40031009847b82200010309a158080f0007db
:1063b4001843a0502300b833000e20210843d8709e
:1063c4000432a35c0b43a354083aa35c01210b439e
:1063d400a354200009f076fc04bc9046f0bd88224a
:1063e4005200a35c04210b43a35457e788225200b4
:1063f400a35c08210b43a35450e788225200a35cfa
:1064040010210b43a35449e788225200a35c2021a6
:106414000b43a35442e722004832d37810210b43a4
:10642400d37092e79a070fd003221a400421891ae5
:10643400c9b2cb181b011b09a26c120f120713431c
:10644400a3644d23e15491e71b011b09a26c120fb5
:1064540012071343a36489e72200b832d3781021ca
:106464000b43d37098e7c04698eb0010002a001045
:020000040000fa
:020000041000ea
:10647400f0b5de4657464e464546e0b587b00700c0
:106484008a464b6bdb080393dbb29b46022b12d884
:10649400c269e6235b00d15800230093734b744a0e
:1064a400744808f071fd002007b03cbc9046994642
:1064b400a246ab46f0bd012105f0ecfd8a235b004a
:1064c4000022fa503b001533ff3301325a7039234e
:1064d4005246d35c012b6bd0002b7bd0022b70d0a7
:1064e4000023029353465b6a984605931e000836c0
:1064f40053465a6b083a196a30000df017fd5b4693
:106504005b005b445b00063bdbb299465a4a5a4b3c
:1065140041460a604b60012411253a001532ff32ce
:10652400009504230021380008f0eef880231b01b5
:106534001d430095029b5246926a0121380008f0df
:10654400e3f80094082342460621380008f0dcf8fa
:106554000094082332000721380008f0d5f80823f6
:1065640042460121380008f0d3fa08233200022100
:10657400380008f0cdfa380005f03af83f4b1a68b5
:106584003900203111601c683b00b03323610323c0
:1065940063633c3323634b46002b40d00125ff2328
:1065a400039a1340013b02933b004746984620e080
:1065b4008a225200bb5c08210b43bb54182302936c
:1065c40090e78a225200bb5c04210b43bb54202376
:1065d400029387e71023029384e7e36bda07fcd482
:1065e4009b07fad4fb795e40fe710135ebb2994505
:1065f40015d3eeb20299280005f0baffc9b20029fa
:1066040002d15b46591ec9b2c9007918902342468b
:10661400d1504033d150cd3ba363e36bdee7184b3d
:106624001b685246526a934209d053465969012362
:1066340000930e4b0e4a0f4808f0a6fc33e7ff20e8
:10664400039b18404000f0d0002200230c4c21682a
:106654009b0006adac466344043b1b680b600132ef
:10666400d2b213008242f2d3dfe7c046c2b7e9cc0c
:1066740053fb18f2eaebf924a6a6a6a61c2a0010de
:04668400002a0010d8
:020000040000fa
:020000041000ea
:10668800f0b583b0714da026b60132000021280074
:106698000df036fc6e486f4b186080229201002185
:1066a8000df02efc0bf004fc0df05efa04006a4ab3
:1066b800052301931300303300930423310028008d
:1066c80008f010f90af062fa2368012600965d695d
:1066d8000123002261492000a8470af099fa23689b
:1066e8001d690df055fa0100002300222000a8477b
:1066f8000af07efc23681e2500955f6900230122ad
:1067080057492000b84709f00dff23681f690bf0af
:1067180077fe0100002300222000b8472368009577
:106728005f69002301224f492000b84709f01cfd8a
:1067380023681f690bf09cfe010000230022200043
:10674800b847236800955f69002301224649200065
:10675800b847236800965f69002300224349200058
:10676800b84709f083fd23681f690bf029ff010072
:10677800002300222000b847236800955f690023a2
:1067880001223b492000b84709f0e4fe23681f694d
:106798000bf052fe0100002300222000b8472368b6
:1067a80000955f690023012232492000b84709f0ab
:1067b8000bfc23681f690bf007fe01000023002271
:1067c8002000b847236800955f69002301222a4901
:1067d8002000b84709f02efe23681f690bf0e6fd7c
:1067e8000100002300222000b847236800955f6954
:1067f8000023012221492000b84709f081fc2368c1
:106808001f690bf027fe0100002300222000b84773
:10681800236800955d690023012219492000a847d3
:10682800236800965d690023002216492000a847c6
:1068380009f06afd23681d690cf004f801000023c3
:1068480000222000a84703b0f0bdc04660af011089
:1068580060d701100018001034bd0010da4a82c059
:10686800a308e560a686ffa0379bbe37fa7a397879
:10687800e9202c28d161548d94a784bd86b0751762
:0868880065eaa4af8ccc37ca0d
:020000040000fa
:020000041000ea
:10689000f0b5d6464f464646c0b504000d00170079
:1068a0001e000bf095fd03685b6a2900984780463f
:1068b00088235b000022e250062d09d8ad00724b00
:1068c0005b599f4688225200a35c01210b43a354cd
:1068d00022001132ff32537802210b4304210b4373
:1068e0005370250028358822002128000df00cfb6c
:1068f0002000b030602200210df006fb2300113390
:10690000ff332362a36a1b0f1b0704221343a362f6
:106910001b0e2022924652461343eb702c25635dda
:106920000f20834303210b43994610239c46634663
:106930004a461a43625523003033636200232363bf
:1069400025003835eb7852461a43ea703c22a35ca6
:1069500083430b43a35423004033636327644b4baf
:106960001b68bb4267d022004832d37820210b43fa
:10697000d370002e66d1a36c1b0f1b070422134398
:10698000a3644d23e2544c21635c0f2293434420c3
:10699000225c01252a43225403221343202213435d
:1069a0006354b023089ae250384b1b68934263d07b
:1069b000b823424617013f09e258100f0007384339
:1069c000e0502300b833000e20210843d870bc22c9
:1069d000a35c0b43a354083aa35c01210b43a354cb
:1069e000200009f071f91cbc90469946a246f0bd02
:1069f00088225200a35c02210b43a35468e788223b
:106a00005200a35c04210b43a35461e78822520087
:106a1000a35c08210b43a3545ae788225200a35ccd
:106a200010210b43a35453e788225200a35c20217a
:106a30000b43a3544ce722004832d37810210b4378
:106a4000d37090e7b3070fd0032333400422d21a48
:106a5000d2b293191b011909a36c1b0f1b070b431f
:106a6000a3644d23e2548ee733011b09a26c120f7d
:106a700012071343a36486e72200b832d3781021ab
:106a80000b43d37094e7c04660eb0010002a00105f
:020000040000fa
:020000041000ea
:106a9000f0b5d6464f464646c0b590b080460c008d
:106aa000cb6909930b6a0f930e930c930bf0cefef8
:106ab0000500636b002b02d0db795b072ad42b68bf
:106ac0005b6a280098478023db00c518002d00d1a1
:106ad000b2e000239946636a002b05d0226b530075
:106ae0009b185b00a946ed18636bda7f00218a468c
:106af000920603d5226b5200aa46ad18da7f5206e1
:106b000068d5db79db0966d0226ba16a28000df01d
:106b10000ffa60e00cf0beff0600636bd97c504baf
:106b2000eb58db684e4aa818984700280cd043461b
:106b3000d869002300224b4908f04cfe616b336892
:106b4000db683000984777e033689f68464b474ad8
:106b500024213000b847071e1dd02b681b6a002275
:106b600009a928009847010033689d68404b414ab5
:106b70003000a847051e1bd0636b09a99a7c8a7058
:106b80001a7c0a70db7c5b075a0fcb7807208343a3
:106b90001343cb709de7616b3368db683000984727
:106ba0004346d86900230022334908f013fe43e02e
:106bb0003368db68390030009847616b3368db6805
:106bc000300098474346d869002300222a4908f03c
:106bd00001fe31e000250cf05dff060003689f68b0
:106be0000023264a3c21b847071e2bd00c9b0d934f
:106bf000626b00230693537f0593d37f9b06db0fc5
:106c00000493d379db090122534003935346029343
:106c100001954b4600930c9b099a194907f0c6fd54
:106c20000cf0cafe03681b69390098474346da69cd
:106c3000616bad239b00d15010b01cbc90469946af
:106c4000a246f0bd616b3368db683000984743466d
:106c5000d86900230022084908f0bcfdece7c046d3
:106c60003815000011000080c748a7c0b09c0197ec
:106c70007cd18fd931b7ab5123000080c96dee357f
:046c80006ebb3fc8e0
:020000040000fa
:020000041000ea
:106c8400f0b5d6464f464646c0b58ab00400ad239b
:106c94009b000a6ac169ca50c269d7580bf0d4fd77
:106ca4000600fb795b0744d5797c002941d0684b09
:106cb400c358db68664a80189847051e0cd00df04f
:106cc40033fb4001400f02280dd0e069002300226d
:106cd400604908f07dfd87e0e069002300225e49f9
:106ce40008f076fd80e028000df020fb037b5b07b5
:106cf40006d0e06900230022564908f069fd73e0dc
:106d040028000df013fb037b70221a4206d0e069c1
:106d1400002300224f4908f05bfd65e028000df0d8
:106d240001fbc368089328000df0fcfa103005003d
:106d340007e033685b6a30009847c36808931030f3
:106d440005000cf0a5fe804608ab1b785b076bd1f1
:106d540008ab1b785b065b0f59d108abdb78db060d
:106d640007d508ab58784300c0184000c0b2a94604
:106d740002e000200023994608abdb789b0639d556
:106d8400aa46824443461b689d68344b344a4421d6
:106d94004046a847051e54d0bc796407640f336885
:106da4005b6a300098472f4b1a6879691b68089e04
:106db4000996002607960693059104928023db002a
:106dc4009c46604403904b460293534601930094bf
:106dd400089b254a2549280007f00efd0cf0eafd22
:106de40003681b69290098470ab01cbc9046994661
:106df400a246f0bde06900230022164908f0e8fc31
:106e040043461b68db68390040469847ece7e06975
:106e1400002300220f4908f0dbfc43461b68db68b3
:106e2400390040469847dfe7e0690023002209491a
:106e340008f0cefc43461b68db683900404698479f
:106e4400d2e7e06900230022094908f0c1fccbe73e
:106e54003815000014000080120000805533f23c05
:106e6400c96dee35002a00106ebb3fc8167d6e1545
:046e74002300008077
:020000040000fa
:020000041000ea
:106e7800f0b5c64600b58ab00700ad239b000a6a84
:106e8800c169ca50c269d458e3795b0700d577e075
:106e98000bf0d8fc03685b6a98470990a3793c22f9
:106ea8001a4200d1c0e09b079b0fdab2012a5fd0db
:106eb8005bb2002b0ad00026022a0ed10bf0c2fcce
:106ec80003685b6a98472030060006e00bf0bafcbe
:106ed80003685b6a984710300600554b1b68984654
:106ee8000cf0d4fd03689d680023524a3c21a84752
:106ef800051e00d191e06279002a00d187e0013aad
:106f0800531e9a4152424c4b1a404c4b9c46624489
:106f1800a3799b061b0f012b00d17ae0023b584254
:106f280058414000a3799b079b0f012b00d172e0c9
:106f3800023b5942594149003d4b1f681b6824696f
:106f4800069405910490414603910296099901918e
:106f580000933b003a49280007f05afa0cf028fd44
:106f680003681b69290098470ab004bc9046f0bd25
:106f78000bf068fc03685b6a984718300600ace7ba
:106f88000bf060fc03002f4a8018617d9b58db687a
:106f98009847051e0cd00df0c5f94001400f012897
:106fa8000dd0f86900230022274908f00ffcdbe721
:106fb800f86900230022254908f008fcd4e72800d6
:106fc8000df0b2f9037b5b0706d0f86900230022b5
:106fd8001d4908f0fbfbc7e7a679b607b60f2800de
:106fe8000df0a2f9037b9b069b0fb34206d0f8690c
:106ff80000230022144908f0e9fbb5e728000df04a
:107008008ff91030099000239846002668e7104a47
:107018007ee7012086e701218ee7f8690023002238
:107028000c4908f0d3fb9fe700239846002657e752
:10703800002a0010c96dee35fda8bb08035744f7b8
:107048006ebb3fc838150000140000801200008095
:087058009bdf001a23000080f9
:020000040000fa
:020000041000ea
:10706000f0b5ce46474680b583b007000c004d6aa8
:10707000002d00d08ce00b6b202b00d1a2e00dd9ad
:10708000302b00d1a6e0422b00d07de0554e1036cb
:10709000554d42235b429846a84409e0182b00d086
:1070a0006fe0504e2036514d18235b429846a8445d
:1070b0003823e35c002b00d072e0a36a99463923a1
:1070c000e35c002b57d04b46002b54d02221236b7e
:1070d000013bdbb21b02194380235b051943db0034
:1070e0001943002e47d0b37a1b091b0519433800fa
:1070f00003f0cefd7368012501950095226b414692
:10710000380005f0c1ff236b00934b46226b06212c
:10711000380007f0f1ff364b1a68364911601b68da
:1071200003229a603448354b354a010008f04af88a
:107130000cf0a4ff0368db680c219847e6235b0092
:10714000fa696169d150fb695d33ff332d4a1a62d8
:10715000fb695d33ff33226b5a62fb695d33ff339a
:10716000e26a9a62fb698e33ff331d70fa69616bc4
:10717000e4235b00d150002003b00cbc904699463c
:10718000f0bd0023984607e000250023984603e061
:10719000a8460b6b9c466544002d11d0002687e75e
:1071a0000bf054fb03685b6a984780231b019946e8
:1071b0008144236b2a004946380003f079ff7ee7bb
:1071c0002e007ae7074e30360f4d20235b4298465b
:1071d000a8446de7034e0d4d30235b429846a8440a
:1071e00066e7c04650300010d23000101434001052
:1071f000182a001002060800eaebf924cf0800085c
:10720000a40691de80074fe15c3300104c32001081
:020000040000fa
:020000041000ea
:10721000f0b5c64600b58ab0cc692388202b04d0cf
:107220005b480ab004bc9046f0bde3790f2293435b
:10723000202b00d1a2e0e37d002b02d0a37d002b08
:1072400003d1a368002b00d19ae0237cdb072fd465
:10725000e368002b00d195e0a268216805f01efad2
:1072600001282fd00027002398460cf0a5fb06002c
:107270000cf010fc03689d68464b474a3421a84730
:10728000051e00d182e0454b1968e37da27d049480
:107290000391414602910197e17c0091404907f03a
:1072a0006fff33681b692900300098470120b8e759
:1072b000e368002b68d1a268002acdd10027002303
:1072c0009846d2e70bf0c2fa03685b6a984705005c
:1072d00006aad37807218b4302210b43d3700023e6
:1072e0000793013b0893e37d002b24d00026002365
:1072f0009846a37d0027002bb7d1284b1b68b6000a
:10730000af191b683b6009930bf0a0fa03681b6a76
:10731000012206a998471038810883072bd0013134
:10732000301d281800231d4d2a68126804c001333f
:107330008b42f9d399e7194b1b681b6803600993cb
:107340000bf084fa03681b6a012206a998471038db
:10735000860883070cd001360023104802680133e9
:1073600011689a00a950b342f8d30136a846c0e785
:107370000328f1d8f9e70328d2d876e7094850e77f
:1073800009484ee709484ce709484ae7094848e7f1
:1073900021000080a7ef242dc96dee35002a0010d2
:1073a0003c736db8020000801a0000801900008054
:0873b0001b0000802300008097
:020000040000fa
:020000041000ea
:1073b800f0b5de4657464e464546e0b585b00bf07b
:1073c80041fa07009c239b4683440300dc339a88d8
:1073d8005a4492461a8930325a4402929b89303371
:1073e8005b44039353469b78002b00d17ae05346c5
:1073f800043300930023994636e03b00dc33998838
:1074080053461b88c9185944019b5b785b00cb180d
:107418005b88c918002905d0300010302200103ac6
:107428000cf082fd2b689b6898463f4b3f4a24210d
:107438002800c04700284fd0019b1b68320021005c
:1074480004000af05bf83a4bfb585b692100384aa4
:10745800b818984701239c46e144009b10330093d9
:1074680053469b784b453dd9009901913b681b6a6f
:10747800002288463800984704000cf007fb0500f6
:107488002404240c03689e682a4b2b4a2100b04729
:10749800061edfd0102241460cf046fd4b461b016c
:1074a80053449a7930231340102ba6d0202b0ad0ae
:1074b800302bb7d1019b5b785b00039a94466344f9
:1074c80059886144a6e7019b5b785b00029a944661
:1074d8006344598861449de72b68db6831002800c4
:1074e8009847b7e73b68db6a3800984700280cd014
:1074f80012480023124a010007f060fe05b03cbca8
:1075080090469946a246ab46f0bd0c4c00230d4a66
:107518002100200007f052fe00230b4a0b492000ef
:1075280007f04cfeeae7c046c748a7c0b09c0197e1
:10753800381500007cd18fd931b7ab516ebb3fc82d
:107548000025d5eae1d308265e85f50d3c736db8b4
:020000040000fa
:020000041000ea
:10755800f0b5d6464f464646c0b58eb0cc692388ae
:10756800202b06d055480eb01cbc90469946a24622
:10757800f0bda368002b00d19ce0e368002b01d18b
:107588004f48f0e70cf014fa07000cf07ffa0600f9
:1075980003689d684b4b4c4a3421a847051e00d10f
:1075a8008ae0e368a26849490020039002900191ab
:1075b8002068400d40050090280008f029fc3b6831
:1075c8009b6908aa290038009847050008990029ee
:1075d80003d03368db6830009847002d67d009aacc
:1075e800e07c07210840d3780726b3430343d370d0
:1075f80060690a90a0690b90e0690c900b40022b1f
:107608002ad00027002399460cf040fa06000cf017
:10761800cff9804633689b689a462d4b2a4a3c210d
:107628003000d047061e40d0e3690d930694627f70
:10763800059204970395002202924946019100920f
:10764800099a244907f0fef843461b681b69310074
:1076580040469847012086e7e779ff0900239946c5
:10766800002fd1d00bf0eef803685b6a984781468b
:1076780009adeb7b20229343eb730bf0e3f803682f
:107688001b6a0022290098470200103a92080ad083
:107698004b4692004a4410480168096802c3934265
:1076a800fad10025b0e70025aee70c485be780205b
:1076b800000658e70a4856e7084854e721000080c2
:1076c8001b000080a9f4805cc96dee3505b2a117d6
:1076d800a7ef242d3c736db8002a0010230000800a
:0476e8001a00008004
:020000040000fa
:020000041000ea
:1076ec00f0b583b00400504b1a68d368036a4f4955
:1076fc008b4200d178e02dd94d4a93424cd04d4a63
:10770c00934244d13123c35c002b40d0856ac069bd
:10771c001c30636a0a22290008f0bafe636ae91871
:10772c00e0691c300b2208f0b3fe434fe6267600ce
:10773c00e3699959414d3b00414a280007f03cfd53
:10774c003b00404a2900280007f036fd0023e2697f
:10775c0093511ce03c498b4219d1d368364ee62735
:10776c007f00c269d159354d384a13405a425341b2
:10777c0000933300364a280007f002fc0023e2692c
:10778c00d35133002f4a2900280007f015fd0023a0
:10779c002362002003b0f0bd3123c35c002bf6d074
:1077ac00856ac0691c30636a0822290008f070fee3
:1077bc00636ae918e0691c30092208f069fe1e4f63
:1077cc00e6267600e36999591c4d3b00214a2800b6
:1077dc0007f0f2fc3b001b4a2900280007f0ecfce8
:1077ec000023e2699351d2e73123c35c002bced046
:1077fc00c0691c30636a0622a16a08f049fe0e4f6c
:10780c000e4d3b000f4a2900280007f0d5fce62658
:10781c007600e36999593b000f4a280007f0ccfc2d
:10782c000023e2699351b2e7182a001088bf6771f0
:10783c0080074fe1faee14ed26a92614eaebf924a1
:10784c0094cdd6c0fa3108af167d6e15f03f00000e
:0c785c00881e8da166beda231ebd48cb3d
:020000040000fa
:020000041000ea
:10786800f0b5de4657464e464546e0b58fb00500b2
:10787800ad239b000a6ac169ca50c269d6580cf088
:1078880005f90400f3795b0751d50023984699461a
:1078980000270d9323689b689b460023474a48218d
:1078a8002000d847041e00d180e07279022a00d156
:1078b80078e0033a531e9a415242414b1a40414bd9
:1078c8009c466244b3799b079b0f012b6cd0023b0b
:1078d80059424b415b003c490d68086809688a4673
:1078e800b179c9090a91b1794906c90f0991089373
:1078f80053460793b3690693434605934b4604934f
:10790800039733690293019500900d9b2f4920003e
:1079180005f04afd0cf04cf803681b6921009847f4
:107928000fb03cbc90469946a246ab46f0bd0af063
:1079380089ff03685b6a98470d90b3799b079b0f93
:10794800dab2012a28d05bb2002b28d0023a53427f
:107958005a41530198460af075ff03685b6a9847d5
:1079680040440700184b1b689946b37920224244cb
:1079780093465b0602d50c2343449b460023984656
:10798800b369002b00d185e70af05cff03685b6ae6
:107998009847584480467de718239846dbe710232c
:1079a8009846d8e70a4a8de7012394e7e869002357
:1079b8000022084907f00affb2e7c046c96dee3554
:1079c80045d19fc7bb2e6038002a00106ebb3fc848
:0879d80003b880ed23000080dc
:020000040000fa
:020000041000ea
:1079e000f0b585b004000af031ff050007009c37b0
:1079f0006022ff2138000cf087fa602239004048ed
:107a00000af086ff06004342434123776022390093
:107a10003c480af07dff4342434163770023a3774c
:107a2000e377064313d0384b0022ea54237f002b20
:107a30003bd1637f002b5cd1314b1a88314b1b88c3
:107a40009a425ad2304b0122ea542e4e32e02f4c49
:107a50002f4b304a2100200007f0b4fb2e4b2f4a59
:107a60002f49200007f0aefb2e4b2f4a2f49200054
:107a700007f0a8fbff232e4aab542e4aab542e4ae4
:107a8000ab542e4d0196fd3b00932d4b2d4a290002
:107a9000200007f049f90196012300932a4b2b4a55
:107aa0002900200007f040f921e00123164aab54d9
:107ab000a377144e0bf0eeff03689c680023244a62
:107ac0003021a047041e12d000230293214b9c4674
:107ad00065440195042300933c3332000b4908f0c0
:107ae0007ff90bf069ff03681b692100984705b017
:107af000f0bd0123e377024edce7014edae7c04632
:107b00004000006040100060521500006ebb3fc88e
:107b100044765af8e1d3082626a0bd235e85f50dec
:107b20003c736db89cad4fbef43ab2411357722707
:107b3000531500005415000055150000b8573014b7
:107b4000f62b9624964e2d8b1535234a2731d817c0
:087b5000c96dee359c10000028
:020000040000fa
:020000041000ea
:107b5800f0b5d6464f4680b587b00500ad239b00eb
:107b68000a6ac169ca50c269d6580af06bfe040095
:107b7800f3795b0726d5337ddb0723d5717d474b2a
:107b8800c358db68454a80189847071e0bd00cf08d
:107b9800c9fb4001400f0dd0e8690023002240498d
:107ba80007f014fe4de0e869002300223d4907f084
:107bb8000dfe46e038000cf0b3fb07001037838950
:107bc800994606e023685b6a20009847071d0388ea
:107bd80099460af0f9fbb17903689b6a98470590c2
:107be80023685b6a200098478023db009a4682441a
:107bf800059c2200002150460cf082f94c4518d211
:107c08000bf044ff03689c68274b284a3021a047a3
