:020000040000fa
:020000041000ea
:10000000f8ff011065e400101f41011021410110ab
:1000100000000000000000000000000000000000e0
:100020000000000000000000000000001d41011061
:100030000000000000000000c1ed00101d41011093
:0c0040001d410110c10d0110e53c011034
:020000040000fa
:020000041000ea
:10004c00f8b5c046f8bc08bc9e467047c5ec00101d
:10005c00e5090110f8b5c046f8bc08bc9e467047cf
:04006c009dec0010f7
:020000040000fa
:020000041000ea
:02023a0070470b
:020000040000fa
:020000041000ea
:10023c0000000000000000000000000000000000b2
:10024c0000000000000000000000000000000000a2
:10025c000000000000000000000000000000000092
:10026c000000000000000000000000000000000082
:0417fc0000000000e9
:020000040000fa
:020000041000ea
:1018000000000000000000000000000000000000d8
:1018100000000000000000000000000000000000c8
:1018200000000000000000000000000000000000b8
:1018300000000000000000000000000000000000a8
:020000041000ea
:04228c00000000004e
:020000040000fa
:020000041000ea
:10229000000000000000000000000000000000003e
:1022a000000000000000000000000000000000002e
:1022b000000000000000000000000000000000001e
:1022c000000000000000000000000000000000000e
:1022d00000000000000000000000000000000000fe
:1022e00000000000000000000000000000000000ee
:1022f00000000000000000000000000000000000de
:1023000000000000000000000000000000000000cd
:1023100000000000000000000000000000000000bd
:1023200000000000000000000000000000000000ad
:10233000000000000000000000000000000000009d
:10234000000000000000000000000000000000008d
:10235000000000000000000000000000000000007d
:10236000000000000000000000000000000000006d
:10237000000000000000000000000000000000005d
:10238000000000000000000000000000000000004d
:10239000000000000000000000000000000000003d
:1023a000000000000000000000000000000000002d
:1023b000000000000000000000000000000000001d
:1023c000000000000000000000000000000000000d
:1023d00000000000000000000000000000000000fd
:1023e00000000000000000000000000000000000ed
:1023f00000000000000000000000000000000000dd
:1024000000000000000000000000000000000000cc
:1024100000000000000000000000000000000000bc
:1024200000000000000000000000000000000000ac
:0424300000000000a8
:020000040000fa
:020000041000ea
:102434000000000000000000000000000000000098
:102444000000000000000000000000000000000088
:102454000000000000000000000000000000000078
:102464000000000000000000000000000000000068
:102474000000000000000000000000000000000058
:102484000000000000000000000000000000000048
:102494000000000000000000000000000000000038
:1024a4000000000000000000000000000000000028
:1024b4000000000000000000000000000000000018
:1024c4000000000000000000000000000000000008
:1024d40000000000000000000000000000000000f8
:1024e40000000000000000000000000000000000e8
:1024f40000000000000000000000000000000000d8
:1025040000000000000000000000000000000000c7
:1025140000000000000000000000000000000000b7
:1025240000000000000000000000000000000000a7
:102534000000000000000000000000000000000097
:102544000000000000000000000000000000000087
:102554000000000000000000000000000000000077
:102564000000000000000000000000000000000067
:102574000000000000000000000000000000000057
:102584000000000000000000000000000000000047
:102594000000000000000000000000000000000037
:1025a4000000000000000000000000000000000027
:1025b4000000000000000000000000000000000017
:0c25c4000000000000000000000000000b
:020000040000fa
:020000041000ea
:1025d0006e2d21f0275a6f0b00000000e02500103f
:1025e000275a6f0b000000000200000000000000ee
:1025f00078b30010c1a52ded00000000010000001f
:102600000000000070b30010f6cd5bb401000000c4
:102610000000000068b300100000000061dc017bd6
:1026200000000000010000000000000060b3001086
:10263000cae9e7ec00000000000000000000000014
:1026400048b300106a22eb0f0000000000000000f9
:1026500040b3001000000000e52bb60b00000000a6
:10266000000000000000000028b300104ee79ea606
:1026700000000000000000000000000018b300107f
:102680005896063b0000000000000000000000001b
:1026900008b300101da179ee00000000000000004a
:1026a0000000000000b30010ef743e49000000007d
:0c26b0000000000000000000000000001e
:020000040000fa
:020000041000ea
:1026bc00000000000000000000000000000000000e
:1026cc0000000000000000000000000000000000fe
:1026dc0000000000000000000000000000000000ee
:020000041000ea
:04294400000000008f
:020000040000fa
:020000041000ea
:10294800000000000000000000000000000000007f
:10295800000000000000000000000000000000006f
:10296800000000000000000000000000000000005f
:10297800000000000000000000000000000000004f
:10298800000000000000000000000000000000003f
:04299800000000003b
:020000040000fa
:020000041000ea
:10299c00000000000000000000000000000000002b
:1029ac00000000000000000000000000000000001b
:1029bc00000000000000000000000000000000000b
:1029cc0000000000000000000000000000000000fb
:0c29dc00000000000000000000000000ef
:020000040000fa
:020000041000ea
:1029e800000080531cfb011000f801100000005784
:1029f800000400520000005000000054000800527b
:102a0800001c00520040005100100051008000518d
:082a18000020005100000051f4
:020000040000fa
:020000041000ea
:102a200000000000000000000000000000000000a6
:102a30000000000000000000000000000000000096
:042a40000000000092
:020000040000fa
:020000041000ea
:102a44000000000000000000000000000000000082
:082a540000000000000000007a
:020000040000fa
:020000041000ea
:0c2a5c000000000000000000000000006e
:020000040000fa
:020000041000ea
:082a6800e07f000a00000000fd
:020000040000fa
:020000041000ea
:042a70000000000062
:020000040000fa
:020000041000ea
:102a7400f0b5de4657464e464546e0b58fb00500f4
:102a84000c000ff0b1fd0700ea69e169ad239b007a
:102a9400d150c54b9c46844460460090fb589b68cb
:102aa4009847051e00d159e10023994602930193ea
:102ab4009a469b4698463b004f461e001be05b46e9
:102ac4000133dbb29b460ff08ffd03681b6a0122c2
:102ad4000aa998470004000c0c38019b9c466044ea
:102ae40083b201930137b04bf358db692900009896
:102af4009847051e3ad0280011f0ecfa8402a40f7e
:102b0400280011f0e7fa0a90280011f0e1fac368ee
:102b14000d93022cd3d014d8012ce4d143460133b5
:102b2400dbb298460ff060fd03681b6a01220aa914
:102b340098470004000c0c38484483b29946013786
:102b4400d1e753460133dbb29a460ff04dfd0368db
:102b54001b6a01220aa998470004000c0c38029b46
:102b64009c46604483b202930137bce733004e466f
:102b7400b9461f0043465b4453441b0104331f22e0
:102b8400934320330393434601335b0004939b0731
:102b940000d5efe0049b9c466644b6b2f30603d02e
:102ba4001f239e432036b6b2002306935b46002bb8
:102bb40014d001335b0006939a0701d502330693c0
:102bc400019b069a944663449bb2da0603d01f2203
:102bd400934320339bb240339bb20193002307936a
:102be4005346002b15d05c00a31c07939a0702d50b
:102bf400231d9bb20793029b079a944663449bb29e
:102c0400da0603d01f22934320339bb240339bb296
:102c140002933c009c3480225201ff21200011f0d9
:102c240041f8624abb5a01339bb2dc217b52bb524e
:102c34005f4bfb5cff2b00d1a0e03b00dc335c4a24
:102c4400ba5c9a705b4bfb5cff2b00d19ae03b00b3
:102c5400dc33584aba5cda703a00fc325649795c83
:102c64001170a0229a806a46908902002032b61818
:102c7400b6b2de805b46002b00d189e03300a0337e
:102c84003a00dc321381019b53815346002b00d15f
:102c940084e03b00dc335a89a032b6189e81029a44
:102ca400da813b00dc339988da888a185d89521905
:102cb400dd89521992b21a8280256d01aa1a5a82ac
:102cc40000221a755a759a75da759a61da6166186e
:102cd400039a94466144611808911a893032a21803
:102ce40009929b893033e318059343460b705b4686
:102cf400002b00d013705346002b02d0059b524684
:102d04001a7030804b46b370274bfb589b68009871
:102d1400984705003a00dc329188039b0498844666
:102d24006344cb18e31801931389303306998c4616
:102d34006344e31802939389079a944663443033b7
:102d4400e3180393002d00d115e100239a46049360
:102d540000243b005746b04699467ae00023994642
:102d64000293019300269a469b46984602330493a5
:102d74001e330393049b023304930be70c4baa22e8
:102d8400fa545ae7553b0b4abb540b4abb545ee713
:102d94003b00dc3300221a815a8176e73b00dc33a6
:102da40000229a81da817ce7381500005015000072
:102db400531500005415000055150000280011f0ab
:102dc4008bf94770280011f085f92601b346c344f6
:102dd4005b465860280011f07ff95b4642689a60b0
:102de400280011f079f95b468268da60280011f056
:102df40073f95b46c2681a610ff0f6fb311d41445a
:102e040003681b6a01229847060001347b00099a73
:102e14009446634402998a1a5a800137ffb2280003
:102e240011f056f9103e103001003200029b9b460f
:102e3400180010f04bffdc46b44463460293524b37
:102e44004a46d358db69290000989847051e00d1eb
:102e540091e0280011f03ef98002800f0228add0e5
:102e640043d80128ebd1280011f034f92601b346e8
:102e7400c3445b46586004995971280011f02cf939
:102e84005b4642689a60280011f026f95b46826826
:102e9400da60280011f020f95b46c2681a610ff06d
:102ea400a3fb311d414403681b6a012298470600b5
:102eb400013404994b00089a944663440198821a99
:102ec4005a804b1cdbb20493280011f001f9103e28
:102ed400010010313200019b9b46180010f0f6fef1
:102ee400dc46b44463460193a9e7280011f0f4f8e2
:102ef40053464370280011f0edf82601b346c3444d
:102f04005b465860280011f0e7f85b4642689a6017
:102f1400280011f0e1f85b468268da60280011f0bd
:102f2400dbf85b46c2681a610ff05efb311d414459
:102f340003681b6a012298470600013453465b006c
:102f4400059a9446634403998a1a5a805346013376
:102f5400dbb29a46280011f0bbf8103e1030010095
:102f64003200039b9b46180010f0b0fedc46b444cc
:102f74006346039363e705480fb03cbc904699460b
:102f8400a246ab46f0bdc046381500002b88fa7542
:020000040000fa
:020000041000ea
:102f9400eaab0010f6ab0010f6ab0010eaab001081
:102fa400f6ab0010eaab0010eaab0010f6ab001071
:102fb400eaab0010eaab0010f6ab0010eaab00106d
:102fc400eaab0010eaab0010eaab0010eaab001069
:102fd400f6ab0010f6ab001098ab0010f6ab001087
:102fe400f6ab0010f6ab0010f6ab0010f6ab001019
:102ff40098ab0010f6ab0010f6ab0010f6ab001067
:10300400f6ab0010f6ab0010f6ab0010f6ab0010f8
:1030140098ab0010f6ab0010f6ab001098ab0010a4
:1030240098ab0010f6ab001098ab001098ab0010f2
:1030340098ab001098ab001098ab001098ab001040
:1030440098ab0010f6ab001098ab00101c320010c7
:10305400200100000000202030000000903000100b
:103064008c0100000000302042000000fc330010fe
:103074009000000000004020180000003c330010c5
:10308400c0000000000010202000000001ffffff2e
:10309400ffffffffffffffffffffffffffffffff3c
:1030a400ffffffffffffffffffffffffffffffff2c
:1030b400ffffffffffffffffffffffffffffffff1c
:1030c400ffffffffffffffffffffffffffff01ff0a
:1030d400fffffffffffffffffffffffffffffffffc
:1030e400fffffffffffffffffffffffffffffffaf1
:1030f40051868783bf2f966b7fcc0148f709a5d0f3
:103104003bb5c9b8899c47aebb6fb71e91386409fb
:1031140000c6858e06b70404e9cd9e3ecb66239592
:10312400b4429c648139053fb521f828af606b4dea
:103134003dbaa14b5e77efe75928fe1dc127a2ffd8
:10314400a8de3348b3c1856a429bf97e7e31c2e56d
:10315400bd66011839296a789a3bc0045c8a5fb459
:103164002c7d1bd998f54449579b446817afbd176c
:10317400273e662c97ee72995ef42640c550b9013d
:103184003fad0761353c7086a272c24088be94761a
:103194009fd1665001ffffffffffffffffffffff0f
:1031a400ffffffffffffffffffffffffffffffff2b
:1031b400ffffffffffffffffffffffffffffffff1b
:1031c400ffffffffffffffffffffffffffffffff0b
:1031d400fffffffffffc0051953eb9618e1c9a1f53
:1031e400929a21a0b68540eea2da725b99b315f3e8
:1031f400b8b489918ef109e156193951ec7e937b6b
:103204001652c0bd3bb1bf073573df883d2c34f186
:10321400ef451fd46b503f00ffffffffffffffff91
:10322400ffffffffffffffffffffffffffffffffaa
:10323400fffffffffffffffeffffffff0000000097
:1032440000000000ffffffffffffffffffffffff86
:10325400ffffffffffffffffffffffffffffffff7a
:10326400c7634d81f4372ddf581a0db248b0a77ae1
:10327400ecec196accc52973aa87ca22be8b053720
:103284008eb1c71ef320ad746e1d3b628ba79b9855
:1032940059f741e082542a385502f25dbf55296c32
:1032a4003a545e3872760ab73617de4a96262c6f81
:1032b4005d9e98bf9292dc29f8f41dbd289a147c77
:1032c400e9da3113b5f0b8c00a60b1ce1d7e819d34
:1032d4007a431d7c90ea0e5fffffffffffffffffb5
:1032e400ffffffffffffffffffffffffffffffffea
:1032f400fffffffffffffffeffffffff00000000d7
:1033040000000000fffffffcb3312fa7e23ee7e41b
:10331400988e056be3f82d19181d9c6efe814112e1
:103324000314088f5013875ac656398d8a2ed19d9f
:103334002a85c8edd3ec2aefffffffff0000000150
:10334400000000000000000000000000ffffffff7d
:10335400ffffffffffffffffffffffff0000000075
:10336400ffffffffffffffffbce6faada7179e8438
:10337400f3b9cac2fc6325516b17d1f2e12c424761
:10338400f8bce6e563a440f277037d812deb33a01e
:10339400f4a13945d898c2964fe342e2fe1a7f9bc6
:1033a4008ee7eb4a7c0f9e162bce33576b315ecee5
:1033b400cbb6406837bf51f5ffffffff00000001a7
:1033c400000000000000000000000000fffffffffd
:1033d400fffffffffffffffc5ac635d8aa3a93e769
:1033e400b3ebbd55769886bc651d06b0cc53b0f6dc
:1033f4003bce3c3e27d2604bffffffffffffffffaa
:10340400fffffffffffffffeffffffffffffffffc9
:10341400ffffffffffffffffffffffff99def8360f
:10342400146bc9b1b4d22831188da80eb03090f6ff
:103434007cbf20eb43a18800f4ff0afd82ff101239
:1034440007192b95ffc8da78631011ed6b24cdd5dd
:1034540073f977a11e794811fffffffffffffffffc
:10346400fffffffffffffffefffffffffffffffc6c
:1034740064210519e59c80e70fa7e9ab7224304964
:08348400feb8deecc146b9b14f
:020000040000fa
:020000041000ea
:10348c00f0b5ce46474680b58fb004002b2102ab79
:10349c009c46614400230b700df07cfd051e00d191
:1034ac0090e02023e35c2b2202a98c466244117825
:1034bc008b4261d0a4225a438218107c400604d05f
:1034cc004020125c3138824306d10133dbb2994281
:1034dc0000d181e02022a35410f0a6f90700036864
:1034ec009e68bf4bbf4a2821b04700286ad02023d2
:1034fc009946e35ca4267343eb189a6801921b6807
:10350c000093b94bb94aba4909900ef01ffb10f061
:10351c001df903689b690baa099998473b68db68fe
:10352c000b99380098474b46e35c5e43ae19403626
:10353c0033781b09042b00d177e00c2b42d10ff010
:10354c004ff80200ab4bc0182023e15c84334b4393
:10355c00eb1841331978a74bd358db68984709907f
:10356c00002800d10ce110f0b1fd4001400f022801
:10357c0000d184e0a04a04e100222023e254a36a93
:10358c006362a262002b02d01b68002b1ad1ad2300
:10359c009b00e269d158002919d000250095002321
:1035ac000122964806f0dcfee269ad239b00d55063
:1035bc0010f0bcf9002805d010f0b8f903681b6aac
:1035cc008f4998470fb00cbc90469946f0bd01311d
:1035dc008a4808f011fbebe700222023e254a36a8f
:1035ec006362a262002b02d01b68002b0ed101215a
:1035fc00824808f001fb10f099f90028e2d010f095
:10360c0095f903681b6a7e499847dbe72b2602abca
:10361c009c466644310020000df0bcfc05002023c4
:10362c00e25c33789a42cdd056e73b689e68754b86
:10363c006c4a30213800b047061ec3d00ef0d0ffc4
:10364c0003685b6a9847704b1a682023e15c8433eb
:10365c004b43ed18ab6800210291c02109018c4647
:10366c006044019005210091644930000cf082fa0d
:10367c0010f06cf803681b6931009847a2e70998b1
:10368c0010f026fd037b5b0701d05b4a79e00998bb
:10369c0010f01efd027b70231a4201d0564a70e0d6
:1036ac00099810f015fdc37b9b0601d4524a68e0c3
:1036bc00099810f00dfdc37bdb0601d54e4a60e086
:1036cc00099e300010f004fd437b202b07d0300006
:1036dc0010f0fefc437b302b01d0474a51e0099897
:1036ec0010f0f6fc037b5b0700d06be7099810f039
:1036fc00effc027b70231a4200d063e73b689e68a4
:10370c00424b384a44213800b047061e00d159e7d5
:10371c00099f380010f0d8fc80460ef061ff03685a
:10372c005b6a98478146380010f0d2fcc3680d9351
:10373c00354a10682022a15c84324a43ad1800211e
:10374c0007912a0044320692aa6805920490c0227e
:10375c0012014a44039202914246103201924222d3
:10376c00aa5c5207520f0092244a294930000af0f1
:10377c0015ff0ff0ebff03681b693100984721e739
:10378c00244aad239b00e169c958002923d00025a8
:10379c0000950023194806f0e3fde269ad239b0078
:1037ac00d55010f0c3f8002805d010f0bff803680e
:1037bc001b6a13499847114c04230093164b174a64
:1037cc00174920000bf0acfa164b174a174920008a
:1037dc000bf0c2fbf6e61100084808f00dfae0e722
:1037ec0024a3727ec96dee350c694bb31b40ffde12
:1037fc0032cb175d38150000140000806ebb3fc83b
:10380c0044c30d3bb09f6bb2002a00109e7158331d
:10381c00167d6e151200008030cd7f4d2731d817e4
:10382c00b857301496c4ecc38259bf603c736db862
:020000040000fa
:020000041000ea
:10383c0010b582b00c00ca691379052b3dd010d994
:10384c000b2b00d14ce126d90d2b00d1ade1f02b87
:10385c002dd153790b2b00d9b2e19b00c549cb5824
:10386c009f46032b45d000d9ebe0002b04d15379b4
:10387c00002b1ed0c04a00e0bf4a00230093e16930
:10388c00be4806f06dfd0ff0cfffe1690368db6801
:10389c00984702b010bd062b07d15379062b00d9df
:1038ac0092e19b00b649cb589f46b34ae5e7b24a32
:1038bc00e3e70af03ff802007ae15379042b00d9d0
:1038cc007ae19b00af4ad3589f4606f0d7fa020024
:1038dc006ee105f01dfc02006ae105f0cdff02006f
:1038ec0066e106f007fc020062e108f0a9f80200ac
:1038fc005ee15379072b00d960e19b00a249cb58bc
:10390c009f46210004f012fa020051e1210006f05a
:10391c0071f902004ce11288143a53425a41524256
:10392c001e239a43994b9c466244a6e71288143a8c
:10393c0053425a4152421e239a43944b9c46624432
:10394c009be7210008f08afe020031e1210006f01d
:10395c00bdf902002ce11288143a53425a415242ea
:10396c001e239a43894b9c46624486e71288143a7c
:10397c0053425a4152421e239a43844b9c46624402
:10398c007be71288143a53425a4152421e239a43ff
:10399c007e4b9c46624470e71288143a53425a415b
:1039ac0052421e239a43794b9c46624465e7128827
:1039bc00103a53425a4152421e239a43734b9c462f
:1039cc0062445ae721000af075fc0200f0e0210085
:1039dc000bf0c6f80200ebe01288103a53425a4141
:1039ec0052421e239a43694b9c46624445e7210090
:1039fc000af0f6f80200dbe01288143a53425a41fe
:103a0c0052421e239a43614b9c46624435e712880e
:103a1c00143a53425a4152421e239a435b4b9c46e2
:103a2c0062442ae7210009f053ff0200c0e02100a4
:103a3c000bf0bcf80200bbe0210009f0adff020066
:103a4c00b6e05379062b00d9bce09b005049cb580b
:103a5c009f46210003f0eafa0200a9e01288203afe
:103a6c0053425a4152421e239a43484b9c4662444d
:103a7c0003e712881c3a53425a4152421e239a437e
:103a8c00424b9c466244f8e61288203a53425a4113
:103a9c0052421e239a433d4b9c466244ede61288eb
:103aac00143a53425a4152421e239a43374b9c4676
:103abc006244e2e61288143a53425a4152421e239f
:103acc009a43324b9c466244d7e61288203a5342c2
:103adc005a4152421e239a432c4b9c466244cce6dc
:103aec005379012b0bd0002b05d0022b0bd0032bc1
:103afc0014d0214ac1e605f08ffa020058e005f017
:103b0c0081fb020054e01288183a53425a41524247
:103b1c001e239a431d4b9c466244aee61288183a0b
:103b2c0053425a4152421e239a43184b9c466244bc
:103b3c00a3e6210005f076f9020039e0210005f03a
:103b4c00f1f8020034e01288183a53425a415242ba
:103b5c001e239a430d4b9c4662448ee61288203af3
:103b6c0053425a4152421e239a43084b9c4662448c
:103b7c0083e6c04668a60010020000803c736db856
:103b8c0098a60010b4a60010c8a600102100008052
:103b9c00e8a600101288203a53425a4152421e2382
:103bac009a430a4b9c46624467e603f09bf802007a
:103bbc00012a00d16de660e6054a5ee6044a5ce641
:103bcc00034a5ae6024a58e6014a56e621000080aa
:043bdc000200008063
:020000040000fa
:020000041000ea
:103be00000000000000000004d9a00108f3201100c
:103bf000bded001031db0010110a01103d0a01106b
:103c00005c52aa4c583efa5a14000000103c0010b6
:103c1000583efa5a0100000001000000403f001029
:103c2000483f0010db14592300000000030000008f
:103c300000000000283f0010db75aad8000000003b
:103c40000600000000000000f83e0010861d575dd1
:103c5000000000000200000000000000c83e00104c
:103c6000423357fb00000000040000000000000089
:103c7000a83e0010b50d7aed000000000200000023
:103c800000000000783e0010c9ba01ff00000000eb
:103c90000200000000000000683e00109c19d07a6d
:103ca000000000000600000000000000383e001088
:103cb000c0362d8b00000000050000000000000051
:103cc000103e001011b819fe0000000003000000b3
:103cd00000000000f83d001096122ad900000000f4
:103ce0000200000000000000e83d0010bb7c4a8399
:103cf000000000000200000000000000d83d00109d
:103d0000d017edff000000000200000000000000de
:103d1000c83d0010ebeb9ef3000000000200000025
:103d200000000000b83d0010ae6e5f930000000080
:103d30000200000000000000a83d0010f27d06b166
:103d4000000000000100000000000000a03d001085
:103d50003c40497300000000020000000000000029
:103d6000e83e0010a4b2ebe60000000002000000f4
:103d700000000000d83e00105586c05f0000000023
:103d80000200000000000000983e0010792765ee58
:103d9000000000000200000000000000883e00104b
:103da0004c357eb5583efa5a181722dc9c19d07a49
:103db0004c357eb5583efa5a6f81b237ae6e5f937e
:103dc0004c357eb5583efa5a6f81b237ebeb9ef315
:103dd0004c357eb5583efa5a98e0bb5bd017edffe4
:103de0004c357eb5583efa5ac58fe8d2bb7c4a8323
:103df0004c357eb5583efa5ac58fe8d296122ad96c
:103e000098e0bb5bd017edff4c357eb5583efa5ab3
:103e1000fa52426811b819fec58fe8d296122ad913
:103e200098e0bb5bd017edff98e0bb5bebeb9ef33c
:103e30004c357eb5583efa5a5582c29ac0362d8b03
:103e4000fa52426811b819fec58fe8d296122ad9e3
:103e500098e0bb5bd017edff98e0bb5bebeb9ef30c
:103e60004c357eb5583efa5a39da30999c19d07ad9
:103e70004c357eb5583efa5aeafe39d5c9ba01ff2b
:103e80004c357eb5583efa5afa524268b50d7aed75
:103e90004c357eb5583efa5afa524268792765ee9b
:103ea0004c357eb5583efa5a48daf2df5586c05f87
:103eb00074ced0aa792765ee39da30999c19d07a78
:103ec0004c357eb5583efa5aeafe39d5423357fb97
:103ed0004c357eb5583efa5ac58fe8d2861d575ddf
:103ee0004c357eb5583efa5ac58fe8d2a4b2ebe6ff
:103ef0004c357eb5583efa5af59f3ba13c4049737c
:103f0000211f9479a4b2ebe648daf2df5586c05f50
:103f1000fa524268792765ee39da30999c19d07add
:103f20004c357eb5583efa5aeafe39d5db75aad82b
:103f300039da30999c19d07a4c357eb5583efa5a08
:103f4000f73897cbf27d06b12b88fa75db1459232d
:020000040000fa
:020000041000ea
:103f500030b5cb785b075b0fd8b2052800d971e18b
:103f60009b00b948c3589f4688891030830700d109
:103f700067e103239843043063e10b7b5b075b0f2e
:103f8000dcb2012c78d05bb2002b15d01020032cb2
:103f900000d956e10b7b9b069b0fd8b2012876d047
:103fa0005bb2002b00d15be10238434258414042f2
:103fb00018231840103044e10b7b9b069b0fd8b2ae
:103fc000012811d05bb2002b10d00238444244418a
:103fd00064014b7b1b071b0fd8b2082800d93be1bb
:103fe0009b009a48c3589f461824f2e71024f0e734
:103ff0002000103025e1200010304d7b0f232b4096
:10400000052b0bd08b7b5b071fd5002a08d1103006
:104010008b7b9b0700d414e1103012e10019f1e70b
:104020004b7bdb0603d54b7b5b0600d510308b7bcf
:104030009b0700d405e14b7b9b0600d401e14b7b41
:10404000db0900d1fde01030fbe08b7b9b0700d447
:10405000f7e0002ae0d0eee710348b7b70221a42a2
:1040600004d05b065b0f01335b00e418c87b40079c
:10407000400f07300019e4e0087b000900d1ede0b3
:10408000022383428041313398434430d9e04b7b53
:104090005b0700d4e6e0002a00d1e5e04b7bdb07bc
:1040a00000d4e3e0487b8007c00f434258414042c0
:1040b000072398433030c4e00b7b5b075b0fdab219
:1040c000012a65d05bb2002b1cd0022a00d18ae005
:1040d0001020032a00d0b4e0887b0007800e041d66
:1040e0004b7b5b06db0ddbb2043314305a008018c7
:1040f000ca7b520600d50019ca7b920600d4a0e004
:10410000c0189ee04a7b0b7b5b065b0fd8b204288d
:1041100000d9ade09b004e48c3589f46cb7b102092
:10412000db0603d55000801840001030cb7b5b06c7
:1041300000d58018cb7b9b0600d482e0520080180b
:104140007fe0900080181030cb7b5b0600d5801894
:10415000cb7b9b0675d55200801872e0cb7b10207c
:104160005b0601d510001030cb7b9b0669d5520051
:10417000801866e0c87b4006c00f43425841404269
:104180001f2398433030cb7b9b065ad5203058e014
:104190000a7b9206920fd3b2012b1ad052b2002a98
:1041a0001ad0023b5a4253415b0218001030ca7bbe
:1041b000920605d5ca7bc018d20601d51800143066
:1041c000ca7b52063dd5ca7b7f2a07d85b00c01840
:1041d00037e080235b00e8e78023e6e75a005b08ce
:1041e000d318c0182de04b7b5b06db0d0433dbb22c
:1041f000ca7bd2060ad518001430ca7b920600d5b5
:10420000c018ca7b52061cd5c0181ae058001030de
:10421000f3e70b7bdb06db0edab2102a2ad89b0011
:104220000c4ad3589f4620200be0242009e02c2084
:1042300007e0302005e0402003e0502001e08889bd
:10424000103030bd1020fce7d0a10010e8a1001014
:104250000ca2001020a200101020f2e74020f0e78e
:104260002820eee72820ece73020eae72820e8e7de
:084270001020e6e71020e4e74e
:020000040000fa
:020000041000ea
:1042780070b505000c000b689b6808009847984bc0
:10428800984200d1e6e045d8964b984200d104e127
:1042980012d9954b984200d18ae02ed8934b984278
:1042a80000d18be0924b984200d198e0914b984214
:1042b80000d1dbe0002054e08f4b984200d1f2e0bf
:1042c8000dd98e4b984200d1a8e08d4b984200d171
:1042d80068e08c4b984200d19ae0002041e08a4b7c
:1042e800984200d1bce0894b984200d1e5e0884b68
:1042f800984200d1c5e0002033e0864b984200d1b7
:10430800a8e0854b98425fd0844b984200d18ae060
:10431800002026e0824b984200d16ce027d8814be0
:10432800984262d00bd9804b984200d1afe07f4bc6
:10433800984217d1280008f0d1fb002011e07c4bef
:10434800984200d175e07b4b984205d121002800a6
:104358000bf07afa002004e0774b984200d16ee027
:10436800002070bd754b98426fd00020f9e7744b60
:1043780098422fd00bd8734b984242d0724b984238
:1043880000d195e0714b984276d00020e9e7704b58
:10439800984265d06f4b984257d06f4b98424ed099
:1043a8000020dee72100280004f0fef80020d8e70e
:1043b8002100280005f0d4fa0020d2e721002800c7
:1043c80007f09cfe0020cce72100280008f0dcfd67
:1043d8000020c6e721002800fef748fbc1e72100be
:1043e800280009f011fa0020bbe72100280008f096
:1043f80069fc0020b5e72100280008f09ffc002098
:10440800afe7ea69216aad239b00d1500020a8e7f5
:10441800210028000ff086fc0020a2e7280008f001
:1044280097f800209de72100280000f0fbff0020fe
:1044380097e72100280002f091f9002091e7210078
:10444800280002f085fa00208be728000cf072fba8
:10445800002086e72100280003f02ef8002080e7de
:104468002100280009f07cff00207ae721002800bd
:1044780000f04afc002074e7280008f09bfc0020ac
:104488006fe72100280003f037fe002069e72100cc
:10449800280003f0cdfe002063e72100280003f088
:1044a80083f900205de7280006f038f9002058e776
:1044b800280008f017f9002053e7ad239b00ea69ac
:1044c800d3581a790020052a00d04ae75b79042bd3
:1044d80000d046e7280006f053ff002041e7c04619
:1044e800615c5d7302e13435053937569364785061
:1044f80049fc4351e9ba983cce311d0e66beda2319
:1045080055aff1282fe7eb1a6a59070889817b0d07
:10451800c6358b01a5057066de12676961141459ea
:104528002315d4ca110650b941596bbe94cdd6c0d3
:10453800e13edda0881e8da1c62e81926a46f7bb9a
:10454800a09a52e7f73897cbe2a9e9d81ebd48cb25
:0c455800820f7ae9a27a9cf11eab00e908
:020000040000fa
:020000041000ea
:10456400f0b593b0040090490df0c4fe8f490b00e0
:1045740008332360250020352031280009f070fc21
:1045840058239c46a44463462100009360460cf0e3
:10459400f1fc2700803738000df08cff26009c3694
:1045a400210030000df096fbbc218c46a4446146ea
:1045b400019160460df0d2ffd8208446a4446046a1
:1045c40002900df0d9fff4239c46a4446346039360
:1045d40060460df0a7ff882149008c46a44461463b
:1045e400049160460df090ff962040008446a44458
:1045f4006046210005900df08dfca6235b009c46cf
:10460400a4446346069360460df0d6feb4214900e7
:104614008c46a4446146079160460df03dffc220dc
:1046240040008446a444604608900df05fffd02308
:104634005b009c46a44463462100099360460df048
:1046440099fbe02149008c46a44461460a916046e6
:104654000df014ffee2040008446a444604621007f
:104664000b900df0a7fcfe235b009c46a44463461c
:1046740021000c9360460cf037fe882189008c469b
:10468400a444604621000d900cf060fc9121890047
:104694008c46a44461460e9160460df019ff9820a3
:1046a40080008446a44460460f900df0a1fe9f2331
:1046b4009b009c46a4446346109360460df0a2ff01
:1046c400a62189008c46a4446146119160460df0f0
:1046d400d1ffad239b000022e250009a3449280008
:1046e4000cf0ebf93a00334928000cf0e6f93200fb
:1046f400314928000cf0e1f9019a304928000cf006
:10470400dcf9029a2e4928000cf0d7f9039a2d49b6
:1047140028000cf0d2f9049a2b4928000cf0cdf9aa
:10472400059a2a4928000cf0c8f9069a2849280055
:104734000cf0c3f9089a274928000cf0bef9079a2f
:10474400254928000cf0b9f9099a244928000cf0ed
:10475400b4f90a9a224928000cf0aff90b9a2149be
:1047640028000cf0aaf90c9a1f4928000cf0a5f9ae
:104774000d9a1e4928000cf0a0f90e9a1c49280035
:104784000cf09bf90f9a1b4928000cf096f9109a2b
:10479400194928000cf091f9119a184928000cf0d5
:1047a4008cf9200013b0f0bd85c5ce4be03b001062
:1047b400583efa5adb145923db75aad8861d575d77
:1047c400423357fbb50d7aedc9ba01ff9c19d07a73
:1047d400c0362d8b96122ad911b819fed017edffc9
:1047e400bb7c4a83ebeb9ef3ae6e5f93f27d06b126
:1047f4003c404973a4b2ebe65586c05f792765ee69
:020000040000fa
:020000041000ea
:10480400f0b5de4657464e464546e0b597b005003e
:104814000c002030902200210ff044fa2800b03020
:10482400602200210ff03efa8a235b000022ea5046
:10483400e36b139323689b6820009847944b98423a
:1048440000d184e02a001532ff32537840210b4313
:1048540053704523e35c002b05d18a225200ab5ce4
:1048640010210b43ab544623e35c002b00d0e7e05c
:104874008a225200ab5c20210b43ab544423e35cfb
:10488400012b00d176e0002b00d170e0022b00d187
:1048940079e0002314934623e35c002b00d0d9e095
:1048a400226be169e66a4523e35c584243415b427b
:1048b400142003400c33206a8346606a8246a06a4f
:1048c4008146606b8046a06b8446002a00d1a2e03a
:1048d4000020129020301590129f381e00d09de0c9
:1048e400109012980f9015980e900d9210220c9221
:1048f400139a0b9200220a9260460990404608904f
:1049040007920692484605905046049058460390f4
:104914000293019600920023149a280002f012fddb
:10492400ee6923689b68200098475d36ff36306245
:104934006269e6235b00e969ca5028000bf092f82b
:1049440017b03cbc90469946a246ab46f0bd8a22bd
:104954005200ab5c01210b43ab54f0235b00ea69ca
:10496400e16bd150eb69d133ff3313936ae7102322
:10497400149390e78a225200ab5c08210b43ab549a
:104984001823149387e78a225200ab5c04210b435b
:10499400ab54202314937ee74146c91a35008d4059
:1049a4005146d940294317e04146891a3d008d40bc
:1049b4002900159dd5402a000a432272083bdbb228
:1049c4000130f82b10d01a00040020214942591854
:1049d400e2d43500cd4029002170202149425118ec
:1049e400e2d43a00ca40e8e765464c46e169e66a23
:1049f400b33be35c002b13d1236a9b46636a9a465c
:104a0400a36a9946636b9846a36b9c4620230022b5
:104a14000020159060e7129215925de710205fe781
:104a2400236a9b46636a9a46a36a9946636b9846cf
:104a3400a36b9c460c2300220020159010304fe7f6
:104a44004423e35c012b95d0002b90d0022b9ad009
:104a5400002314930df0c8fd03689b6a9847060071
:104a6400102200210ff01ef9a36b5a0f9446db00ad
:104a74009a46a36a5f0fdb009946129630003823ea
:104a8400202290466646ac464a461592a1469ae7cd
:044a9400bb2e60389d
:020000040000fa
:020000041000ea
:104a9800f0b583b00500844b1b689a6adb6b834bc7
:104aa8001b689a6ada6b824a12689168926a5b6b31
:104ab800c669e4235b00f458002c2ad00ef0b6fe39
:104ac8000600a379062b22d89b007a4ad3589f4622
:104ad800102300e0142300930123012221007648cb
:104ae80005f040fc3368db68210030009847ea692c
:104af800e4235b000021d150704803b0f0bd1823b7
:104b0800e9e72023e7e73023e5e74023e3e700234d
:104b1800e1e733005d33ff331b6a694a93426fd084
:104b28001bd9684a934200d1bce032d9664a934205
:104b380054d0664a93421bd1e62464003159644b31
:104b4800644a5d480af00afa0022eb691a51eb69d7
:104b58005d33ff331a625948cfe75f4a93422cd03e
:104b68005e4a934200d18ae05d4a934200d197e0c1
:104b7800e62464003159564b5a4a4f480af0eef978
:104b88000022eb691a51eb695d33ff331a624b4817
:104b9800b3e7554a9342ebd1e624640031594c4bb4
:104ba800524a45480af0daf90022eb691a51eb69d2
:104bb8005d33ff331a6241489fe7e62464003159a8
:104bc800434b4b4a3c480af0c9f90022eb691a5199
:104bd800eb695d33ff331a6238488ee7e6277f00ba
:104be800f159002400943a4b424a33480af09af8a3
:104bf800eb69dc51eb695d33ff331c622f487ce7be
:104c0800f0235b00f1583c4b1b688b421ad03000f4
:104c1800d130ff3010220df047fd43425841c0b259
:104c2800e624640031590090294b344a22480af09e
:104c380079f80022eb691a51eb695d33ff331a6288
:104c48001e485ae72c4b1b681a68e8235b00f35888
:104c58009a4210d13300d533ff333000e130ff30b2
:104c680025490a6812681c68944206d104338342b5
:104c7800f7d10120d4e70020d2e70020d0e7e624ce
:104c880064003159124b1e4a0b480af067f900229a
:104c9800eb691a51eb695d33ff331a6207482ce759
:104ca80018482ae7174828e71c2a0010042a001089
:104cb800082a0010e8f60010eaebf924fa3108afe8
:104cc800bb2e6038faee14ed03b880ed035744f7b5
:104cd80026a926146a46f7bb9bdf001acf2f112599
:104ce800167d6e1589817b0d5b96c897e2a9e9d878
:104cf800a27a9cf16a590708002a0010820f7ae903
:084d0800ce311d0ea40691de60
:020000040000fa
:020000041000ea
:104d1000f0b5de4657464e464546e0b585b005003f
:104d20000c000df063fc0600ad239b00ea69e16a0c
:104d3000d1503123e15c002912d1676a3023e15c54
:104d4000002921d0814bf358db68804ab01898477e
:104d5000002836d00ff0bef90c239946814415e0a7
:104d60007a4bc358db68794a80189847002804d0ea
:104d70000ff0b0f90c300700e0e7e86900230022eb
:104d800073490af0f7fb15e0236a99463223e15c88
:104d9000002900d178e06d4b9a46b244f358db68a5
:104da00050469847002813d0e8690023002269493b
:104db0000af0e0fb05b03cbc90469946a246ab46e3
:104dc000f0bde8690023002261490af0d3fbf1e756
:104dd0000ef030fd834603689b6898465e4b5f4a41
:104de0002421c047031e03903bd0797829621031fb
:104df0005b461b689b689846594b5a4a5846c047c1
:104e00008046002833d0ad239b00ea69d3589b46e7
:104e10002a6a00210ef048ff0023424613605360c7
:104e20009360d3605b469b7c93703223e35c13708a
:104e300001235b4293602b6a9381296a10311368c6
:104e4000039c20000cf02efa404bf3585b692100c4
:104e50005046984710239c46e0440ef0ebfc0600b9
:104e600020e0e869002240490af084fba2e75b46a3
:104e70001b68db68039958469847e86900230022bd
:104e800039490af077fb95e70df0b0fb03685b6ae0
:104e900098478023db00984680440ef0cbfc060048
:104ea000002f1ed04b46002b2dd033689c6800236a
:104eb0002e4a28213000a047041e35d00ef04cfcad
:104ec00006007b782b62434600933b004a46284904
:104ed00020000bf0d7fc33681b6921003000984795
:104ee00068e7002300222349e8690af043fbad2468
:104ef000a400eb6919593368db6830009847eb6907
:104f000000221a5156e700221b49e8690af032fbd9
:104f1000ad24a400eb6919593368db683000984769
:104f2000eb6900221a5145e7002300220e49e86987
:104f30000af020fbad24a400eb6919593368db6843
:104f400030009847eb6900221a5133e7381500000a
:104f50001200008011000080c748a7c0b09c0197d4
:104f60007cd18fd931b7ab5123000080c96dee35ac
:0c4f70006ebb3fc80400008030000080d1
:020000040000fa
:020000041000ea
:104f7c00000c0110ec0b0110f00b0110f40b0110e4
:104f8c00f40b0110f80b0110f80b0110fc0b0110c5
:104f9c00fc0b0110fc0b0110fc0b0110000c0110a0
:104fac00f00b0110f40b0110f40b0110f80b0110b5
:104fbc00f80b0110fc0b0110fc0b0110fc0b011089
:104fcc00fc0b0110a0070110880701108c070110c1
:104fdc009007011094070110980701109c0701100d
:104fec009007011094070110980701109c070110fd
:104ffc00a00701108c0701109007011094070110f5
:10500c00980701109c0701109007011094070110dc
:10501c00980701109c070110cc070110b407011070
:10502c00b4070110b4070110b4070110b807011040
:10503c00b8070110bc070110c0070110c40701100c
:10504c00c8070110cc070110b4070110b4070110f8
:10505c00b4070110b8070110b8070110bc07011004
:10506c00c0070110c4070110c807011062f100103d
:10507c0040f1001046f100104af1001050f1001000
:10508c0056f100105cf1001062f1001062f100109a
:10509c0062f1001062f1001062f1001046f1001094
:1050ac004af1001050f1001056f100106745230131
:1050bc00efcdab8998badcfe10325476c3d2e1f056
:1050cc00c1059ed8367cd5073070dd17f70e5939df
:1050dc00ffc00b316858151164f98fa7befa4fa4a5
:1050ec006a09e667bb67ae853c6ef372a54ff53a6d
:1050fc00510e527f9b05688c1f83d9ab5be0cd1999
:10510c00cbbb9d5dc1059ed8629a292a367cd507fa
:10511c009159015a3070dd17152fecd8f70e59390b
:10512c0067332667ffc00b318eb44a876858151158
:10513c00db0c2e0d64f98fa747b5481dbefa4fa4a2
:10514c006a09e667f3bcc908bb67ae8584caa73b8e
:10515c003c6ef372fe94f82ba54ff53a5f1d36f1b9
:10516c00510e527fade682d19b05688c2b3e6c1f95
:10517c001f83d9abfb41bd6b5be0cd19137e21794d
:10518c0067452301efcdab8998badcfe103254761b
:10519c000000000000000000090c0110c9310110d2
:1051ac00a93f0110af3f0110b53f0110610e011076
:1051bc00cffc001049e60010e10b01107d07011037
:0851cc00a907011035f10010e4
:020000040000fa
:020000041000ea
:1051d400f0b5de4657464e464546e0b587b0070073
:1051e4008b464b6bdb080493dbb29946022b12d837
:1051f400c269e6235b00d15800230093834b844aa1
:10520400844809f091fd002007b03cbc90469946c3
:10521400a246ab46f0bd04002034902200212000b9
:105224000ef040fdb0239846b84460220021404669
:105234000ef038fd8a2252000023bb500123bb54d8
:105244003a001532ff32537039235a46d35c012b8e
:1052540067d0002b77d0022b6cd0002302935b46df
:105264001e6a4b465d004d446d00063debb2039350
:105274000121380006f0e4fd0125112292463a008e
:105284001532ff325146009104230021380009f001
:1052940011f980231b01524613430093029b5a4683
:1052a400926a0121380009f005f9009508233200bb
:1052b4000621380009f0fef808229446b4446246f8
:1052c40005920095082365460721380009f0f2f895
:1052d400082332000121380009f0f0fa08232a00db
:1052e4000221380009f0eafa380006f0eff84a4bd8
:1052f4001a6814601c6842462261032363633c33ca
:10530400236303229246039b002b3dd01d00ff2301
:10531400049a1340013b02934b46013bdbb20393d7
:105324001de08a225200bb5c08210b43bb541823a6
:10533400029394e78a225200bb5c04210b43bb54c2
:10534400202302938be71023029388e7e36bda07a9
:10535400fcd49b07fad4013debb2002b14d0029984
:10536400280006f0dbffc9b2f3796b40f371002922
:1053740000d10399c90071189023f9504033f950b2
:105384005346a363e36be2e732687168234b1c0066
:10539400544018004840044360424441e4b29a42f5
:1053a40008d05b4659690094184b194a194809f00a
:1053b400bbfc28e79942f4d15b46586a184b1b683a
:1053c40083420ed05b461b6a8342ead0ff22049bd1
:1053d4001a40144b9c466244d20005990ef076fca8
:1053e400dfe7ff21049b194049000229d9d9022390
:1053f40002220b4d059e28689200925902600133e7
:10540400dbb21a008b42f6d3cbe7c046c2b7e9cc75
:105414009c685774eaebf9241c2a0010a6a6a6a6d9
:08542400002a0010ffffff1f2a
:020000040000fa
:020000041000ea
:10542c00f0b5de4657464e464546e0b58db0060013
:10543c00ad239b000a6ac169ca50c269d358994608
:10544c000df0cef804004b46db795b0745d54b4697
:10545c00597c002941d07d4bc358db687b4a8018ae
:10546c009847051e0cd00ef031fe4001400f02286b
:10547c000dd0f0690023002275490af075f8b5e0eb
:10548c00f0690023002273490af06ef8aee02800a0
:10549c000ef01efe037b5b0706d0f0690023002292
:1054ac006b490af061f8a1e028000ef011fe037bb5
:1054bc0070221a4206d0f0690023002264490af0d7
:1054cc0053f893e028000ef0fffdc3680a93280000
:1054dc000ef0fafd1030050007e023685b6a20002f
:1054ec009847c3680a93103005000ef09df9070029
:1054fc000aab1b785b0700d08be00aab1b785b0612
:10550c005b0f00d079e00aabdb78db0607d50aab82
:10551c0058784300c0184000c0b2099502e0002042
:10552c00002309930aabdb789b0601d50230c0b28d
:10553c002d183b689b689846474b484a44213800d5
:10554c00c0470890002800d179e04b46db79002653
:10555c005b0615d50aab5b789f089b0765d00137b6
:10556c0023685b6a2000984780231b01c618002320
:10557c003b48026811689a00b1500133bb42f8d322
:10558c004b469b795b075b0f9846354b1b689a46dd
:10559c004b465b699b4623685b6a200098478146b3
:1055ac0023685b6a200098470a9b0b93079680231d
:1055bc001b014b4406935b4605935346049380238f
:1055cc00db009c4660440390099b02930195434683
:1055dc0000930a9b234a2449089c200008f0deff14
:1055ec000ef0b4f803681b69210098470db03cbc61
:1055fc0090469946a246ab46f0bdf06900230022c6
:10560c00134909f0b1ff3b68db68494638009847fd
:10561c00ece7f069002300220d4909f0a5ff3b6877
:10562c00db68494638009847e0e723685b6a20004e
:10563c00984780231b01c618002f98d1a0e7f0696a
:10564c0000230022094909f08fffcfe7381500002d
:10565c00140000801200008071c26e78c96dee35a6
:10566c00002a00106ebb3fc8faee14ed2300008038
:020000040000fa
:020000041000ea
:10567c00f0b583b00ef0d8f804000ef067f8050012
:10568c00814b1b681e680196730700d471e0002cd7
:10569c0000d16ee0002800d16be023689f687b4b43
:1056ac007b4a20212000b847071e08d002227949e6
:1056bc000cf0bafd2b685b6939002800984701abe8
:1056cc005b785b065dd401ab5b78db0900d1a0e0b5
:1056dc0023689f68704b6e4a20212000b847071e34
:1056ec0008d009226d490cf09ffd2b685b693900cd
:1056fc002800984701ab9b78db0700d591e001ab04
:10570c009b789b075ed401ab9b785b0700d4afe022
:10571c00002c29d0002d27d023689f68604b5c4a51
:10572c0020212000b847071e08d00c225d490cf040
:10573c007bfd2b685b6939002800984701ab9b788f
:10574c001b0711d523689f68574b514a2021200015
:10575c00b847041e08d00d2252490cf065fd2b6889
:10576c005b69210028009847474b1b689e6103b07a
:10577c00f0bd01ab5b785b0642d5002c40d0002d10
:10578c003ed023689f68494b414a20212000b847ee
:10579c00071e08d0082241490cf046fd2b685b69b6
:1057ac0039002800984701ab5b78db0900d08fe704
:1057bc0001ab9b78db0732d401ab9b789b07a2d55e
:1057cc00002c50d0002d48d023689f68384b304aad
:1057dc0020212000b847071e08d00b2231490cf0bd
:1057ec0023fd2b685b6939002800984701ab9b7837
:1057fc005b0700d590e701ab9b781b0740d4b3e760
:10580c0001ab5b78db0904d0002c02d0002d00d05a
:10581c005ee701ab9b78db07ced5002c23d0002da7
:10582c001bd023689f68234b194a20212000b847be
:10583c00071e08d00a221b490cf0f6fc2b685b698a
:10584c0039002800984701ab9b789b07bcd401ab6f
:10585c009b785b0700d55de70ae001ab9b785b07a3
:10586c0000d581e704e001ab9b785b0700d57be7b3
:10587c0001ab9b781b0700d476e7002c00d173e7b3
:10588c00002d00d05ee76fe7f8290010ebafe5cafa
:10589c00c96dee3532cb175d485c75011143369fef
:1058ac00c33cbc22eaebf92432bee2caded1844509
:0858bc0042d188387164d568ff
:020000040000fa
:020000041000ea
:1058c400f0b5d6464f464646c0b582b006000c0039
:1058d4008f6b002f00d183e04b7f9946b94400259c
:1058e40023689b6820009847794b984271d0002325
:1058f400984631227f239d431543637f013bdbb2ee
:105904001b02744a15401d4380235b051d43db00c5
:105914001d434346002b5cd0636a9a4643469a7af9
:10592400120912056c4b1d4015432900300005f087
:105934001bf943465b68627f0121019100913900a4
:10594400300007f075fa23689b6820009847604b85
:10595400984200d180e0627f0092534608213000d3
:1059640009f098fa627f53469b180092092130008f
:1059740009f090fa636b594a12689a420dd0627f1b
:1059840000920a21300009f085fa627f636b9b184c
:1059940000920b21300009f07dfaf56923689b68b9
:1059a400200098475d35ff352862f3695d33ff3386
:1059b400627f5a62f3695d33ff33626b9a62f36903
:1059c4008e33ff3301221a70f369a26a5d33ff3309
:1059d400da62002002b01cbc90469946a246f0bd93
:1059e4004b7f202b63d017d9302b69d0b946422b7b
:1059f40000d074e73a4b102290469844394b9946ac
:105a04001f00423f002523689b6820009847304bc5
:105a1400984240d031226de7b946182b00d05ee79a
:105a240000250b689b6808009847294b984209d0c9
:105a34002b4b2022904698442b4b99461f00183f2d
:105a4400113257e7264b202290469844264b99461c
:105a54001f00183f10324de7627f00925346062123
:105a6400300009f017fae36b002b06d0627f009236
:105a74000721300009f00efa8fe7637f4a46616b15
:105a8400300005f081fa627f0092636b07213000d9
:105a940009f000fa81e7657f013dedb22d02302364
:105aa4001d4380235b051d43db001d4334e70c4b82
:105ab4003022904698440d4b99461f00203fa1e7a1
:105ac400074b98460a4b99461f00303f9ae7c04659
:105ad400faee14edff00ffffffff0fff002a001096
:105ae40050300010d2300010143400105c33001019
:045af4004c32001020
:020000040000fa
:020000041000ea
:105af800f0b5de4657464e464546e0b589b0060045
:105b08008846096a0a6807921004000ec5b2d200d6
:105b1800d20f00d0b0e0202d00d1dfe009d9302d20
:105b280000d1e0e0422d20d1714f1037714b9a46d9
:105b38001ee0182d15d122246b1edbb21b021c435c
:105b480080235b051c43db001c43694b9b6a1c4399
:105b5800002a00d0a6e0664f2037674b9a460123fb
:105b680013e0002700239a4602e0002700239a4604
:105b780022246b1edbb21b021c4380235b051c43e3
:105b8800db001c43bb681c43012304aad27b92069a
:105b980002d540001b18dbb29b00ca18039241468d
:105ba800c96989469944bb7a1b091b05534a1440a5
:105bb8001c432100300004f0d5ffe400e40fe1b2fb
:105bc8008b467b680122019200912a0051463000e1
:105bd80007f02cf95946002969d00095039b2a0043
:105be8000e21300009f054f900954b462a000c218b
:105bf800300009f04df94b465b1900952a000d213c
:105c0800300009f045f93e4f3b683e4a1a603e486d
:105c18003e4b3f4a010009f0a1f93b6803229a6014
:105c28000ef0fef80368db680c219847e6235b005a
:105c3800f26941464969d150f3695d33ff33354a0a
:105c48001a62f3695d33ff335d62f3695d33ff33d5
:105c58004246526a9a62f3698e33ff331c70f269c6
:105c68000021e4235b00d150002009b03cbc9046e1
:105c78009946a246ab46f0bd0b1d9a4622246b1ee0
:105c8800dbb21b021c4380235b051c43db001c4367
:105c980000239b681c43002742001218520001325f
:105ca800d3b272e7124f2037134b9a46f4e70095a8
:105cb800039b2a000e2130000bf0bafb00954b46df
:105cc8002a000c2130000bf0b3fb4b465b19009502
:105cd8002a000d2130000bf0abfb94e7044f30375e
:105ce8000d4b9a4644e7024f0c4b9a4640e7c04694
:105cf8005030001090300010fc330010ffff0ffff1
:105d0800182a00100c0e0600eaebf924cf08000848
:105d1800a40691de88bf67713c3300101c32001066
:020000040000fa
:020000041000ea
:105d2800f0b585b006000cf05dfc04006f4bc55c57
:105d3800012d00d1c8e06e4bc718202239006d48ec
:105d48000cf0b2fc00282ed0002d00d0c6e00123b4
:105d5800b377664aa354684cb37f002b03d0f37f14
:105d68000020002b1dd10df061fd03689d68002304
:105d7800624a3021a84705000020002d11d00023d9
:105d880002930197043300933c3322005c492800b6
:105d980009f0f2fe0df0dcfc03681b692900984746
:105da800002005b0f0bd2300dc332903554a944692
:105db8006144fc2212011d0018000df085ff00232c
:105dc800514a52494e4809f0c9f8aa78504be25452
:105dd800ea78504be2542300fc331a784e4be254d5
:105de8004e4b4f4a4f49504809f0b8f8dc23e25a65
:105df8004e4be252ab78aa2b2bd0ff2b2bd0013b7a
:105e08005a4253419b000022019200930023484ac2
:105e180045493b4808f05afe2300dc33da78022370
:105e2800aa2a1ad00022019200930023414a3e492f
:105e3800334808f04bfe404b1b68002b19d022005a
:105e4800dc32d288002a14d01b68002b11d03b48c2
:105e5800a7e70323d7e70223d5e72300fc331b7802
:105e6800aa2b04d0ff3b5a1e93410133dae70123e2
:105e7800d8e72c4e224f0023314a3100380009f070
:105e88006df8294d00230193013300930023294a1b
:105e98002900380008f01afeaa231e4aa3541e4af5
:105ea800a3541e4b1e4a3100280009f057f8dc3471
:105eb800e388002b06d13800224a390009f04ef851
:105ec80000206ee71d486ce7094bc71820223900ef
:105ed8001d480cf0e9fb002800d164e70123f377a3
:105ee800024b0022e254074c36e7c0465215000028
:105ef8009c1000008000006040100060c96dee3505
:105f08006ebb3fc840000060f43ab2411357722795
:105f1800531500005415000055150000b473cd6edc
:105f28000025d5ea3c736db8b857301450150000f9
:105f3800964e2d8b2731d817f02900100d5d44c0df
:0c5f48005e85f50de1d308268010006096
:020000040000fa
:020000041000ea
:105f5400f0b5de4657464e464546e0b587b00700e5
:105f64008a464b6bdb080393dbb29b46022b12d8a9
:105f7400c269e6235b00d15800230093734b744a33
:105f8400744808f0d1fe002007b03cbc9046994606
:105f9400a246ab46f0bd012105f052ff8a235b0007
:105fa4000022fa503b001533ff3301325a70392373
:105fb4005246d35c012b6bd0002b7bd0022b70d0cc
:105fc4000023029353465b6a984605931e000836e5
:105fd40053465a6b083a196a30000df077fe5b4657
:105fe4005b005b445b00063bdbb299465a4a5a4b62
:105ff40041460a604b60012411253a001532ff32f4
:10600400009504230021380008f054fa80231b0172
:106014001d430095029b5246926a0121380008f004
:1060240049fa0094082342460621380008f042fa4f
:106034000094082332000721380008f03bfa0823b3
:1060440042460121380008f039fc082332000221bd
:10605400380008f033fc380005f038fa3f4b1a6872
:106064003900203111601c683b00b03323610323e5
:1060740063633c3323634b46002b40d00125ff234d
:10608400039a1340013b02933b004746984620e0a5
:106094008a225200bb5c08210b43bb541823029391
:1060a40090e78a225200bb5c04210b43bb5420239b
:1060b400029387e71023029384e7e36bda07fcd4a7
:1060c4009b07fad4fb795e40fe710135ebb299452a
:1060d40015d3eeb20299280006f020f9c9b20029be
:1060e40002d15b46591ec9b2c900791890234246b1
:1060f400d1504033d150cd3ba363e36bdee7184b63
:106104001b685246526a934209d053465969012387
:1061140000930e4b0e4a0f4808f006fe33e7ff20ab
:10612400039b18404000f0d0002200230c4c21684f
:106134009b0006adac466344043b1b680b60013214
:10614400d2b213008242f2d3dfe7c046c2b7e9cc31
:1061540053fb18f2eaebf924a6a6a6a61c2a001003
:04616400002a0010fd
:020000040000fa
:020000041000ea
:10616800f0b583b0714da026b60132000021280099
:106178000df096fd6e486f4b186080229201002149
:106188000df08efd0bf064fd0df0befb04006a4ab5
:1061980005230193130030330093042331002800b2
:1061a80008f076fa0af0c2fb2368012600965d69ba
:1061b8000123002261492000a8470af0f9fb23685f
:1061c8001d690df0b5fb0100002300222000a8473f
:1061d8000af0defd23681e2500955f690023012271
:1061e80057492000b8470af06df823681f690bf07b
:1061f800d7ff0100002300222000b847236800953c
:106208005f69002301224f492000b84709f07cfe4e
:1062180023681f690bf0fcff010000230022200007
:10622800b847236800955f6900230122464920008a
:10623800b847236800965f6900230022434920007d
:10624800b84709f0e3fe23681f690cf089f80100dc
:10625800002300222000b847236800955f690023c7
:1062680001223b492000b8470af044f823681f6917
:106278000bf0b2ff0100002300222000b84723687a
:1062880000955f690023012232492000b84709f0d0
:106298006bfd23681f690bf067ff010000230022d4
:1062a8002000b847236800955f69002301222a4926
:1062b8002000b84709f08eff23681f690bf046ffde
:1062c8000100002300222000b847236800955f6979
:1062d8000023012221492000b84709f0e1fd236885
:1062e8001f690bf087ff0100002300222000b84738
:1062f800236800955d690023012219492000a847f9
:10630800236800965d690023002216492000a847eb
:1063180009f0cafe23681d690cf064f90100002326
:1063280000222000a84703b0f0bdc04660af0110ae
:1063380060d7011000180010e0ba0010da4a82c0d5
:10634800a308e560a686ffa0379bbe37fa7a39789e
:10635800e9202c28d161548d94a784bd86b0751787
:0863680065eaa4af8ccc37ca32
:020000040000fa
:020000041000ea
:10637000f0b5d6464f464646c0b584b005000c0081
:106380003823cf5cc6690b689b68080098475d3668
:10639000ff363062e6235b00ea696169d150bc3b9d
:1063a0000022ea50062f00d973e0bb006e4ad35892
:1063b0009f4688225200ab5c01210b43ab5409235a
:1063c0009a460321280005f03dfd13262a001132cc
:1063d000ff32009604230021280008f06df85036a3
:1063e0000096236ae2690121280008f065f80bf0a5
:1063f000bffe03681b6a390098470390603e39234b
:10640000e35c002b48d10096a36a626a022128004f
:1064100008f052f8e26a039b0021280008f050fac5
:10642000280005f055f8280009f01efb04b01cbc3c
:1064300090469946a246f0bd88225200ab5c0221ec
:106440000b43ab5409239a46bbe788225200ab5c4e
:1064500004210b43ab5409239a46b2e78822520029
:10646000ab5c08210b43ab5409239a46a9e7882269
:106470005200ab5c10210b43ab5411239a46a0e7aa
:1064800088225200ab5c20210b43ab5411239a4667
:1064900097e700239a4694e70cf0a8f803685b6a34
:1064a00098478023db00984680440bf061fe036828
:1064b0009b6a390098478146616a2c4b1b688b4266
:1064c0003dd0a26a40460df003fca06a4b465a003c
:1064d000121a404400210df0e7fba26a4b469b1aba
:1064e0009a4500d94b44802140468154676bf8009f
:1064f0004246d218a16a511805398c46790f674671
:106500003970a16a51180439070e0f70a16a511829
:106510000339070c0f70a16a51180239070a0f706e
:10652000a16a8c466244013a1070a26a94466344a0
:10653000009642460221280007f0beff6ae7a36ae0
:1065400098089b070cd001304246002307498c462f
:1065500061460968096802c201338342f8d3b4e78f
:106560000028f1d1b1e7c04628e90010002a001048
:020000040000fa
:020000041000ea
:10657000f0b5d6464f464646c0b590b080460c00b2
:10658000cb6909930b6a0f930e930c930cf02ef8c2
:106590000500636b002b02d0db795b072ad42b68e4
:1065a0005b6a280098478023db00c518002d00d1c6
:1065b000b2e000239946636a002b05d0226b53009a
:1065c0009b185b00a946ed18636bda7f00218a46b1
:1065d000920603d5226b5200aa46ad18da7f520606
:1065e00068d5db79db0966d0226ba16a28000df043
:1065f0006ffb60e00df01ef90600636bd97c504b19
:10660000eb58db684e4aa818984700280cd0434640
:10661000d869002300224b4908f0acff616b336856
:10662000db683000984777e033689f68464b474afd
:1066300024213000b847071e1dd02b681b6a00229a
:1066400009a928009847010033689d68404b414ada
:106650003000a847051e1bd0636b09a99a7c8a707d
:106660001a7c0a70db7c5b075a0fcb7807208343c8
:106670001343cb709de7616b3368db68300098474c
:106680004346d86900230022334908f073ff43e0f2
:106690003368db68390030009847616b3368db682a
:1066a000300098474346d869002300222a4908f061
:1066b00061ff31e000250df0bdf8060003689f681a
:1066c0000023264a3c21b847071e2bd00c9b0d9374
:1066d000626b00230693537f0593d37f9b06db0fea
:1066e0000493d379db090122534003935346029369
:1066f00001954b4600930c9b099a194907f02cff12
:106700000df02af803681b69390098474346da6997
:10671000616bad239b00d15010b01cbc90469946d4
:10672000a246f0bd616b3368db6830009847434692
:10673000d86900230022084908f01cffece7c04696
:106740003815000011000080c748a7c0b09c019711
:106750007cd18fd931b7ab5123000080c96dee35a4
:046760006ebb3fc805
:020000040000fa
:020000041000ea
:10676400f0b5d6464f464646c0b58ab00400ad23c0
:106774009b000a6ac169ca50c269d7580bf034ff3a
:106784000600fb795b0744d5797c002941d0684b2e
:10679400c358db68664a80189847051e0cd00df074
:1067a40099fc4001400f02280dd0e069002300222b
:1067b400604908f0ddfe87e0e069002300225e49bd
:1067c40008f0d6fe80e028000df086fc037b5b0712
:1067d40006d0e06900230022564908f0c9fe73e0a0
:1067e40028000df079fc037b70221a4206d0e06980
:1067f400002300224f4908f0bbfe65e028000df09d
:1068040067fcc368089328000df062fc1030050093
:1068140007e033685b6a30009847c3680893103018
:1068240005000df005f8804608ab1b785b076bd1bb
:1068340008ab1b785b065b0f59d108abdb78db0632
:1068440007d508ab58784300c0184000c0b2a94629
:1068540002e000200023994608abdb789b0639d57b
:10686400aa46824443461b689d68344b344a4421fb
:106874004046a847051e54d0bc796407640f3368aa
:106884005b6a300098472f4b1a6879691b68089e29
:106894000996002607960693059104928023db004f
:1068a4009c46604403904b460293534601930094e4
:1068b400089b254a2549280007f074fe0cf04aff7e
:1068c40003681b69290098470ab01cbc9046994686
:1068d400a246f0bde06900230022164908f048fef4
:1068e40043461b68db68390040469847ece7e0699b
:1068f400002300220f4908f03bfe43461b68db6877
:10690400390040469847dfe7e0690023002209493f
:1069140008f02efe43461b68db6839004046984762
:10692400d2e7e06900230022094908f021fecbe701
:106934003815000014000080120000805533f23c2a
:10694400c96dee35002a00106ebb3fc8167d6e156a
:04695400230000809c
:020000040000fa
:020000041000ea
:10695800f0b5c64600b58ab00700ad239b000a6aa9
:10696800c169ca50c269d458e3795b0700d577e09a
:106978000bf038fe03685b6a98470990a3793c22bc
:106988001a4200d1c0e09b079b0fdab2012a5fd000
:106998005bb2002b0ad00026022a0ed10bf022fe91
:1069a80003685b6a98472030060006e00bf01afe81
:1069b80003685b6a984710300600554b1b68984679
:1069c8000cf034ff03689d680023524a3c21a84715
:1069d800051e00d191e06279002a00d187e0013ad2
:1069e800531e9a4152424c4b1a404c4b9c466244af
:1069f800a3799b061b0f012b00d17ae0023b58427a
:106a080058414000a3799b079b0f012b00d172e0ee
:106a1800023b5942594149003d4b1f681b68246994
:106a280006940591049041460391029609990191b3
:106a380000933b003a49280007f0c0fb0cf088fea1
:106a480003681b69290098470ab004bc9046f0bd4a
:106a58000bf0c8fd03685b6a984718300600ace77e
:106a68000bf0c0fd03002f4a8018617d9b58db683e
:106a78009847051e0cd00df02bfb4001400f012854
:106a88000dd0f86900230022274908f06ffddbe7e5
:106a9800f86900230022254908f068fdd4e728009a
:106aa8000df018fb037b5b0706d0f8690023002272
:106ab8001d4908f05bfdc7e7a679b607b60f2800a1
:106ac8000df008fb037b9b069b0fb34206d0f869c9
:106ad80000230022144908f049fdb5e728000df00d
:106ae800f5fa1030099000239846002668e7104a06
:106af8007ee7012086e701218ee7f869002300225e
:106b08000c4908f033fd9fe700239846002657e715
:106b1800002a0010c96dee35fda8bb08035744f7dd
:106b28006ebb3fc8381500001400008012000080ba
:086b38009bdf001a230000801e
:020000040000fa
:020000041000ea
:106b4000f0b5ce46474680b583b007000c004d6acd
:106b5000002d00d08ce00b6b202b00d1a2e00dd9d2
:106b6000302b00d1a6e0422b00d07de0554e1036f0
:106b7000554d42235b429846a84409e0182b00d0ab
:106b80006fe0504e2036514d18235b429846a84482
:106b90003823e35c002b00d072e0a36a99463923c6
:106ba000e35c002b57d04b46002b54d02221236ba3
:106bb000013bdbb21b02194380235b051943db0059
:106bc0001943002e47d0b37a1b091b05194338001f
:106bd00003f0ccff7368012501950095226b4146b7
:106be000380006f027f9236b00934b46226b0621f1
:106bf000380008f051f9364b1a68364911601b68a5
:106c000003229a603448354b354a010008f0aaf94e
:106c10000df00af90368db680c219847e6235b0056
:106c2000fa696169d150fb695d33ff332d4a1a62fd
:106c3000fb695d33ff33226b5a62fb695d33ff33bf
:106c4000e26a9a62fb698e33ff331d70fa69616be9
:106c5000e4235b00d150002003b00cbc9046994661
:106c6000f0bd0023984607e000250023984603e086
:106c7000a8460b6b9c466544002d11d0002687e783
:106c80000bf0b4fc03685b6a984780231b019946ac
:106c90008144236b2a004946380004f077f97ee7e7
:106ca0002e007ae7074e30360f4d20235b42984680
:106cb000a8446de7034e0d4d30235b429846a8442f
:106cc00066e7c04650300010d23000101434001077
:106cd000182a001002060800eaebf924cf08000881
:106ce000a40691de80074fe15c3300104c320010a7
:020000040000fa
:020000041000ea
:106cf000f0b5c64600b58ab0cc692388202b04d0f5
:106d00005b480ab004bc9046f0bde3790f22934380
:106d1000202b00d1a2e0e37d002b02d0a37d002b2d
:106d200003d1a368002b00d19ae0237cdb072fd48a
:106d3000e368002b00d195e0a268216805f084fb90
:106d400001282fd00027002398460cf005fd0600ef
:106d50000cf070fd03689d68464b474a3421a847f4
:106d6000051e00d182e0454b1968e37da27d0494a5
:106d70000391414602910197e17c0091404908f05e
:106d8000cff833681b692900300098470120b8e725
:106d9000e368002b68d1a268002acdd10027002328
:106da0009846d2e70bf022fc03685b6a984705001f
:106db00006aad37807218b4302210b43d37000230b
:106dc0000793013b0893e37d002b24d0002600238a
:106dd0009846a37d0027002bb7d1284b1b68b6002f
:106de000af191b683b6009930bf000fc03681b6a3a
:106df000012206a998471038810883072bd001315a
:106e0000301d281800231d4d2a68126804c0013364
:106e10008b42f9d399e7194b1b681b6803600993f0
:106e20000bf0e4fb03681b6a012206a9984710389f
:106e3000860883070cd0013600231048026801330e
:106e400011689a00a950b342f8d30136a846c0e7aa
:106e50000328f1d8f9e70328d2d876e7094850e7a4
:106e600009484ee709484ce709484ae7094848e716
:106e700021000080a7ef242dc96dee35002a0010f7
:106e80003c736db8020000801a0000801900008079
:086e90001b00008023000080bc
:020000040000fa
:020000041000ea
:106e9800f0b5de4657464e464546e0b585b00bf0a0
:106ea800a1fb07009c239b4683440300dc339a889c
:106eb8005a4492461a8930325a4402929b89303396
:106ec8005b44039353469b78002b00d17ae05346ea
:106ed800043300930023994636e03b00dc3399885d
:106ee80053461b88c9185944019b5b785b00cb1833
:106ef8005b88c918002905d0300010302200103aec
:106f08000cf0e2fe2b689b6898463f4b3f4a2421d1
:106f18002800c04700284fd0019b1b683200210081
:106f280004000af0bbf93a4bfb585b692100384a68
:106f3800b818984701239c46e144009b10330093fe
:106f480053469b784b453dd9009901913b681b6a94
:106f5800002288463800984704000cf067fc0500ba
:106f68002404240c03689e682a4b2b4a2100b0474e
:106f7800061edfd0102241460cf0a6fe4b461b0130
:106f880053449a7930231340102ba6d0202b0ad0d3
:106f9800302bb7d1019b5b785b00039a944663441e
:106fa80059886144a6e7019b5b785b00029a944686
:106fb8006344598861449de72b68db6831002800e9
:106fc8009847b7e73b68db6a3800984700280cd039
:106fd80012480023124a010007f0c0ff05b03cbc6c
:106fe80090469946a246ab46f0bd0c4c00230d4a8c
:106ff8002100200007f0b2ff00230b4a0b492000b4
:1070080007f0acffeae7c046c748a7c0b09c0197a5
:10701800381500007cd18fd931b7ab516ebb3fc852
:107028000025d5eae1d308265e85f50d3c736db8d9
:020000040000fa
:020000041000ea
:10703800f0b5d6464f464646c0b58eb0cc692388d3
:10704800202b06d055480eb01cbc90469946a24647
:10705800f0bda368002b00d19ce0e368002b01d1b0
:107068004f48f0e70cf074fb07000cf0dffb06005c
:1070780003689d684b4b4c4a3421a847051e00d134
:107088008ae0e368a26849490020039002900191d0
:107098002068400d40050090280008f089fd3b68f5
:1070a8009b6908aa29003800984705000899002913
:1070b80003d03368db6830009847002d67d009aaf1
:1070c800e07c07210840d3780726b3430343d370f5
:1070d80060690a90a0690b90e0690c900b40022b44
:1070e8002ad00027002399460cf0a0fb06000cf0dc
:1070f8002ffb804633689b689a462d4b2a4a3c21d1
:107108003000d047061e40d0e3690d930694627f95
:107118000592049703950022029249460191009234
:10712800099a244907f064fa43461b681b69310031
:1071380040469847012086e7e779ff0900239946ea
:10714800002fd1d00bf04efa03685b6a984781464e
:1071580009adeb7b20229343eb730bf043fa0368f2
:107168001b6a0022290098470200103a92080ad0a8
:107178004b4692004a4410480168096802c393428a
:10718800fad10025b0e70025aee70c485be7802080
:10719800000658e70a4856e7084854e721000080e7
:1071a8001b000080a9f4805cc96dee3505b2a117fb
:1071b800a7ef242d3c736db8002a0010230000802f
:0471c8001a00008029
:020000040000fa
:020000041000ea
:1071cc00f0b583b00400504b1a68d368036a4f497a
:1071dc008b4200d178e02dd94d4a93424cd04d4a88
:1071ec00934244d13123c35c002b40d0856ac069e3
:1071fc001c30636a0a22290009f01af8636ae9183c
:10720c00e0691c300b2209f013f8434fe626760098
:10721c00e3699959414d3b00414a280007f09cfe17
:10722c003b00404a2900280007f096fe0023e26943
:10723c0093511ce03c498b4219d1d368364ee6275a
:10724c007f00c269d159354d384a13405a425341d7
:10725c0000933300364a280007f062fd0023e269f0
:10726c00d35133002f4a2900280007f075fe002364
:10727c002362002003b0f0bd3123c35c002bf6d099
:10728c00856ac0691c30636a0822290008f0d0ffa7
:10729c00636ae918e0691c30092208f0c9ff1e4f27
:1072ac00e6267600e36999591c4d3b00214a2800db
:1072bc0007f052fe3b001b4a2900280007f04cfe49
:1072cc000023e2699351d2e73123c35c002bced06b
:1072dc00c0691c30636a0622a16a08f0a9ff0e4f30
:1072ec000e4d3b000f4a2900280007f035fee6261c
:1072fc007600e36999593b000f4a280007f02cfef1
:10730c000023e2699351b2e7182a001088bf677115
:10731c0080074fe1faee14ed26a92614eaebf924c6
:10732c0094cdd6c0fa3108af167d6e15f03f000033
:0c733c00881e8da166beda231ebd48cb62
:020000040000fa
:020000041000ea
:10734800f0b5d6464f4680b583b004000e0017004e
:107358001d00012104f072fd0f239946112122001e
:107368001532ff3200910b3b0021200007f0a0f8f6
:107378004e4900913b0032000121200007f098f8a7
:107388004b4900910c9b0b9a0221200007f090f8c2
:10739800484900910a9b2a000321200007f088f839
:1073a80041210091119b109a3d39200007f080f887
:1073b8004121119b139a944663441f005d424b463a
:1073c8001d402b02194353190091129a05212000e0
:1073d80007f06ef801210f9b5e424b461e403302b8
:1073e80019430f9b9a46b244009153460d9a0621c1
:1073f800200007f05df80121169b5b424a461a40bf
:107408009146149b002b02d013021943169b00913e
:10741800149a0721200007f04bf8012100911a9bcc
:10742800199a0731200007f043f87b190022002140
:10743800200007f041fa0f9b9b072ad003230f9dda
:107448009d4304352b000e9a0121200007f034fae1
:1074580053465b1b00220221200007f02dfa169be1
:10746800159a0321200007f027fa4b460022042131
:10747800200007f021fa189b179a0521200007f031
:107488001bfa200004f020f803b00cbc91469a4681
:10749800f0bd0f9b0e9a0121200007f00dfa330072
:1074a80000220221200007f007fad8e7110800009f
:0874b80011280000114800003a
:020000040000fa
:020000041000ea
:1074c000f0b5de4657464e464546e0b58fb005005e
:1074d000ad239b000a6ac169ca50c269d6580cf034
:1074e000a9f90400f3795b0751d500239846994622
:1074f00000270d9323689b689b460023474a482139
:107500002000d847041e00d180e07279022a00d101
:1075100078e0033a531e9a415242414b1a40414b84
:107520009c466244b3799b079b0f012b6cd0023bb6
:1075300059424b415b003c490d68086809688a461e
:10754000b179c9090a91b1794906c90f099108931e
:1075500053460793b3690693434605934b460493fa
:10756000039733690293019500900d9b2f492000ea
:1075700005f0f4fd0cf0f0f803681b692100984752
:107580000fb03cbc90469946a246ab46f0bd0bf00e
:107590002df803685b6a98470d90b3799b079b0fa2
:1075a000dab2012a28d05bb2002b28d0023a53422b
:1075b0005a41530198460bf019f803685b6a9847e3
:1075c00040440700184b1b689946b3792022424477
:1075d00093465b0602d50c2343449b460023984602
:1075e000b369002b00d185e70bf000f803685b6af4
:1075f0009847584480467de718239846dbe71023d8
:107600009846d8e70a4a8de7012394e7e869002302
:107610000022084907f0aeffb2e7c046c96dee355b
:1076200045d19fc7bb2e6038002a00106ebb3fc8f3
:0876300003b880ed2300008087
:020000040000fa
:020000041000ea
:10763800f0b585b004000af0d5ff050007009c37b7
:107648006022ff2138000cf02bfb602239004048f3
:107658000bf02af8060043424341237760223900a1
:107668003c480bf021f84342434163770023a3775a
:10767800e377064313d0384b0022ea54237f002bcc
:107688003bd1637f002b5cd1314b1a88314b1b886f
:107698009a425ad2304b0122ea542e4e32e02f4cf5
:1076a8002f4b304a2100200007f058fc2e4b2f4a60
:1076b8002f49200007f052fc2e4b2f4a2f4920005b
:1076c80007f04cfcff232e4aab542e4aab542e4aeb
:1076d800ab542e4d0196fd3b00932d4b2d4a2900ae
:1076e800200007f0f3f90196012300932a4b2b4a57
:1076f8002900200007f0eaf921e00123164aab54db
:10770800a377144e0cf092f803689c680023244a6f
:107718003021a047041e12d000230293214b9c461f
:1077280065440195042300933c3332000b4908f06b
:1077380023fa0cf00df803681b692100984705b07f
:10774800f0bd0123e377024edce7014edae7c046dd
:107758004000006040100060521500006ebb3fc83a
:1077680044765af8e1d3082626a0bd235e85f50d98
:107778003c736db89cad4fbef43ab24113577227b3
:10778800531500005415000055150000b857301463
:10779800f62b9624964e2d8b1535234a2731d8176c
:0877a800c96dee359c100000d4
:020000040000fa
:020000041000ea
:1077b000f0b5d6464f4680b587b00500ad239b0097
:1077c0000a6ac169ca50c269d6580af00fff04009c
:1077d000f3795b0726d5337ddb0723d5717d474bd6
:1077e000c358db68454a80189847071e0bd00cf039
:1077f00073fc4001400f0dd0e8690023002240498e
:1078000007f0b8fe4de0e869002300223d4907f08b
:10781000b1fe46e038000cf05dfc070010378389ac
:10782000994606e023685b6a20009847071d038895
:1078300099460af09dfcb17903689b6a98470590c8
:1078400023685b6a200098478023db009a468244c5
:10785000059c2200002150460cf026fa4c4518d217
:107860000bf0e8ff03689c68274b284a3021a047ab
:10787000041e37d0b3790d2b32d017d905220f2b28
:107880001cd0103b5a4253415b4202221a40043240
:1078900014e04a46390050460cf01afa280003f06a
:1078a00073fd07b00cbc91469a46f0bd0c3b5a42a2
:1078b00053415b42012293431a0004320023029396
:1078c0005346019300924b463a001149200008f0bc
:1078d00057f90bf041ff03681b6921009847e0e767
:1078e0000322ebe7002300220a49e86907f042fe81
:1078f000ea69ad239b000021d150d2e73815000082
:107900001400008012000080fe558be6c96dee3534
:087910006ebb3fc8230000809c
:020000040000fa
:020000041000ea
:10791800f0b5de4657464e464546e0b593b00500fd
:107928000c002030902200210cf0baf92800b03069
:10793800602200210cf0b4f98a235b000022ea508f
:1079480023689b6820009847494b984218d03823f1
:10795800e35c012b23d0002b19d0022b2dd0392327
:10796800e35c012b37d0002b3dd00022022b3bd10a
:107978008a225200ab5c04210b43ab54f43a33e047
:107988008a225200ab5c01210b43ab54dfe72a008b
:107998001532ff32537801210b435370dfe78a22f7
:1079a8005200a9184b78022003434b70ab5c10219e
:1079b8000b4320210b43ab54d1e78a225200a9186c
:1079c8004b78042003434b70ab5c10210b43202100
:1079d8000b43ab54c3e78a225200ab5c08210b432c
:1079e800ab54fc3a00e01022a36a9b46e06a071eeb
:1079f80000d01027236a9846636a9946636b9a46b3
:107a0800266bb446002e01d010239c460023109309
:107a18000f9361460e910d960c930b930a9309935d
:107a280008930793069351460591494604914146a8
:107a3800039102970190009359462800fff780fcb4
:107a4800ee6923689b68200098475d36ff363062f0
:107a58006269e6235b00e969ca50280008f000f86b
:107a680013b03cbc90469946a246ab46f0bdc04612
:047a7800035744f775
:020000040000fa
:020000041000ea
:107a7c00f0b58bb0050049490af038fc484b083387
:107a8c002b602f001c37380009f018fc3c239c4657
:107a9c00ac446346019360460af0befd58218c4607
:107aac00ac446146029160460af0d6fc74208446d0
:107abc00ac44604603900af03ffd9024a446ac44cd
:107acc006446049460460af09dfcac26b446ac4473
:107adc0066460596604609f071facc239c46ac4488
:107aec006346069360460af071fce8218c46ac4470
:107afc006146079160460af049fd681dff30089009
:107b0c000af08efc90246400a446ac4464460994ac
:107b1c0060460af057fd903630000af08bfd383481
:107b2c002049200006f098f93a001f49200008f07f
:107b3c00c0ff32001d49200008f0bbff019a1c4910
:107b4c00200008f0b6ff059a1a49200008f0b1ff92
:107b5c00089a1949200008f0acff099a174920002f
:107b6c0008f0a7ff029a1649200008f0a2ff039a1a
:107b7c001449200008f09dff069a1349200008f0d4
:107b8c0098ff079a1149200008f093ff049a1049b6
:107b9c00200008f08eff28000bb0f0bdf86eb22369
:107bac00e0b20010d0250010275a6f0bc1a52deda7
:107bbc00f6cd5bb461dc017bcae9e7ec6a22eb0f22
:107bcc00e52bb60b4ee79ea65896063b1da179ee0b
:047bdc00ef743e49bb
:020000040000fa
:020000041000ea
:107be00030b583b004004b69454a934234d020d865
