:020000040000fa
:020000041000ea
:10000000f0ff011095300110138c0110158c0110b8
:1000100000000000000000000000000000000000e0
:100020000000000000000000000000001b8c011018
:100030000000000000000000213901101b8c01109d
:0c0040001b8c01101d5901100d880110cf
:020000040000fa
:020000041000ea
:10004c0000000000000000000000000000000000a4
:10005c00198c0110198c0110198c0110198c0110bc
:10006c000000000000000000fb8b0110df88011075
:10007c000000000000000000038c0110fb88011040
:10008c00000000000000000025840110516e0110da
:08009c00b58b01104155011064
:020000040000fa
:020000041000ea
:020252007047f3
:020000040000fa
:020000041000ea
:10025400000000000000000000000000000000009a
:10026400000000000000000000000000000000008a
:10027400000000000000000000000000000000007a
:10028400000000000000000000000000000000006a
:102a5400000080531cfb011000f801100000005717
:102a6400000400520000005000000054000800520e
:102a7400001c005200400051001000510080005121
:082a8400002000510000005188
:020000040000fa
:020000041000ea
:042a8c000000000046
:020000040000fa
:020000041000ea
:102a90000000000000000000000000000000000036
:102aa0000000000000000000000000000000000026
:102ab0000000000000000000000000000000000016
:102ac0000000000000000000000000000000000006
:020000041000ea
:04683800000000005c
:020000040000fa
:020000041000ea
:10683c00000000000000000000000000000000004c
:10684c00000000000000000000000000000000003c
:10685c00000000000000000000000000000000002c
:10686c00000000000000000000000000000000001c
:046adc0000000000b6
:020000040000fa
:020000041000ea
:106ae00000000000000000000000000000000000a6
:106af0000000000000000000000000000000000096
:106b00000000000000000000000000000000000085
:106b10000000000000000000000000000000000075
:106b20000000000000000000000000000000000065
:106b30000000000000000000000000000000000055
:106b40000000000000000000000000000000000045
:106b50000000000000000000000000000000000035
:106b60000000000000000000000000000000000025
:106b70000000000000000000000000000000000015
:106b80000000000000000000000000000000000005
:106b900000000000000000000000000000000000f5
:106ba00000000000000000000000000000000000e5
:106bb00000000000000000000000000000000000d5
:106bc00000000000000000000000000000000000c5
:106bd00000000000000000000000000000000000b5
:106be00000000000000000000000000000000000a5
:106bf0000000000000000000000000000000000095
:106c00000000000000000000000000000000000084
:106c10000000000000000000000000000000000074
:106c20000000000000000000000000000000000064
:106c30000000000000000000000000000000000054
:106c40000000000000000000000000000000000044
:106c50000000000000000000000000000000000034
:106c60000000000000000000000000000000000024
:106c70000000000000000000000000000000000014
:046c80000000000010
:020000040000fa
:020000041000ea
:106c84000000000000000000000000000000000000
:106c940000000000000000000000000000000000f0
:106ca40000000000000000000000000000000000e0
:106cb40000000000000000000000000000000000d0
:106cc40000000000000000000000000000000000c0
:106cd40000000000000000000000000000000000b0
:106ce40000000000000000000000000000000000a0
:106cf4000000000000000000000000000000000090
:106d0400000000000000000000000000000000007f
:106d1400000000000000000000000000000000006f
:106d2400000000000000000000000000000000005f
:106d3400000000000000000000000000000000004f
:106d4400000000000000000000000000000000003f
:106d5400000000000000000000000000000000002f
:106d6400000000000000000000000000000000001f
:106d7400000000000000000000000000000000000f
:106d840000000000000000000000000000000000ff
:106d940000000000000000000000000000000000ef
:106da40000000000000000000000000000000000df
:106db40000000000000000000000000000000000cf
:106dc40000000000000000000000000000000000bf
:106dd40000000000000000000000000000000000af
:106de400000000000000000000000000000000009f
:106df400000000000000000000000000000000008f
:106e0400000000000000000000000000000000007e
:0c6e140000000000000000000000000072
:020000040000fa
:020000041000ea
:106e20006e2d21f0275a6f0b00000000306e00100d
:106e3000275a6f0b00000000020000000000000055
:106e4000acff0010c1a52ded000000000100000006
:106e500000000000a4ff0010f6cd5bb401000000ac
:106e6000000000009cff00100000000061dc017bbe
:106e700000000000010000000000000094ff00106e
:106e8000cae9e7ec0000000000000000000000007c
:106e90007cff00106a22eb0f0000000000000000e1
:106ea00074ff001000000000e52bb60b000000008e
:106eb00000000000000000005cff00104ee79ea6ee
:106ec0000000000000000000000000004cff001067
:106ed0005896063b00000000000000000000000083
:106ee0003cff00101da179ee000000000000000032
:106ef0000000000034ff0010ef743e490000000065
:0c6f000000000000000000000000000085
:020000040000fa
:020000041000ea
:106f0c000000000000000000000000000000000075
:106f1c000000000000000000000000000000000065
:106f2c000000000000000000000000000000000055
:020000041000ea
:0471940000000000f7
:020000040000fa
:020000041000ea
:1071980000000000000000000000000000000000e7
:1071a80000000000000000000000000000000000d7
:1071b80000000000000000000000000000000000c7
:1071c80000000000000000000000000000000000b7
:1071d80000000000000000000000000000000000a7
:0471e80000000000a3
:020000040000fa
:020000041000ea
:1071ec000000000000000000000000000000000093
:1071fc000000000000000000000000000000000083
:10720c000000000000000000000000000000000072
:10721c000000000000000000000000000000000062
:0c722c0000000000000000000000000056
:020000040000fa
:020000041000ea
:107238000000000000000000000000000000000046
:107248000000000000000000000000000000000036
:047258000000000032
:020000040000fa
:020000041000ea
:10725c000000000000000000000000000000000022
:08726c0000000000000000001a
:020000040000fa
:020000041000ea
:0c7274000000000000000000000000000e
:020000040000fa
:020000041000ea
:08728000e07f000a000000009d
:020000040000fa
:020000041000ea
:10728800f0b5de4657464e464546e0b593b0050094
:107298000c000ff07dff0600ea69e169ad239b0051
:1072a800d150bd4b9c46844460460190f3589b687e
:1072b8009847051e00d149e100239946049303939a
:1072c8009a469b46984633004e461f001be05b4695
:1072d8000133dbb29b460ff05bff03681b6a012298
:1072e8000ea998470004000c0c38039b9c46604488
:1072f80083b203930136a84bfb58db692900019838
:107308009847051e3ad0280011f05efc8402a40fad
:10731800280011f059fc0e90280011f053fcc368a6
:107328001193022cd3d014d8012ce4d14346013355
:10733800dbb298460ff02cff03681b6a01220ea9e6
:1073480098470004000c0c38484483b2994601362b
:10735800d1e753460133dbb29a460ff019ff0368b1
:107368001b6a01220ea998470004000c0c38049be4
:107378009c46604483b204930136bce73b004f4609
:10738800b1461e0043465b4453441b0104331f228d
:10739800934320330693434601335b0005939b07d1
:1073a80000d5dfe0059b9c466744bfb2fb0603d0cf
:1073b8001f239f432037bfb2002307935b46002b50
:1073c80014d001335b0007939a0701d50233079362
:1073d800039b079a944663449bb2da0603d01f22a4
:1073e800934320339bb240339bb20393002308930b
:1073f8005346002b15d05b00023308939a0702d539
:1074080002339bb20893049b089a944663449bb248
:10741800da0603d01f22934320339bb240339bb23a
:1074280004939c239c46b4446346029380225201f1
:10743800ff21604611f0c8f9584ab35a01339bb28c
:10744800dc217352b352564bf35cff2b00d18de015
:107458003300dc33524ab25c9a70524bf35cff2b18
:1074680000d187e03300dc334e4ab25cda70320078
:10747800fc324d49715c1170a0229a806a46108bcb
:1074880002002032bf18bfb2df805b46002b77d0e6
:107498003b00a0333200dc321381039b53815346f7
:1074a800002b73d03300dc335a89a032bf189f8178
:1074b800049ada813300dc339988da888a185c897f
:1074c8001219dc89121992b21a8280246401a21a54
:1074d8005a8200221a755a759a75da759a61da61b4
:1074e800029a57180c00069dac4664440994110092
:1074f800a446624415000c921c890a94220030327a
:107508008c4662440d929b890b93303363440493f9
:1075180043462b705b46002b00d013705346002b5c
:1075280002d0049b52461a7038804b46bb701a4be7
:10753800f3589b6801989847041e00d125e1002361
:107548009a46994603930025b84682e00023994657
:107558000493039300279a469b4698460233059363
:107568001e330693059b023305931be70c4baa2297
:10757800f2546de7553b0b4ab3540b4ab35471e7c9
:107588003300dc3300221a815a8188e73300dc3368
:1075980000229a81da818de7381500005015000025
:1075a800531500005415000055150000200011f077
:1075b8000dfb4b464370200011f006fb2f01bb4624
:1075c800c3445b465860200011f0fcfa5b46026831
:1075d8009a60200011f0f6fa5b464268da602000f3
:1075e80011f0f0fa5b4682681a610ff0d1fd391d7f
:1075f800414403681b6a01229847834601353300da
:10760800dc331b89079a944663441f003037029a7b
:10761800944667444a4652000d998c4662440a993a
:107628005b1a53804b460133dbb29946200011f0b8
:10763800c9fa5a460c3a01000c31380011f0d8f852
:10764800564bf358db69210001989847041e00d176
:107658009be0200011f0b8fa8002800f0228a5d024
:1076680048d80128ecd1200011f0aefa2f01bb4612
:10767800c3445b46586003995971200011f0a6fa7b
:107688005b4642689a60200011f0a0fa5b46826867
:10769800da60200011f09afa5b46c2681a610ff0ae
:1076a80077fd391d414403681b6a0122984707008a
:1076b80001353300dc339b88059a0698844662447a
:1076c8009b18029a93469b4403994a000c98844657
:1076d800624409981b1a53804b1cdbb203932000a9
:1076e80011f070fa3a00103a01001031584611f0c2
:1076f8007ff8a5e7200011f069fa5346437020008f
:1077080011f062fa2f01bb46c3445b465860200063
:1077180011f058fa5b4602689a60200011f052fa9c
:107728005b464268da60200011f04cfa5b468268da
:107738001a610ff02dfd391d414403681b6a0122af
:107748009847834601353300dc339b89089a944671
:1077580063441f003037029a9446674452465200e9
:1077680004998c4662440b995b1a53805346013343
:10777800dbb29a46200011f025fa5a460c3a01006d
:107788000c31380011f034f85ae7054813b03cbc06
:1077980090469946a246ab46f0bdc0463815000053
:0477a8002b88fa75bb
:020000040000fa
:020000041000ea
:1077ac006ef700107af700107af700106ef70010e1
:1077bc007af700106ef700106ef700107af70010d1
:1077cc006ef700106ef700107af700106ef70010cd
:1077dc006ef700106ef700106ef700106ef70010c9
:1077ec007af700107af700101cf700107af70010e7
:1077fc007af700107af700107af700107af7001079
:10780c001cf700107af700107af700107af70010c6
:10781c007af700107af700107af700107af7001058
:10782c001cf700107af700107af700101cf7001004
:10783c001cf700107af700101cf700101cf7001052
:10784c001cf700101cf700101cf700101cf70010a0
:10785c001cf700107af700101cf70010347a001097
:10786c00200100000000202030000000a87800104b
:10787c008c0100000000302042000000147c00103d
:10788c00900000000000402018000000547b001005
:10789c00c0000000000010202000000001ffffffce
:1078ac00ffffffffffffffffffffffffffffffffdc
:1078bc00ffffffffffffffffffffffffffffffffcc
:1078cc00ffffffffffffffffffffffffffffffffbc
:1078dc00ffffffffffffffffffffffffffff01ffaa
:1078ec00ffffffffffffffffffffffffffffffff9c
:1078fc00fffffffffffffffffffffffffffffffa91
:10790c0051868783bf2f966b7fcc0148f709a5d092
:10791c003bb5c9b8899c47aebb6fb71e913864099b
:10792c0000c6858e06b70404e9cd9e3ecb66239532
:10793c00b4429c648139053fb521f828af606b4d8a
:10794c003dbaa14b5e77efe75928fe1dc127a2ff78
:10795c00a8de3348b3c1856a429bf97e7e31c2e50d
:10796c00bd66011839296a789a3bc0045c8a5fb4f9
:10797c002c7d1bd998f54449579b446817afbd170c
:10798c00273e662c97ee72995ef42640c550b901dd
:10799c003fad0761353c7086a272c24088be9476ba
:1079ac009fd1665001ffffffffffffffffffffffaf
:1079bc00ffffffffffffffffffffffffffffffffcb
:1079cc00ffffffffffffffffffffffffffffffffbb
:1079dc00ffffffffffffffffffffffffffffffffab
:1079ec00fffffffffffc0051953eb9618e1c9a1ff3
:1079fc00929a21a0b68540eea2da725b99b315f388
:107a0c00b8b489918ef109e156193951ec7e937b0a
:107a1c001652c0bd3bb1bf073573df883d2c34f126
:107a2c00ef451fd46b503f00ffffffffffffffff31
:107a3c00ffffffffffffffffffffffffffffffff4a
:107a4c00fffffffffffffffeffffffff0000000037
:107a5c0000000000ffffffffffffffffffffffff26
:107a6c00ffffffffffffffffffffffffffffffff1a
:107a7c00c7634d81f4372ddf581a0db248b0a77a81
:107a8c00ecec196accc52973aa87ca22be8b0537c0
:107a9c008eb1c71ef320ad746e1d3b628ba79b98f5
:107aac0059f741e082542a385502f25dbf55296cd2
:107abc003a545e3872760ab73617de4a96262c6f21
:107acc005d9e98bf9292dc29f8f41dbd289a147c17
:107adc00e9da3113b5f0b8c00a60b1ce1d7e819dd4
:107aec007a431d7c90ea0e5fffffffffffffffff55
:107afc00ffffffffffffffffffffffffffffffff8a
:107b0c00fffffffffffffffeffffffff0000000076
:107b1c0000000000fffffffcb3312fa7e23ee7e4bb
:107b2c00988e056be3f82d19181d9c6efe81411281
:107b3c000314088f5013875ac656398d8a2ed19d3f
:107b4c002a85c8edd3ec2aefffffffff00000001f0
:107b5c00000000000000000000000000ffffffff1d
:107b6c00ffffffffffffffffffffffff0000000015
:107b7c00ffffffffffffffffbce6faada7179e84d8
:107b8c00f3b9cac2fc6325516b17d1f2e12c424701
:107b9c00f8bce6e563a440f277037d812deb33a0be
:107bac00f4a13945d898c2964fe342e2fe1a7f9b66
:107bbc008ee7eb4a7c0f9e162bce33576b315ece85
:107bcc00cbb6406837bf51f5ffffffff0000000147
:107bdc00000000000000000000000000ffffffff9d
:107bec00fffffffffffffffc5ac635d8aa3a93e709
:107bfc00b3ebbd55769886bc651d06b0cc53b0f67c
:107c0c003bce3c3e27d2604bffffffffffffffff49
:107c1c00fffffffffffffffeffffffffffffffff69
:107c2c00ffffffffffffffffffffffff99def836af
:107c3c00146bc9b1b4d22831188da80eb03090f69f
:107c4c007cbf20eb43a18800f4ff0afd82ff1012d9
:107c5c0007192b95ffc8da78631011ed6b24cdd57d
:107c6c0073f977a11e794811ffffffffffffffff9c
:107c7c00fffffffffffffffefffffffffffffffc0c
:107c8c0064210519e59c80e70fa7e9ab7224304904
:087c9c00feb8deecc146b9b1ef
:020000040000fa
:020000041000ea
:107ca400f0b5de4657464e464546e0b585b004007d
:107cb4000d0020309022002110f088fd2000b0300b
:107cc4006022002110f082fd8a235b000022e25032
:107cd4002b689b6828009847dd4b98421bd08a226a
:107ce4005200a1184b78402003434b70a35c102131
:107cf4000b43a3544423eb5c012b18d0002b1ed060
:107d04000027022b1cd18a225200a35c04210b43be
:107d1400a354202714e08a225200a35c01210b43c0
:107d2400a354f0235b00e269e96bd150d7e78a22c0
:107d34005200a35c08210b43a354182700e010272a
:107d440023001533ff332362a36a1a0f1207042397
:107d54001a43a26223002833120e20263243da701b
:107d64002c22a35c0f218c468b430120034310215a
:107d74000b43a3542d230022e254230030336362c7
:107d8400eb692363a36b1b0f1b073b43a363220015
:107d940038321b0e3343d3703c22a35c6646b34394
:107da40003430b43a3543d23343ae25423004033aa
:107db4006363eb6a23644523eb5c5a1e93415b4285
:107dc4001322934320331b011b09a26c120f1207c9
:107dd4001343a364220048321b0e20210b43d370ab
:107de4004c22a35c0f218b4301210b4310210b4335
:107df400a3544d23243ae2542300503363646b6b41
:107e04000c3e002b18d02365ab6b1a011209a36d2d
:107e14001b0f1b071343a3655c22a35c0f218b4339
:107e240001210b43a3540132a35c08210b43a35447
:107e3400230060336365013632002b6a3701e7198a
:107e44003b6284490968994200d180e01201a2187a
:107e540011002831ab6a18010009936a1b0f1b0734
:107e6400034393621b0e20200343cb700b790f2036
:107e74008343012003430b712d32ab6a59420f2314
:107e84000b4013704623eb5c002b67d1b31c1b0122
:107e9400e3181a7901210a431a713601a619283602
:107ea40033792022134333716b6ab022a350694a99
:107eb4001068984200d1bce0b821ab6a1a011209db
:107ec40063581b0f1b07134363502200b8321b0e69
:107ed40020210b43d3704623eb5c002b00d0bbe086
:107ee4002300c033b422a3502b6b0c32a35098420e
:107ef40000d1a5e0c822a3581b0f1b0720210b4368
:107f0400a3502200c8321b0e0b43d370cc22a35cb7
:107f140020210b43a354083aa35c01210b43a3542f
:107f2400e6692b689b68280098475936ff3630620b
:107f34006a69e6235b00e169ca5020000cf05efb2d
:107f440005b03cbc90469946a246ab46f0bd3b000a
:107f54002833d97810200143d97077e70ff01af944
:107f640003689b6a984710220021039010f02efcae
:107f7400ab6b5a0f9146db000193ab6a5a0f9046e4
:107f8400db0002930399382320229246bc46ab4679
:107f94004d46a1464246b046160016e05446e41a41
:107fa4002f00a740019cdc403c4317e05446a41a30
:107fb4003700a7403c00029fd7403a002243027298
:107fc400083bdbb20131f82b10d01a000800202442
:107fd40064421c19e2d42f00e7403c0004702024c2
:107fe40064421419e2d43200e240e8e767464646a8
:107ff4004c465d46f31c1b01e3187b620136f6b266
:10800400b31c1b01039a1a513201a2181100283122
:10801400936a1b0f1b071020034393621b0e20223d
:108024001343cb700b790f229343012213430b713b
:108034002ce72200b832d37810210b43d3703be7ee
:108044002200c832d37810210b43d37052e7c046c4
:10805400bb2e60386c2a00102300c033b422a35016
:108064002b689b6828009847124b984214d0eb6bfe
:10807400c022a350104a12689a4213d0c822a358af
:108084001b0f1b0710210b43a3502200c8321b0ee9
:1080940020210b43d37039e7e369d133ff33c02286
:1080a400a350ebe72200c832d37810210b43d370de
:0c80b400e4e7c046bb2e60386c2a0010c8
:020000040000fa
:020000041000ea
:1080c000f0b5ce46474680b58fb004002b2102abf9
:1080d0009c46614400230b700df038fd051e00d155
:1080e00090e02023e35c2b2202a98c4662441178a5
:1080f0008b4261d0a4225a438218107c400604d0df
:108100004020125c3138824306d10133dbb2994200
:1081100000d181e02022a35410f00cf9070003687d
:108120009e68bf4bbf4a2821b04700286ad0202351
:108130009946e35ca4267343eb189a6801921b6886
:108140000093b94bb94aba4909900ef073fa10f08e
:10815000d3f803689b690baa099998473b68db68c9
:108160000b99380098474b46e35c5e43ae194036a6
:1081700033781b09042b00d177e00c2b42d10ff090
:108180000bf80200ab4bc0182023e15c84334b4357
:10819000eb1841331978a74bd358db6898470990ff
:1081a000002800d10ce110f013fd4001400f02281f
:1081b00000d184e0a04a04e100222023e254a36a13
:1081c0006362a262002b02d01b68002b1ad1ad2380
:1081d0009b00e269d158002919d0002500950023a1
:1081e0000122964806f0defee269ad239b00d550e1
:1081f00010f036f9002805d010f032f903681b6a38
:108200008f4998470fb00cbc90469946f0bd01319c
:108210008a4808f059fbebe700222023e254a36ac6
:108220006362a262002b02d01b68002b0ed10121d9
:10823000824808f049fb10f013f90028e2d010f052
:108240000ff903681b6a7e499847dbe72b2602abd0
:108250009c466644310020000df078fc0500202388
:10826000e25c33789a42cdd056e73b689e68754b06
:108270006c4a30213800b047061ec3d00ef08cff88
:1082800003685b6a98472023e25c84335343ed180c
:10829000ab686d4a126800210291c02109018c4629
:1082a0006044019005210091644930000cf018faf7
:1082b00010f022f803681b6931009847a2e709987b
:1082c00010f088fc037b5b0701d05b4a79e00998da
:1082d00010f080fc027b70231a4201d0564a70e0f5
:1082e000099810f077fcc37b9b0601d4524a68e0e2
:1082f000099810f06ffcc37bdb0601d54e4a60e0a5
:10830000099e300010f066fc437b202b07d0300024
:1083100010f060fc437b302b01d0474a51e00998b4
:1083200010f058fc037b5b0700d06be7099810f056
:1083300051fc027b70231a4200d063e73b689e68c1
:10834000424b384a44213800b047061e00d159e755
:10835000099f380010f03afc80460ef01dff0368bc
:108360005b6a98478146380010f034fcc3680d936f
:108370002022a15c84324a43ad18002107912a00d3
:1083800044320692aa6805922f4a12680492c022cb
:1083900012014a4403920291424610320192422253
:1083a000aa5c5207520f0092244a294930000af071
:1083b000c3fe0ff0a1ff03681b693100984721e756
:1083c000244aad239b00e169c958002923d0002528
:1083d00000950023194806f0e5fde269ad239b00f6
:1083e000d55010f03df8002805d010f039f803689a
:1083f0001b6a13499847114c04230093164b174ae4
:10840000174920000bf03efa164b174a1749200077
:108410000bf058fbf6e61100084808f055fae0e7c3
:1084200024a3727ec96dee350c694bb31b40ffde91
:1084300032cb175d38150000140000806ebb3fc8ba
:1084400044c30d3bb09f6bb26c2a00109e71583331
:10845000167d6e151200008030cd7f4d2731d81764
:10846000b857301496c4ecc38259bf603c736db8e2
:020000040000fa
:020000041000ea
:1084700010b582b00c00ca691379052b3dd010d914
:108480000b2b00d14ce126d90d2b00d1ade1f02b07
:108490002dd153790b2b00d9b2e19b00c549cb58a4
:1084a0009f46032b45d000d9ebe0002b04d1537934
:1084b000002b1ed0c04a00e0bf4a00230093e169b0
:1084c000be4806f06ffd0ff035ffe1690368db6819
:1084d000984702b010bd062b07d15379062b00d95f
:1084e00092e19b00b649cb589f46b34ae5e7b24ab2
:1084f000e3e70af03ff802007ae15379042b00d950
:108500007ae19b00af4ad3589f4606f041fb020038
:108510006ee105f081fc02006ae108f017f8020044
:1085200066e108f05ff8020062e108f0f1f802008d
:108530005ee15379072b00d960e19b00a249cb583b
:108540009f46210004f0dcfb020051e1210006f00f
:10855000dbf902004ce11288143a53425a4152426c
:108560001e239a43994b9c466244a6e71288143a0c
:1085700053425a4152421e239a43944b9c466244b2
:108580009be7210008f08afe020031e1210006f09d
:1085900027fa02002ce11288143a53425a415242ff
:1085a0001e239a43894b9c46624486e71288143afc
:1085b00053425a4152421e239a43844b9c46624482
:1085c0007be71288143a53425a4152421e239a437f
:1085d0007e4b9c46624470e71288143a53425a41db
:1085e00052421e239a43794b9c46624465e71288a7
:1085f000103a53425a4152421e239a43734b9c46af
:1086000062445ae721000af073fc0200f0e0210006
:108610000bf07cf80200ebe01288103a53425a410a
:1086200052421e239a43694b9c46624445e721000f
:108630000af0f6f80200dbe01288143a53425a417d
:1086400052421e239a43614b9c46624435e712888e
:10865000143a53425a4152421e239a435b4b9c4662
:1086600062442ae7210009f053ff0200c0e0210024
:108670000bf072f80200bbe0210009f0adff020030
:10868000b6e05379062b00d9bce09b005049cb588b
:108690009f46210003f030fe0200a9e01288203a34
:1086a00053425a4152421e239a43484b9c466244cd
:1086b00003e712881c3a53425a4152421e239a43fe
:1086c000424b9c466244f8e61288203a53425a4193
:1086d00052421e239a433d4b9c466244ede612886b
:1086e000143a53425a4152421e239a43374b9c46f6
:1086f0006244e2e61288143a53425a4152421e231f
:108700009a43324b9c466244d7e61288203a534241
:108710005a4152421e239a432c4b9c466244cce65b
:108720005379012b0bd0002b05d0022b0bd0032b40
:1087300014d0214ac1e605f0f3fa020058e005f032
:10874000e5fb020054e01288183a53425a41524263
:108750001e239a431d4b9c466244aee61288183a8b
:1087600053425a4152421e239a43184b9c4662443c
:10877000a3e6210005f034fd020039e0210004f0f9
:1087800067fb020034e01288183a53425a415242c1
:108790001e239a430d4b9c4662448ee61288203a73
:1087a00053425a4152421e239a43084b9c4662440c
:1087b00083e6c0469cf20010020000803c736db856
:1087c000ccf20010e8f20010fcf200102100008052
:1087d0001cf300101288203a53425a4152421e2381
:1087e0009a430a4b9c46624467e603f0e1fb0200b1
:1087f000012a00d16de660e6054a5ee6044a5ce6c1
:10880000034a5ae6024a58e6014a56e62100008029
:0488100002000080e2
:020000040000fa
:020000041000ea
:10881400000000000000000055e70010e17d011099
:10882400d58a0110652701106d5501109955011065
:108834005c52aa4c583efa5a1400000044880010b6
:10884400583efa5a0100000001000000748b001029
:108854007c8b0010db14592300000000030000008f
:10886400000000005c8b0010db75aad8000000003b
:1088740006000000000000002c8b0010861d575dd0
:10888400000000000200000000000000fc8a00104c
:10889400423357fb00000000040000000000000009
:1088a400dc8a0010b50d7aed000000000200000023
:1088b40000000000ac8a0010c9ba01ff00000000eb
:1088c40002000000000000009c8a00109c19d07a6d
:1088d4000000000006000000000000006c8a001088
:1088e400c0362d8b000000000500000000000000d1
:1088f400448a001011b819fe0000000003000000b3
:10890400000000002c8a001096122ad900000000f2
:1089140002000000000000001c8a0010bb7c4a8397
:108924000000000002000000000000000c8a00109b
:10893400d017edff0000000002000000000000005e
:10894400fc890010ebeb9ef3000000000200000025
:1089540000000000ec890010ae6e5f930000000080
:108964000200000000000000dc890010f27d06b166
:10897400000000000100000000000000d489001085
:108984003c404973000000000200000000000000a9
:108994001c8b0010a4b2ebe60000000002000000f3
:1089a400000000000c8b00105586c05f0000000022
:1089b4000200000000000000cc8a0010792765ee58
:1089c400000000000200000000000000bc8a00104b
:1089d4004c357eb5583efa5a181722dc9c19d07ac9
:1089e4004c357eb5583efa5a6f81b237ae6e5f93fe
:1089f4004c357eb5583efa5a6f81b237ebeb9ef395
:108a04004c357eb5583efa5a98e0bb5bd017edff63
:108a14004c357eb5583efa5ac58fe8d2bb7c4a83a2
:108a24004c357eb5583efa5ac58fe8d296122ad9eb
:108a340098e0bb5bd017edff4c357eb5583efa5a33
:108a4400fa52426811b819fec58fe8d296122ad993
:108a540098e0bb5bd017edff98e0bb5bebeb9ef3bc
:108a64004c357eb5583efa5a5582c29ac0362d8b83
:108a7400fa52426811b819fec58fe8d296122ad963
:108a840098e0bb5bd017edff98e0bb5bebeb9ef38c
:108a94004c357eb5583efa5a39da30999c19d07a59
:108aa4004c357eb5583efa5aeafe39d5c9ba01ffab
:108ab4004c357eb5583efa5afa524268b50d7aedf5
:108ac4004c357eb5583efa5afa524268792765ee1b
:108ad4004c357eb5583efa5a48daf2df5586c05f07
:108ae40074ced0aa792765ee39da30999c19d07af8
:108af4004c357eb5583efa5aeafe39d5423357fb17
:108b04004c357eb5583efa5ac58fe8d2861d575d5e
:108b14004c357eb5583efa5ac58fe8d2a4b2ebe67e
:108b24004c357eb5583efa5af59f3ba13c404973fb
:108b3400211f9479a4b2ebe648daf2df5586c05fd0
:108b4400fa524268792765ee39da30999c19d07a5d
:108b54004c357eb5583efa5aeafe39d5db75aad8ab
:108b640039da30999c19d07a4c357eb5583efa5a88
:108b7400f73897cbf27d06b12b88fa75db145923ad
:020000040000fa
:020000041000ea
:108b840030b5cb785b075b0fd8b2052800d971e10b
:108b94009b00b948c3589f4688891030830700d189
:108ba40067e103239843043063e10b7b5b075b0fae
:108bb400dcb2012c78d05bb2002b15d01020032c32
:108bc40000d956e10b7b9b069b0fd8b2012876d0c7
:108bd4005bb2002b00d15be1023843425841404272
:108be40018231840103044e10b7b9b069b0fd8b22e
:108bf400012811d05bb2002b10d00238444244410a
:108c040064014b7b1b071b0fd8b2082800d93be13a
:108c14009b009a48c3589f461824f2e71024f0e7b3
:108c24002000103025e1200010304d7b0f232b4015
:108c3400052b0bd08b7b5b071fd5002a08d1103086
:108c44008b7b9b0700d414e1103012e10019f1e78b
:108c54004b7bdb0603d54b7b5b0600d510308b7b4f
:108c64009b0700d405e14b7b9b0600d401e14b7bc1
:108c7400db0900d1fde01030fbe08b7b9b0700d4c7
:108c8400f7e0002ae0d0eee710348b7b70221a4222
:108c940004d05b065b0f01335b00e418c87b40071c
:108ca400400f07300019e4e0087b000900d1ede033
:108cb400022383428041313398434430d9e04b7bd3
:108cc4005b0700d4e6e0002a00d1e5e04b7bdb073c
:108cd40000d4e3e0487b8007c00f43425841404240
:108ce400072398433030c4e00b7b5b075b0fdab299
:108cf400012a65d05bb2002b1cd0022a00d18ae085
:108d04001020032a00d0b4e0887b0007800e041de5
:108d14004b7b5b06db0ddbb2043314305a00801846
:108d2400ca7b520600d50019ca7b920600d4a0e083
:108d3400c0189ee04a7b0b7b5b065b0fd8b204280d
:108d440000d9ade09b004e48c3589f46cb7b102012
:108d5400db0603d55000801840001030cb7b5b0647
:108d640000d58018cb7b9b0600d482e0520080188b
:108d74007fe0900080181030cb7b5b0600d5801814
:108d8400cb7b9b0675d55200801872e0cb7b1020fc
:108d94005b0601d510001030cb7b9b0669d55200d1
:108da400801866e0c87b4006c00f434258414042e9
:108db4001f2398433030cb7b9b065ad5203058e094
:108dc4000a7b9206920fd3b2012b1ad052b2002a18
:108dd4001ad0023b5a4253415b0218001030ca7b3e
:108de400920605d5ca7bc018d20601d518001430e6
:108df400ca7b52063dd5ca7b7f2a07d85b00c018c0
:108e040037e080235b00e8e78023e6e75a005b084d
:108e1400d318c0182de04b7b5b06db0d0433dbb2ab
:108e2400ca7bd2060ad518001430ca7b920600d534
:108e3400c018ca7b52061cd5c0181ae0580010305e
:108e4400f3e70b7bdb06db0edab2102a2ad89b0091
:108e54000c4ad3589f4620200be0242009e02c2004
:108e640007e0302005e0402003e0502001e088893d
:108e7400103030bd1020fce708ee001020ee00108a
:108e840044ee001058ee00101020f2e74020f0e706
:108e94002820eee72820ece73020eae72820e8e75e
:088ea4001020e6e71020e4e7ce
:020000040000fa
:020000041000ea
:108eac00f0b5de4657464e464546e0b587b0050060
:108ebc008b464b6bdb080493dbb29946022b12d822
:108ecc00c269e6235b00d15800230093aa4bab4a3e
:108edc00ab480af0d1fc002007b03cbc9046994648
:108eec00a246ab46f0bd2023984680449022002138
:108efc0040460ff067fcb0239a46aa44602200213a
:108f0c0050460ff05ffc8a2252000023ab50012325
:108f1c00ab542a001532ff32537039235a46d35cb6
:108f2c00012b00d1b5e0002b00d1c4e0022b00d105
:108f3c00b8e000239c465b461e6a4b465b004b44e4
:108f4c005b00063bdbb202932a001532ff322a6229
:108f5c00aa6a130f1b0704221343ab622a002832a0
:108f6c00190e20231943d1702c27ea5d0f24a2433c
:108f7c0001210a4310200243ea552a0030326a626a
:108f8c005a46926a2a63aa6b170f3f076246174329
:108f9c00af632a0038323f0e1f43d7703c27ea5d7f
:108fac00a2430a431043e8552a0040326a632e64f8
:108fbc00aa6c170f3f0708200743af642a004832fa
:108fcc003f0e1f43d7704c27ea5da2430a43ea5574
:108fdc002a0050326a6408229446b44462460592d0
:108fec002a65af6d3f0f3f070743af652a00583224
:108ffc003f0e1f43d7705c22aa5ca2434534a446a3
:10900c002c5d0c436746ec550a431a435c242a55e5
:10901c00b022ae500832af583c0f24070443ac507a
:10902c002f00b837240e1c43fc700837b4242f5182
:10903c00c022059cac500832ac58240f24072043a6
:10904c00a8502a00c832000e1843d070c422a85c65
:10905c000143a954cc216a5c13436b54494b1a68e5
:10906c00414611601c6852462261032363633c3302
:10907c00236303229246029b002b3cd01f00ff234c
:10908c00049a1340013b02934b46013bdbb2039322
:10909c001de08a225200ab5c08210b43ab54182311
:1090ac009c4648e78a225200ab5c04210b43ab542c
:1090bc0020239c463fe710239c463ce7e36bda07f2
:1090cc00fcd49b07fad4013ffbb2002b13d00299be
:1090dc00380007f039ffc9b2f3797b40f3710029ee
:1090ec0000d10399c90071182965c023e950534672
:1090fc00a363e36be3e732687168234b1c005440b5
:10910c0018004840044360424441e4b29a4208d0fb
:10911c005b4659690094184b184a19480af0acfb85
:10912c00d9e69942f4d15b46586a184b1b688342c6
:10913c000ed05b461b6a8342ead0ff22049b1a4086
:10914c00134b9c466244d20005990ff04ffbdfe7ae
:10915c00ff21049b194049000229d9d9022302227c
:10916c000a4d059e28689200925902600133dbb2c9
:10917c001a008b42f6d3cbe7c2b7e9cc9c68577484
:10918c00eaebf924882a0010a6a6a6a66c2a0010e1
:04919c00ffffff1fb3
:020000040000fa
:020000041000ea
:1091a000f8b5de4657464e464546e0b504000d008c
:1091b0003823cb5c9b46c6690b689b6808009847c0
:1091c0005936ff363062e6235b00e2696969d150a7
:1091d000bc3b0022e2505b46062b00d9d7e09b0047
:1091e000a84ad3589f4688225200a35c01210b4312
:1091f000a3540023984626002836882200213000f8
:109200000ff0e6fa2000b030602200210ff0e0fa03
:1092100023001133ff332362a36a1b0f1b070422b1
:109220001343a3621b0e20210b43f3702832a35c6f
:109230000f26b343032003431027bc4667463b4336
:10924000a354230030336362eb6923632b6a1a0152
:109250001209a36b1b0f1b071343a36322003832b1
:109260001b0e0b43d3703c22a35cb343034340214a
:109270000b43a3542300403363636b6a2364824b24
:109280001b686a6a934200d184e022004832d37896
:1092900020200343d370ab6a19010909a36c1a0f8c
:1092a00012070a43a2644c26a35d0f229343442174
:1092b000625c0127bc4667463a436254032213436b
:1092c0000343a3553923eb5c002b6ad1b023ea6a30
:1092d000e2506d4b1b68ea6a934200d1bce039232f
:1092e000eb5c002b00d0bee00df0e0fc03681b6ad5
:1092f00059469847b82200010309a158080f0007f2
:109300001843a0502300b833da7820210a43da70da
:10931000bc22a35c0b43a354083aa35c01210b437a
:10932000a35420000bf06cf93cbc90469946a24631
:10933000ab46f8bd88225200a35c02210b43a35424
:109340000023984657e788225200a35c04210b4370
:10935000a354092398464ee788225200a35c0821b3
:109360000b43a3540923984645e788225200a35c87
:1093700010210b43a354112398463ce78822520046
:10938000a35c20210b43a3541123984633e7002309
:10939000984630e722004832d37810210b43d3702f
:1093a00073e7230050336364fe221340ba3aa35498
:1093b0000832a35c24398b43a3540df0edfe0368ff
:1093c0005b6a984782468026f60056440df06efc94
:1093d00003689b6a59469847814642000021300045
:1093e0000ff0f6f94b46aa6a9b1a984500d94b44f0
:1093f0008022d200802150468154686bc100f2184f
:10940000571f400f3870101f0f0e0770d01e0f0c23
:109410000770901e0f0a0770013a11702665200030
:109420005830c27820210a43c2701b011b09a26d6b
:10943000120f12071343a3655c20235c0f22934392
:109440005426a25d0127bc4667463a43a255032233
:1094500013430b43235439e72200b832d378102149
:109460000b43d3703be70df021fc03685b6a594660
:109470009847b82200010309a158080f00071843b4
:0c948000a0503fe7bc3401106c2a001023
:020000040000fa
:020000041000ea
:10948c0070b505000c000b689b6808009847984b5a
:10949c00984200d1e6e045d8964b984200d104e1c1
:1094ac0012d9954b984200d18ae02ed8934b984212
:1094bc0000d18be0924b984200d198e0914b9842ae
:1094cc0000d1dbe0002054e08f4b984200d1f2e059
:1094dc000dd98e4b984200d1a8e08d4b984200d10b
:1094ec0068e08c4b984200d19ae0002041e08a4b16
:1094fc00984200d1bce0894b984200d1e5e0884b02
:10950c00984200d1c5e0002033e0864b984200d150
:10951c00a8e0854b98425fd0844b984200d18ae0fa
:10952c00002026e0824b984200d16ce027d8814b7a
:10953c00984262d00bd9804b984200d1afe07f4b60
:10954c00984217d1280008f09ff8002011e07c4bbe
:10955c00984200d175e07b4b984205d12100280040
:10956c000af05cff002004e0774b984200d16ee0db
:10957c00002070bd754b98426fd00020f9e7744bfa
:10958c0098422fd00bd8734b984242d0724b9842d2
:10959c0000d195e0714b984276d00020e9e7704bf2
:1095ac00984265d06f4b984257d06f4b98424ed033
:1095bc000020dee72100280004f082f80020d8e724
:1095cc002100280005f04ef80020d2e721002800e9
:1095dc0007f0f2fb0020cce72100280008f05afb32
:1095ec000020c6e721002800fdf748fec1e7210056
:1095fc00280008f021ff0020bbe72100280008f01c
:10960c00fbf80020b5e72100280008f031f9002014
:10961c00afe7ea69216aad239b00d1500020a8e78f
:10962c00210028000ff019f90020a2e7280007f00c
:10963c00ebfd00209de72100280001f067f80020d9
:10964c0097e72100280002f0f9f8002091e72100ab
:10965c00280002f0edf900208be728000cf016f83a
:10966c00002086e72100280003f034f9002080e771
:10967c002100280009f0b4fc00207ae72100280022
:10968c0000f00eff002074e7280008f02df90020f0
:10969c006fe72100280003f0bbfd002069e72100e3
:1096ac00280003f051fe002063e72100280003f09e
:1096bc005df800205de7280005f048fe002058e723
:1096cc00280008f04df9002053e7ad239b00ea6910
:1096dc00d3581a790020052a00d04ae75b79042b6d
:1096ec0000d046e7280006f063fc002041e7c046a6
:1096fc00615c5d7302e134350539375693647850fb
:10970c0049fc4351e9ba983cce311d0e66beda23b2
:10971c0055aff1282fe7eb1a6a59070889817b0da1
:10972c00c6358b01a5057066de1267696114145984
:10973c002315d4ca110650b941596bbe94cdd6c06d
:10974c00e13edda0881e8da1c62e81926a46f7bb34
:10975c00a09a52e7f73897cbe2a9e9d81ebd48cbbf
:0c976c00820f7ae9a27a9cf11eab00e9a2
:020000040000fa
:020000041000ea
:10977800f8b5ce46474680b504000d00203090224b
:1097880000210ff021f82000b030602200210ff0f6
:109798001bf88a235b000022e2502b689b68280094
:1097a8009847a94b984218d03823eb5c012b23d05b
:1097b800002b19d0022b2dd03923eb5c012b37d08d
:1097c800002b3dd00027022b3bd18a225200a35cfc
:1097d80004210b43a354202733e08a225200a35cc0
:1097e80001210b43a354dfe722001532ff325378df
:1097f80001210b435370dfe78a225200a1184b78ee
:10980800022003434b70a35c10210b4320210b4320
:10981800a354d1e78a225200a1184b7804200343ad
:109828004b70a35c10210b4320210b43a354c3e7c7
:109838008a225200a35c08210b43a354182700e096
:10984800102723001533ff332362a36a1a0f120768
:1098580004231a43a26223002833120e202632431f
:10986800da702c22a35c0f218c468b430120034322
:1098780010210b43a3542d230022e254230030333c
:109888006362ab6a2363a36b1b0f1b073b43a36392
:10989800220038321b0e3343d3703c22a35c664649
:1098a800b34303430b43a3543d23343ae254230008
:1098b80040336363ea6a0223002a21d02264634b9f
:1098c8001b68934200d1a3e0a36c1b0f1b07102257
:1098d8001343a364220048321b0e20210b43d3708c
:1098e8004c22a35c0f218b4301210b4310210b4316
:1098f800a3544d23243ae2542300503363640323d2
:109908001900286a9a1c12011051504a12688242a2
:1099180000d183e00e01a619300028306b6b1f01bf
:109928003f09b36a1b0f1b073b43b3621b0e20277b
:10993800b9464f463b43c37003790f27bb43012702
:10994800bc4667463b4303712d366b6b5b429846ba
:109958000f2347463b4033708b1c1b01e3181979d2
:1099680066463143197103794f461f4307716b6a85
:10997800b02163509a4259d0b8206b6b190109097c
:1099880023581b0f1b070b4323502100b8311b0e14
:1099980020200343cb700023296b002916d0230015
:1099a800c033b42163502b6b0c3163509a4244d0be
:1099b800c822a3581b0f1b0710210b43a3502200da
:1099c800c8321b0e20210b43d37001231a01a218a1
:1099d800b83211792020014311710b331b01e318b0
:1099e8001a7901210a431a71e6692b689b682800d5
:1099f80098475936ff3630626a69e6235b00e169a9
:109a0800ca5020000af0f8fd0cbc90469946f8bdf3
:109a180022004832d3780b43d37055e71b01e31873
:109a28002833d87810263043d87073e72100b8312e
:109a3800cb7810200343cb709ee72200c832d3783e
:109a480010210b43d370b3e7035744f76c2a001077
:020000040000fa
:020000041000ea
:109a5800f0b5de4657464e464546e0b589b00500a6
:109a68008a464b6bdb080393dbb29946022b12d86c
:109a7800c269e6235b00d15800230093a14ba24a98
:109a8800a24809f0fbfe002009b03cbc904699466c
:109a9800a246ab46f0bd20239c468444634602930d
:109aa8009022002160460ef08ffeb0239c46ac4405
:109ab800634604936022002160460ef085fe8a23e7
:109ac8005b000022ea502b001533ff3301325a7035
:109ad80039235246d35c012b0cd0002b12d0002422
:109ae800022b10d18a225200ab5c04210b43ab54e9
:109af800202408e08a225200ab5c08210b43ab54b7
:109b0800182400e0102453465f6a079708239846f4
:109b1800b84453465a6b083a196a40460ef068fe34
:109b28004b465b004b445b00063bdbb29b46784ae6
:109b3800774b3a607b602b001533ff332b62ab6a9f
:109b48001b0f1b0704221a43aa6229002831120e90
:109b580020231a43ca702c229446aa5c0f20824301
:109b680001210a43102632436646aa552a0030329c
:109b78006a625246926a2a63aa6b120f120714434a
:109b8800ac632a003832240e1c43d4703c242a5d6e
:109b980082430a431c3e16432e552a0040326a630c
:109ba8002f64aa6c160f3607343c2643ae642a008d
:109bb8004832360e1e43d6704c26aa5d82430a43ad
:109bc800aa552a0050326a6442462a65aa6d160fc1
:109bd80036072643ae652a005832360e1e43d67025
:109be8005c26aa5d8243059245308446285c08437a
:109bf8006246a854059a0a431a43aa55b022af50a0
:109c08000832a858000f00072043a8502a00b8328d
:109c1800000e1843d0700832b4202a50c0224046a3
:109c2800a8500832a858000f00070443ac502a0077
:109c3800c832240e1c43d470c4202a5c1143295412
:109c4800cc216a5c13436b54324b1a680299116039
:109c58001c68049b2361032363633c3323635b46d3
:109c6800002b29d05b3eff23039a1340013b02934c
:109c7800a8460be0e36bda07fcd49b07fad4fb7920
:109c88005d40fd710136f3b29b4515d3f5b20299db
:109c9800300007f05bf9c9b2002902d14b46591ec2
:109ca800c9b2c900791843461965c0234246d15044
:109cb800bd3ba363e36bdee7174b1b685246526a52
:109cc800934209d053465969012300930d4b0e4a1c
:109cd8000e4809f0d3fdd6e6ff20039b184040004c
:109ce800f0d0002200230c4c21689b0008adac4644
:109cf8006344043b1b680b600132d2b213008242fa
:109d0800f2d3dfe7c2b7e9cc53fb18f2eaebf92448
:0c9d1800a6a6a6a6882a00106c2a00103f
:020000040000fa
:020000041000ea
:109d2400f0b593b0040090490df082f88f490b0010
:109d340008332360250020352031280008f0aafece
:109d440058239c46a44463462100009360460bf0cc
:109d5400e7fe2700803738000df0baf926009c365c
:109d6400210030000cf0d4fdbc218c46a444614693
:109d7400019160460df02ef9d8208446a444604633
:109d840002900df0eff8f4239c46a4446346039339
:109d940060460df0aff8882149008c46a444614622
:109da400049160460df008f9962040008446a444ce
:109db4006046210005900cf08bfda6235b009c46b9
:109dc400a4446346069360460df090f9b42149001b
:109dd4008c46a4446146079160460df0cdf9c2203b
:109de40040008446a444604608900df0e1f9d02375
:109df4005b009c46a44463462100099360460cf032
:109e0400a7fde02149008c46a44461460a916046be
:109e14000df09af8ee2040008446a44460462100e8
:109e24000b900cf0d5fdfe235b009c46a4446346d6
:109e340021000c9360460bf0e1ff882189008c46d9
:109e4400a444604621000d900bf02efe9121890060
:109e54008c46a44461460e9160460df0d7f89820d4
:109e640080008446a44460460f900df051f89f236f
:109e74009b009c46a4446346109360460df0b8f8da
:109e8400a62189008c46a4446146119160460df0d8
:109e94004df8ad239b000022e250009a344928007b
:109ea4000bf0b9fb3a00334928000bf0b4fb320045
:109eb400314928000bf0affb019a304928000bf020
:109ec400aafb029a2e4928000bf0a5fb039a2d4900
:109ed40028000bf0a0fb049a2b4928000bf09bfbf5
:109ee400059a2a4928000bf096fb069a284928006f
:109ef4000bf091fb089a274928000bf08cfb079a7a
:109f0400254928000bf087fb099a244928000bf007
:109f140082fb0a9a224928000bf07dfb0b9a214907
:109f240028000bf078fb0c9a1f4928000bf073fbf8
:109f34000d9a1e4928000bf06efb0e9a1c4928004e
:109f44000bf069fb0f9a1b4928000bf064fb109a75
:109f5400194928000bf05ffb119a184928000bf0ef
:109f64005afb200013b0f0bd85c5ce4b14880010f9
:109f7400583efa5adb145923db75aad8861d575d5f
:109f8400423357fbb50d7aedc9ba01ff9c19d07a5b
:109f9400c0362d8b96122ad911b819fed017edffb1
:109fa400bb7c4a83ebeb9ef3ae6e5f93f27d06b10e
:109fb4003c404973a4b2ebe65586c05f792765ee51
:020000040000fa
:020000041000ea
:109fc400f0b583b00500854b1b689a6adb6b844b44
:109fd4001b689a6ada6b834a12689168926a5b6baf
:109fe400c669e4235b00f458002c2ad00ef0a0f9d3
:109ff4000600a379062b22d89b007b4ad3589f46a0
:10a00400102300e014230093012301222100774848
:10a0140004f0c6ff3368db68210030009847ea6922
:10a02400e4235b000021d150714803b0f0bd182334
:10a03400e9e72023e7e73023e5e74023e3e70023cc
:10a04400e1e733005933ff331b6a6a4a93426fd006
:10a054001bd9694a934200d1bde032d9674a934281
:10a0640054d0674a93421bd1e62464003159654bae
:10a07400654a5e4809f024fd0022eb691a51eb6938
:10a084005933ff331a625a48cfe7604a93422cd0bf
:10a094005f4a934200d18be05e4a934200d198e03c
:10a0a400e62464003159574b5b4a504809f008fdd7
:10a0b4000022eb691a51eb695933ff331a624c4899
:10a0c400b3e7564a9342ebd1e624640031594d4b31
:10a0d400534a464809f0f4fc0022eb691a51eb6933
:10a0e4005933ff331a6242489fe7e624640031592a
:10a0f400444b4c4a3d4809f0e3fc0022eb691a51f9
:10a10400eb695933ff331a6239488ee7e6277f003b
:10a11400f159002400943b4b434a344809f0b0fb06
:10a12400eb69dc51eb695933ff331c6230487ce73f
:10a13400f0235b00f1583d4b1b688b421ad0300072
:10a14400d130ff3010220df04ff843425841c0b2d5
:10a15400e6246400315900902a4b354a234809f01b
:10a164008ffb0022eb691a51eb695933ff331a62f2
:10a174001f485ae71b68e8225200b258934211d193
:10a18400ea225200b2589a420ed1ec225200b2583e
:10a1940093420bd1ee225200b058c01a43425841a8
:10a1a400c0b2d5e70020d3e70020d1e70020cfe7f5
:10a1b400e62464003159134b1e4a0c4809f080fc14
:10a1c4000022eb691a51eb695933ff331a620848cc
:10a1d4002be7194829e7184827e7c046882a0010c2
:10a1e400702a0010742a001048420110eaebf92486
:10a1f400fa3108afbb2e6038faee14ed03b880ede7
:10a20400035744f726a926146a46f7bb9bdf001ab6
:10a21400cf2f1125167d6e1589817b0d5b96c8970e
:10a22400e2a9e9d8a27a9cf16a5907086c2a0010bd
:0ca23400820f7ae9ce311d0ea40691dee7
:020000040000fa
:020000041000ea
:10a240005c570110485701104c570110505701102e
:10a25000505701105457011054570110585701100e
:10a260005857011058570110585701105c570110ea
:10a270004c570110505701105057011054570110fe
:10a2800054570110585701105857011058570110d2
:10a2900058570110d0520110b8520110bc52011091
:10a2a000c0520110c4520110c8520110cc5201100a
:10a2b000c0520110c4520110c8520110cc520110fa
:10a2c000d0520110bc520110c0520110c4520110f2
:10a2d000c8520110cc520110c0520110c4520110da
:10a2e000c8520110cc520110fc520110e45201106e
:10a2f000e4520110e4520110e4520110e85201103e
:10a30000e8520110ec520110f0520110f452011009
:10a31000f8520110fc520110e4520110e4520110f5
:10a32000e4520110e8520110e8520110ec52011001
:10a33000f0520110f4520110f8520110c23c011009
:10a34000a03c0110a63c0110aa3c0110b03c011039
:10a35000b63c0110bc3c0110bc3c0110bc3c0110df
:10a36000bc3c0110bc3c0110c23c0110a63c0110d9
:10a37000aa3c0110b03c0110b63c0110bc3c0110dd
:10a38000bc3c0110bc3c0110bc3c0110bc3c0110a9
:10a390000123456789abcdeffedcba9876543210c5
:10a3a000f0e1d2c3d89e05c107d57c3617dd7030e9
:10a3b00039590ef7310bc0ff11155868a78ff96492
:10a3c000a44ffabe67e6096a85ae67bb72f36e3cbe
:10a3d0003af54fa57f520e518c68059babd9831f70
:10a3e00019cde05b5d9dbbcbd89e05c12a299a6241
:10a3f00007d57c365a01599117dd7030d8ec2f15ee
:10a4000039590ef767263367310bc0ff874ab48e80
:10a41000111558680d2e0cdba78ff9641d48b54740
:10a42000a44ffabe67e6096a08c9bcf385ae67bbec
:10a430003ba7ca8472f36e3c2bf894fe3af54fa505
:10a44000f1361d5f7f520e51d182e6ad8c68059bbf
:10a450001f6c3e2babd9831f6bbd41fb19cde05b5d
:10a4600079217e1367452301efcdab8998badcfed5
:10a470001032547600000000000000006557011003
:10a48000057d0110998a01109f8a0110a58a01108b
:10a49000bd5901102f480110293201103d570110fc
:0ca4a000ad520110d9520110953c011082
:020000040000fa
:020000041000ea
:10a4ac00f0b5de4657464e464546e0b585b005004c
:10a4bc000c000cf06bfe0600ad239b00ea69e16a10
:10a4cc00d1503123e15c002912d1676a3023e15c61
:10a4dc00002921d0814bf358db68804ab01898478b
:10a4ec00002836d00ef06cfb0c239946814415e005
:10a4fc007a4bc358db68794a80189847002804d0f7
:10a50c000ef05efb0c300700e0e7e8690023002248
:10a51c00734909f0f9fd15e0236a99463223e15c91
:10a52c00002900d178e06d4b9a46b244f358db68b1
:10a53c0050469847002813d0e86900230022694947
:10a54c0009f0e2fd05b03cbc90469946a246ab46ec
:10a55c00f0bde86900230022614909f0d5fdf1e75f
:10a56c000df0e2fe834603689b6898465e4b5f4a9b
:10a57c002421c047031e03903bd079782962103107
:10a58c005b461b689b689846594b5a4a5846c047cd
:10a59c008046002833d0ad239b00ea69d3589b46f4
:10a5ac002a6a00210ef00ef9002342461360536014
:10a5bc009360d3605b469b7c93703223e35c137097
:10a5cc0001235b4293602b6a9381296a10311368d3
:10a5dc00039c20000bf032fc404bf3585b692100cc
:10a5ec005046984710239c46e0440df09dfe060013
:10a5fc0020e0e8690022404909f086fda2e75b46ad
:10a60c001b68db68039958469847e86900230022c9
:10a61c00394909f079fd95e70cf0b8fd03685b6ae0
:10a62c0098478023db00984680440df07dfe0600a1
:10a63c00002f1ed04b46002b2dd033689c68002376
:10a64c002e4a28213000a047041e35d00df04efeb6
:10a65c0006007b782b62434600933b004a46284910
:10a66c0020000af0b7fe33681b69210030009847c0
:10a67c0068e7002300222349e86909f045fdad2471
:10a68c00a400eb6919593368db6830009847eb6913
:10a69c0000221a5156e700221b49e86909f034fde3
:10a6ac00ad24a400eb6919593368db683000984776
:10a6bc00eb6900221a5145e7002300220e49e86994
:10a6cc0009f022fdad24a400eb6919593368db684d
:10a6dc0030009847eb6900221a5133e73815000017
:10a6ec001200008011000080c748a7c0b09c0197e1
:10a6fc007cd18fd931b7ab5123000080c96dee35b9
:0ca70c006ebb3fc80400008030000080dd
:020000040000fa
:020000041000ea
:10a71800f0b5de4657464e464546e0b58db00600d4
:10a72800ad239b000a6ac169ca50c269d3589946c9
:10a738000cf02efd04004b46db795b0745d54b46f4
:10a74800597c002941d07d4bc358db687b4a80186f
:10a758009847051e0cd00ef037fa4001400f02282a
:10a768000dd0f06900230022754909f0cffcb5e04f
:10a77800f06900230022734909f0c8fcaee0280004
:10a788000ef024fa037b5b0706d0f0690023002251
:10a798006b4909f0bbfca1e028000ef017fa037b17
:10a7a80070221a4206d0f06900230022644909f099
:10a7b800adfc93e028000ef005fac3680a93280060
:10a7c8000ef000fa1030050007e023685b6a2000ed
:10a7d8009847c3680a93103005000df0a7fd0700dd
:10a7e8000aab1b785b0700d08be00aab1b785b06d3
:10a7f8005b0f00d079e00aabdb78db0607d50aab44
:10a8080058784300c0184000c0b2099502e0002003
:10a81800002309930aabdb789b0601d50230c0b24e
:10a828002d183b689b689846474b484a4421380096
:10a83800c0470890002800d179e04b46db79002614
:10a848005b0615d50aab5b789f089b0765d0013777
:10a8580023685b6a2000984780231b01c6180023e1
:10a868003b48026811689a00b1500133bb42f8d3e3
:10a878004b469b795b075b0f9846354b1b689a469e
:10a888004b465b699b4623685b6a20009847814674
:10a8980023685b6a200098470a9b0b9307968023de
:10a8a8001b014b4406935b46059353460493802350
:10a8b800db009c4660440390099b02930195434644
:10a8c80000930a9b234a2449089c200008f030fc86
:10a8d8000df00efd03681b69210098470db03cbcc4
:10a8e80090469946a246ab46f0bdf0690023002287
:10a8f800134909f00bfc3b68db6849463800984768
:10a90800ece7f069002300220d4909f0fffb3b68e2
:10a91800db68494638009847e0e723685b6a20000f
:10a92800984780231b01c618002f98d1a0e7f0692b
:10a9380000230022094909f0e9fbcfe73815000098
:10a94800140000801200008071c26e78c96dee3567
:10a958006c2a00106ebb3fc8faee14ed230000808d
:020000040000fa
:020000041000ea
:10a96800f0b583b00df0e2fc04000df0c1fc050069
:10a97800814b1b681e680196730700d471e0002c98
:10a9880000d16ee0002800d16be023689f687b4b04
:10a998007b4a20212000b847071e08d002227949a7
:10a9a8000cf0e2f92b685b6939002800984701ab85
:10a9b8005b785b065dd401ab5b78db0900d1a0e076
:10a9c80023689f68704b6e4a20212000b847071ef5
:10a9d80008d009226d490cf0c7f92b685b6939006a
:10a9e8002800984701ab9b78db0700d591e001abc5
:10a9f8009b789b075ed401ab9b785b0700d4afe0e4
:10aa0800002c29d0002d27d023689f68604b5c4a12
:10aa180020212000b847071e08d00c225d490cf001
:10aa2800a3f92b685b6939002800984701ab9b782c
:10aa38001b0711d523689f68574b514a20212000d6
:10aa4800b847041e08d00d2252490cf08df92b6826
:10aa58005b69210028009847474b1b689e6103b03b
:10aa6800f0bd01ab5b785b0642d5002c40d0002dd1
:10aa78003ed023689f68494b414a20212000b847af
:10aa8800071e08d0082241490cf06ef92b685b6953
:10aa980039002800984701ab5b78db0900d08fe7c5
:10aaa80001ab9b78db0732d401ab9b789b07a2d51f
:10aab800002c50d0002d48d023689f68384b304a6e
:10aac80020212000b847071e08d00b2231490cf07e
:10aad8004bf92b685b6939002800984701ab9b78d4
:10aae8005b0700d590e701ab9b781b0740d4b3e721
:10aaf80001ab5b78db0904d0002c02d0002d00d01c
:10ab08005ee701ab9b78db07ced5002c23d0002d68
:10ab18001bd023689f68234b194a20212000b8477f
:10ab2800071e08d00a221b490cf01ef92b685b6926
:10ab380039002800984701ab9b789b07bcd401ab30
:10ab48009b785b0700d55de70ae001ab9b785b0764
:10ab580000d581e704e001ab9b785b0700d57be774
:10ab680001ab9b781b0700d476e7002c00d173e774
:10ab7800002d00d05ee76fe7642a0010ebafe5ca4e
:10ab8800c96dee3532cb175d485c75011143369fb0
:10ab9800c33cbc22eaebf92432bee2caded18445ca
:08aba80042d188387164d568c0
:020000040000fa
:020000041000ea
:10abb000f0b5de4657464e464546e0b589b005003d
:10abc00088460af0b5fb4346196a0a6807921004e2
:10abd000000ec6b2d200d20f00d0b0e0202e00d1bd
:10abe000dfe009d9302e00d1e0e0422e20d1714fb4
:10abf0001037714b9a461ee0182e15d12224731e71
:10ac0000dbb21b021c4380235b051c43db001c439f
:10ac1000684b9b6a1c43002a00d0a6e0654f203792
:10ac2000664b9a46012313e0002700239a4602e070
:10ac3000002700239a462224731edbb21b021c430a
:10ac400080235b051c43db001c43bb681c430123c2
:10ac500004aad27b920602d540001b18dbb29b00ef
:10ac6000ca1803924146c96989469944bb7a1b09af
:10ac70001b05534a14401c432100280004f038fdf2
:10ac8000e400e40fe1b28b467b680122019200915f
:10ac900032005146280006f0e1fe5946002969d0ed
:10aca0000096039b32000621280008f0a5fe0096be
:10acb0004b4632000821280008f09efe4b469b19a7
:10acc000009632000921280008f096fe3d4f3b68af
:10acd0003d4a1a603d483e4b3e4a010008f0f2fef4
:10ace0003b6803229a6008f015fe0368db680c21bc
:10acf0009847e6235b00ea6941464969d150eb6910
:10ad00005933ff33344a1a62eb695933ff335e62b9
:10ad1000eb695933ff334246526a9a62eb698a33d0
:10ad2000ff331c70ea690021e4235b00d15000204e
:10ad300009b03cbc90469946a246ab46f0bd0b1dff
:10ad40009a462224731edbb21b021c4380235b0540
:10ad50001c43db001c4300239b681c43002742006c
:10ad6000121852000132d3b272e7124f2037134b40
:10ad70009a46f4e70096039b3200062128000bf068
:10ad800009f900964b463200082128000bf002f921
:10ad90004b469b1900963200092128000bf0faf867
:10ada00094e7044f30370d4b9a4644e7014f0c4b64
:10adb0009a4640e768780010a8780010147c0010cc
:10adc000ffff0fff842a001008060c00eaebf924ad
:10add000cf080008a40691de88bf6771547b00107d
:04ade000347a0010b1
:020000040000fa
:020000041000ea
:10ade400f0b5d6464f464646c0b582b006000c00c4
:10adf4008f6b002f00d183e04b7f9946b944002527
:10ae040023689b6820009847794b984271d00023af
:10ae1400984631227f239d431543637f013bdbb278
:10ae24001b02744a15401d4380235b051d43db0050
:10ae34001d434346002b5cd0636a9a4643469a7a84
:10ae4400120912056c4b1d4015432900300004f013
:10ae54004dfc43465b68627f0121019100913900fa
:10ae6400300006f0f9fd23689b6820009847604b8a
:10ae7400984200d180e0627f00925346082130005e
:10ae840008f0b8fd627f53469b18009209213000f8
:10ae940008f0b0fd636b594a12689a420dd0627f84
:10aea40000920a21300008f0a5fd627f636b9b18b5
:10aeb40000920b21300008f09dfdf56923689b6822
:10aec400200098475935ff352862f3695933ff3319
:10aed400627f5a62f3695933ff33626b9a62f36992
:10aee4008a33ff3301221a70f369a26a5933ff339c
:10aef400da62002002b01cbc90469946a246f0bd1e
:10af04004b7f202b63d017d9302b69d0b946422b05
:10af140000d074e73a4b102290469844394b994636
:10af24001f00423f002523689b6820009847304b50
:10af3400984240d031226de7b946182b00d05ee725
:10af440000250b689b6808009847294b984209d054
:10af54002b4b2022904698442b4b99461f00183fb8
:10af6400113257e7264b202290469844264b9946a7
:10af74001f00183f10324de7627f009253460621ae
:10af8400300008f037fde36b002b06d0627f00929f
:10af94000721300008f02efd8fe7637f4a46616b7e
:10afa400300004f00bfe627f0092636b07213000d7
:10afb40008f020fd81e7657f013dedb22d023023cd
:10afc4001d4380235b051d43db001d4334e70c4b0d
:10afd4003022904698440d4b99461f00203fa1e72c
:10afe400074b98460a4b99461f00303f9ae7c046e4
:10aff400faee14edff00ffffffff0fff6c2a0010b5
:10b0040068780010ea7800102c7c0010747b001023
:04b01400647a00104a
:020000040000fa
:020000041000ea
:10b01800f0b585b006000cf0bbf804006d4bc55cbc
:10b02800012d00d1c5e06c4bc718202239006b48b0
:10b038000cf0d8f800282fd0002d00d0c3e0012351
:10b04800b377644aa354664cb37f002b04d0f37fd4
:10b058000020002b00d0aae00df068f903689d6875
:10b068000023604a3021a84705000020002d00d1a8
:10b078009de0002302930197043300933c332200a0
:10b088005949280009f028fb0df032f903681b69bb
:10b098002900984700208ae02300dc332903534a1b
:10b0a80094466144fc2212011d0018000df0a0fb1b
:10b0b80000234f4a4f494c4808f000fdaa784e4bf0
:10b0c800e254ea784d4be2542300fc331a784c4b97
:10b0d800e2544c4b4c4a4d494d4808f0effcdc23f8
:10b0e800e25a4c4be252ab78aa2b2bd0ff2b2bd039
:10b0f800013b5a4253419b000022019200930023d6
:10b10800454a4349384808f0abfa2300dc33da787b
:10b118000223aa2a1ad000220192009300233f4a50
:10b128003b49314808f09cfa3d4b1b68002b19d06d
:10b138002200dc32d288002a14d01b68002b11d0e0
:10b14800384834e00323d7e70223d5e72300fc334c
:10b158001b78aa2b04d0ff3b5a1e93410133dae730
:10b168000123d8e7204d00232f4a2900280008f0a2
:10b17800a5fc264f00232d4a3900280008f09efc24
:10b18800234e00230193013300930023234a310007
:10b19800280008f065faaa23184aa354184aa354a9
:10b1a800184b194a3900300008f088fc002005b017
:10b1b800f0bd094bc718202239001d480cf012f8c1
:10b1c800002800d168e70123f377024b0022e254fc
:10b1d800064c39e7521500009c1000008000006002
:10b1e80040100060c96dee356ebb3fc8400000607e
:10b1f800f43ab24113577227531500005415000052
:10b2080055150000b473cd6e0025d5ea3c736db8b2
:10b21800b857301450150000964e2d8b2731d8178b
:10b228005c2a00100d5d44c0e1d308265e85f50d4b
:04b238008010006022
:020000040000fa
:020000041000ea
:10b23c00f0b5c64600b504000d003823cb5c98462b
:10b24c00c7690b689b68080098475937ff37386205
:10b25c00e6235b00e2696969d150bc3b0022e250f5
:10b26c0043460c3bdab2042a09d89300754ad358ea
:10b27c009f4688225200a35c02210b43a354220058
:10b28c001132ff32537801210b4302210b4304216d
:10b29c000b435370270028378822002138000df00b
:10b2ac0091fa2000b030602200210df08bfa2300bf
:10b2bc001133ff332362a36a1b0f1b0704221343b2
:10b2cc00a3621b0e20210b43fb702c23e25c0f2787
:10b2dc00ba43032002431026b44666463243e25476
:10b2ec00230030336362eb6923632b6a1a01120962
:10b2fc00a36b1b0f1b071343a363220038321b0ed7
:10b30c000b43d3703c22a35cbb43184380235b42aa
:10b31c001843a0542300403363636b6a23644a4b85
:10b32c001a686b6a9a4265d021004831cb7820208c
:10b33c000343cb70ab6a002b63d1a36c1b0f1b07b1
:10b34c0004210b43a3644d23e1544c20235c0f21b7
:10b35c008b434427e15d0126b44666463143e155f3
:10b36c0003210b4320210b432354b023e96ae15002
:10b37c00eb6a9a425fd00bf093fc03685b6a414620
:10b38c009847b82200010309a158080f0007184379
:10b39c00a0502300b833000e20210843d87004328b
:10b3ac00a35c0b43a354083aa35c01210b43a354a5
:10b3bc00200009f01ff904bc9046f0bd8822520011
:10b3cc00a35c04210b43a35459e788225200a35ccd
:10b3dc0008210b43a35452e788225200a35c10218e
:10b3ec000b43a3544be788225200a35c20210b4350
:10b3fc00a35444e721004831cb7810200343cb7091
:10b40c0092e799070fd0032119400420401ac0b2cb
:10b41c00c3181b011b09a16c090f09070b43a3647b
:10b42c004d23e05491e71b011b09a16c090f09077f
:10b43c000b43a36489e72200b832d37810210b4365
:0cb44c00d37098e7d83401106c2a00106f
:020000040000fa
:020000041000ea
:10b45800f0b5d6464f464646c0b504000d00170065
:10b468001e000bf01ffc03685b6a290098478046a2
:10b4780088235b000022e250062d09d8ad00714bed
:10b488005b599f4688225200a35c01210b43a354b9
:10b4980022001132ff32537802210b4304210b435f
:10b4a8005370250028358822002128000df08cf9da
:10b4b8002000b030602200210df086f923001133fe
:10b4c800ff332362a36a1b0f1b0704221343a362e3
:10b4d8001b0e2022924652461343eb702c25635dc7
:10b4e8000f20834303210b43994610239c46634650
:10b4f8004a461a43625523003033636200232363ac
:10b5080025003835eb7852461a43ea703c22a35c92
:10b5180083430b43a35423004033636327644a4b9c
:10b528001968b94265d022004832d37820200343f5
:10b53800d370002e64d1a36c1b0f1b070422134386
:10b54800a3644d23e2544c20235c0f2293434425eb
:10b55800625d0126324362550322134320221343be
:10b568002354b023089ae250914263d0b82342464c
:10b5780017013f09e258100f00073843e050230035
:10b58800b833000e20210843d870bc22a35c0b43bb
:10b59800a354083aa35c01210b43a354200009f0eb
:10b5a8002bf81cbc90469946a246f0bd8822520052
:10b5b800a35c02210b43a3546ae788225200a35cd0
:10b5c80004210b43a35463e788225200a35c08219b
:10b5d8000b43a3545ce788225200a35c10210b4361
:10b5e800a35455e788225200a35c20210b43a3549f
:10b5f8004ee722004832d37810200343d37092e7f5
:10b60800b3070fd0032333400422d21ad2b29319be
:10b618001b011809a36c1b0f1b070343a3644d23cd
:10b62800e25490e733011b09a26c120f120713436f
:10b63800a36488e72200b832d37810210b43d37073
:0cb6480094e7c046a03401106c2a0010ea
:020000040000fa
:020000041000ea
:10b65400f0b5d6464f464646c0b590b080460c007d
:10b66400cb6909930b6a0f930e930c930bf092fd25
:10b674000500636b002b02d0db795b072ad42b68af
:10b684005b6a280098478023db00c518002d00d191
:10b69400b2e000239946636a002b05d0226b530065
:10b6a4009b185b00a946ed18636bda7f00218a467c
:10b6b400920603d5226b5200aa46ad18da7f5206d1
:10b6c40068d5db79db0966d0226ba16a28000df00e
:10b6d40091f860e00cf02cfe0600636bd97c504bb3
:10b6e400eb58db684e4aa818984700280cd043460c
:10b6f400d869002300224b4908f00afd616b3368c6
:10b70400db683000984777e033689f68464b474ac8
:10b7140024213000b847071e1dd02b681b6a002265
:10b7240009a928009847010033689d68404b414aa5
:10b734003000a847051e1bd0636b09a99a7c8a7048
:10b744001a7c0a70db7c5b075a0fcb780720834393
:10b754001343cb709de7616b3368db683000984717
:10b764004346d86900230022334908f0d1fc43e062
:10b774003368db68390030009847616b3368db68f5
:10b78400300098474346d869002300222a4908f02c
:10b79400bffc31e000250cf0cbfd060003689f6878
:10b7a4000023264a3c21b847071e2bd00c9b0d933f
:10b7b400626b00230693537f0593d37f9b06db0fb5
:10b7c4000493d379db090122534003935346029334
:10b7d40001954b4600930c9b099a194907f0d2fc3a
:10b7e4000cf088fd03681b69390098474346da6901
:10b7f400616bad239b00d15010b01cbc90469946a0
:10b80400a246f0bd616b3368db683000984743465d
:10b81400d86900230022084908f07afcece7c04606
:10b824003815000011000080c748a7c0b09c0197dc
:10b834007cd18fd931b7ab5123000080c96dee356f
:04b844006ebb3fc8d0
:020000040000fa
:020000041000ea
:10b84800f0b5d6464f464646c0b58ab00400ad238b
:10b858009b000a6ac169ca50c269d7580bf098fca4
:10b868000600fb795b0744d5797c002941d0684bf9
:10b87800c358db68664a80189847051e0cd00df03f
:10b88800a3f94001400f02280dd0e06900230022ef
:10b89800604908f03bfc86e0e069002300225e492d
:10b8a80008f034fc7fe028000df090f9037b5b077b
:10b8b80006d0e06900230022564908f027fc72e010
:10b8c80028000df083f9037b70221a4206d0e06944
:10b8d800002300224f4908f019fc64e028000df00d
:10b8e80071f9c368089328000df06cf91030050051
:10b8f80007e033685b6a30009847c36808931030e4
:10b9080005000cf013fd804608ab1b785b076ad175
:10b9180008ab1b785b065b0f58d108abdb78db06fe
:10b9280007d508ab58784300c0184000c0b2a946f4
:10b9380002e000200023994608abdb789b0638d547
:10b94800aa46824443461b689d68344b344a4421c6
:10b958004046a847051e53d0bc796407640f336876
:10b968005b6a300098472f4b1b687a690592089ae2
:10b97800099200220792069304938023db009c46d9
:10b98800604403904b460293534601930094089bee
:10b99800254a2649280007f0cbfb0cf0a9fc0368d0
:10b9a8001b69290098470ab01cbc90469946a246d4
:10b9b800f0bde06900230022164908f0a7fb4346c2
:10b9c8001b68db68390040469847ece7e0690023cc
:10b9d8000022104908f09afb43461b68db683900cf
:10b9e80040469847dfe7e06900230022094908f04c
:10b9f8008dfb43461b68db68390040469847d2e711
:10ba0800e069002300220a4908f080fbcbe7c04622
:10ba18003815000014000080120000805533f23cf5
:10ba2800c96dee356c2a00106ebb3fc8167d6e15c9
:04ba38002300008067
:020000040000fa
:020000041000ea
:10ba3c00f0b5c64600b58ab00700ad239b000a6a74
:10ba4c00c169ca50c269d458e3795b0700d575e067
:10ba5c000bf09cfb03685b6a98470990a3793c2226
:10ba6c001a4200d1bee09b079b0fdab2012a5dd0cf
:10ba7c005bb2002b0ad00026022a0ed10bf086fbfb
:10ba8c0003685b6a98472030060006e00bf07efbeb
:10ba9c0003685b6a984710300600544b1b68984645
:10baac000cf042fc03689d680023514a3c21a847d6
:10babc00051e00d18fe06279002a00d185e0013aa1
:10bacc00531e9a4152424b4b1a404b4b9c4662447c
:10badc00a3799b061b0f012b00d178e0023b584247
:10baec0058414000a3799b079b0f012b00d170e0bc
:10bafc00023b5942594149003c4b1b68246906944e
:10bb0c000591049041460391029609990191009385
:10bb1c003a49280007f014f90cf0e8fb03681b699c
:10bb2c00290098470ab004bc9046f0bd0bf02efbe0
:10bb3c0003685b6a984718300600aee70bf026fbeb
:10bb4c0003002f4a8018617d9b58db689847051ebf
:10bb5c000cd00df037f84001400f01280dd0f869da
:10bb6c0000230022274908f0cffadbe7f86900230d
:10bb7c000022254908f0c8fad4e728000df024f873
:10bb8c00037b5b0706d0f869002300221d4908f0ef
:10bb9c00bbfac7e7a679b607b60f28000df014f864
:10bbac00037b9b069b0fb34206d0f869002300224f
:10bbbc00144908f0a9fab5e728000df001f8103087
:10bbcc0009900023984600266ae7104a80e7012076
:10bbdc0088e7012190e7f869002300220c4908f05e
:10bbec0093fa9fe700239846002659e76c2a001029
:10bbfc00c96dee35fda8bb08035744f76ebb3fc8b3
:10bc0c003815000014000080120000809bdf001a21
:04bc1c002300008081
:020000040000fa
:020000041000ea
:10bc2000f0b583b00af0a6fd0cf0d4fb0400674a1f
:10bc3000a0210523019313003033009304238901cd
:10bc4000634807f019fb09f023fc236801260096de
:10bc50005d69012300225f492000a84709f05afcd2
:10bc600023681d690cf0fcfb01000023002220006a
:10bc7000a84709f03ffe23681e2500955f69002351
:10bc8000012255492000b84709f0b8f823681f6918
:10bc90000bf01af80100002300222000b8472368a7
:10bca00000955f69002301224c492000b84708f045
:10bcb000c5fe23681f690bf04df801000023002228
:10bcc0002000b847236800955f690023012244499a
:10bcd0002000b847236800965f690023002241498d
:10bce0002000b84708f046ff23681f690bf0e8f80a
:10bcf0000100002300222000b847236800955f69f7
:10bd00000023012238492000b84709f08ff8236842
:10bd10001f690bf003f80100002300222000b84740
:10bd2000236800955f690023012230492000b8474d
:10bd300008f0b4fd23681f690af0b8ff0100002372
:10bd400000222000b847236800955f690023012284
:10bd500027492000b84708f0f1ff23681f690af05f
:10bd600089ff0100002300222000b84723680095c6
:10bd70005f69002301221f492000b84708f044fef4
:10bd800023681f690af0d8ff010000230022200069
:10bd9000b847236800955d690023012216492000f9
:10bda000a847236800965d690023002213492000fc
:10bdb000a84708f02dff23681d690bf0edf901007d
:10bdc000002300222000a84703b0f0bda407011003
:10bdd00054020010da4a82c0a308e560a686ffa0dc
:10bde000379bbe37fa7a3978e9202c28d161548df7
:10bdf00094a784bd86b0751765eaa4af8ccc37ca0a
:020000040000fa
:020000041000ea
:10be0000f0b5ce46474680b583b007000c004d6aba
:10be1000002d00d08ce00b6b202b00d1a2e00dd9bf
:10be2000302b00d1a6e0422b00d07de0554e1036dd
:10be3000554d42235b429846a84409e0182b00d098
:10be40006fe0504e2036514d18235b429846a8446f
:10be50003823e35c002b00d072e0a36a99463923b3
:10be6000e35c002b57d04b46002b54d02221236b90
:10be7000013bdbb21b02194380235b051943db0046
:10be80001943002e47d0b37a1b091b05194338000c
:10be900003f02efc7368012501950095226b414645
:10bea000380005f0dbfd236b00934b46226b062127
:10beb000380007f0a1fd364b1a68364911601b683f
:10bec00003229a603448354b354a010007f0fafde9
:10bed00007f020fd0368db680c219847e6235b0030
:10bee000fa696169d150fb695933ff332d4a1a62ef
:10bef000fb695933ff33226b5a62fb695933ff33b5
:10bf0000e26a9a62fb698a33ff331d70fa69616bda
:10bf1000e4235b00d150002003b00cbc904699464e
:10bf2000f0bd0023984607e000250023984603e073
:10bf3000a8460b6b9c466544002d11d0002687e770
:10bf40000bf02af903685b6a984780231b01994626
:10bf50008144236b2a004946380003f031fe7ee716
:10bf60002e007ae7074e30360f4d20235b4298466d
:10bf7000a8446de7034e0d4d30235b429846a8441c
:10bf800066e7c04668780010ea7800102c7c001044
:10bf9000842a001002060800eaebf924cf08000802
:10bfa000a40691de80074fe1747b0010647a0010d4
:020000040000fa
:020000041000ea
:10bfb000f0b5c64600b58ab0cc692388202b04d0e2
:10bfc0005b480ab004bc9046f0bde3790f2293436e
:10bfd000202b00d1a2e0e37d002b02d0a37d002b1b
:10bfe00003d1a368002b00d19ae0237cdb072fd478
:10bff000e368002b00d195e0a268216805f03ef8c7
:10c0000001282fd00027002398460cf075f9060070
:10c010000cf090f903689d68464b474a3421a847c5
:10c02000051e00d182e0e37da27d049443490968a6
:10c030000391414602910197e17c0091404907f04c
:10c040001ffd33681b692900300098470120b8e7bd
:10c05000e368002b68d1a268002acdd10027002315
:10c060009846d2e70bf098f803685b6a984705009a
:10c0700006aad37807218b4302210b43d3700023f8
:10c080000793013b0893e37d002b24d00026002377
:10c090009846a37d0027002bb7d1b600af19274bd8
:10c0a0001b681b683b6009930bf076f803681b6afa
:10c0b000012206a998471038810883072bd0013147
:10c0c000301d281800231d4d2a68126804c0013352
:10c0d0008b42f9d399e7194b1b681b6803600993de
:10c0e0000bf05af803681b6a012206a9984710381a
:10c0f000860883070cd001360023104801330268fc
:10c1000011689a00a950b342f8d30136a846c0e797
:10c110000328f1d8f9e70328d2d876e7094850e791
:10c1200009484ee709484ce709484ae7094848e703
:10c1300021000080a7ef242dc96dee356c2a001078
:10c140003c736db8020000801a0000801900008066
:08c150001b00008023000080a9
:020000040000fa
:020000041000ea
:10c15800f0b5de4657464e464546e0b585b00bf08d
:10c1680017f807009c239b4683440300dc339a8816
:10c178005a4492461a8930325a4402929b89303383
:10c188005b44039353469b78002b00d17ae05346d7
:10c19800043300930023994636e03b00dc3399884a
:10c1a80053461b88c9185944019b5b785b00cb1820
:10c1b8005b88c918002905d0300010302200103ad9
:10c1c8000cf016fb2b689b6898463f4b3f4a24218e
:10c1d8002800c04700284fd0019b1b68320021006f
:10c1e800040009f02dfe3a4bfb585b692100384ae0
:10c1f800b818984701239c46e144009b10330093ec
:10c2080053469b784b453dd9009901913b681b6a81
:10c21800002288463800984704000cf087f805008b
:10c228002404240c03689e682a4b2b4a2100b0473b
:10c23800061edfd0102241460cf0dafa4b461b01ed
:10c2480053449a7930231340102ba6d0202b0ad0c0
:10c25800302bb7d1019b5b785b00039a944663440b
:10c2680059886144a6e7019b5b785b00029a944673
:10c278006344598861449de72b68db6831002800d6
:10c288009847b7e73b68db6a3800984700280cd026
:10c2980012480023124a010007f010fc05b03cbc0c
:10c2a80090469946a246ab46f0bd0c4c00230d4a79
:10c2b8002100200007f002fc00230b4a0b49200054
:10c2c80007f0fcfbeae7c046c748a7c0b09c019747
:10c2d800381500007cd18fd931b7ab516ebb3fc840
:10c2e8000025d5eae1d308265e85f50d3c736db8c7
:020000040000fa
:020000041000ea
:10c2f800f0b5d6464f464646c0b58eb0cc692388c1
:10c30800202b06d055480eb01cbc90469946a24634
:10c31800f0bda368002b00d19ce0e368002b01d19d
:10c328004f48f0e70bf0e4ff07000bf0ffff0600b3
:10c3380003689d684b4b4c4a3421a847051e00d121
:10c348008ae0e368a26849490020039002900191bd
:10c358002068400d40050090280008f0d9f93b6896
:10c368009b6908aa29003800984705000899002900
:10c3780003d03368db6830009847002d67d009aade
:10c38800e07c07210840d3780726b3430343d370e2
:10c3980060690a90a0690b90e0690c900b40022b31
:10c3a8002ad00027002399460bf0c0ff06000bf0a7
:10c3b8009fff804633689b689a462d4b2a4a3c214a
:10c3c8003000d047061e40d0e3690d930694627f83
