:020000040000fa
:020000041000ea
:10000000f0ff031081e3001045400110474001104c
:1000100000000000000000000000000000000000e0
:10002000000000000000000000000000434001103c
:10003000000000000000000031ed001043400110fe
:0c00400043400110ed0c0110113c0110b8
:020000040000fa
:020000041000ea
:10004c00f8b5c046f8bc08bc9e46704735ec0010ad
:10005c0011090110f8b5c046f8bc08bc9e467047a3
:04006c000dec001087
:020000040000fa
:020000041000ea
:02023a0070470b
:020000040000fa
:020000041000ea
:10023c0000000000000000000000000000000000b2
:10024c0000000000000000000000000000000000a2
:10025c000000000000000000000000000000000092
:10026c000000000000000000000000000000000082
:0417fc0000000000e9
:020000040000fa
:020000041000ea
:1018000000000000000000000000000000000000d8
:1018100000000000000000000000000000000000c8
:1018200000000000000000000000000000000000b8
:1018300000000000000000000000000000000000a8
:020000041000ea
:0422ac00000000002e
:020000040000fa
:020000041000ea
:1022b000000000000000000000000000000000001e
:1022c000000000000000000000000000000000000e
:1022d00000000000000000000000000000000000fe
:1022e00000000000000000000000000000000000ee
:1022f00000000000000000000000000000000000de
:1023000000000000000000000000000000000000cd
:1023100000000000000000000000000000000000bd
:1023200000000000000000000000000000000000ad
:10233000000000000000000000000000000000009d
:10234000000000000000000000000000000000008d
:10235000000000000000000000000000000000007d
:10236000000000000000000000000000000000006d
:10237000000000000000000000000000000000005d
:10238000000000000000000000000000000000004d
:10239000000000000000000000000000000000003d
:1023a000000000000000000000000000000000002d
:1023b000000000000000000000000000000000001d
:1023c000000000000000000000000000000000000d
:1023d00000000000000000000000000000000000fd
:1023e00000000000000000000000000000000000ed
:1023f00000000000000000000000000000000000dd
:1024000000000000000000000000000000000000cc
:1024100000000000000000000000000000000000bc
:1024200000000000000000000000000000000000ac
:10243000000000000000000000000000000000009c
:10244000000000000000000000000000000000008c
:042450000000000088
:020000040000fa
:020000041000ea
:102454000000000000000000000000000000000078
:102464000000000000000000000000000000000068
:102474000000000000000000000000000000000058
:102484000000000000000000000000000000000048
:102494000000000000000000000000000000000038
:1024a4000000000000000000000000000000000028
:1024b4000000000000000000000000000000000018
:1024c4000000000000000000000000000000000008
:1024d40000000000000000000000000000000000f8
:1024e40000000000000000000000000000000000e8
:1024f40000000000000000000000000000000000d8
:1025040000000000000000000000000000000000c7
:1025140000000000000000000000000000000000b7
:1025240000000000000000000000000000000000a7
:102534000000000000000000000000000000000097
:102544000000000000000000000000000000000087
:102554000000000000000000000000000000000077
:102564000000000000000000000000000000000067
:102574000000000000000000000000000000000057
:102584000000000000000000000000000000000047
:102594000000000000000000000000000000000037
:1025a4000000000000000000000000000000000027
:1025b4000000000000000000000000000000000017
:1025c4000000000000000000000000000000000007
:1025d40000000000000000000000000000000000f7
:0c25e400000000000000000000000000eb
:020000040000fa
:020000041000ea
:1025f0006e2d21f0275a6f0b0000000000260010fe
:10260000275a6f0b000000000200000000000000cd
:1026100074b30010c1a52ded000000000100000002
:10262000000000006cb30010f6cd5bb401000000a8
:102630000000000064b300100000000061dc017bba
:102640000000000001000000000000005cb300106a
:10265000cae9e7ec000000000000000000000000f4
:1026600044b300106a22eb0f0000000000000000dd
:102670003cb3001000000000e52bb60b000000008a
:10268000000000000000000024b300104ee79ea6ea
:1026900000000000000000000000000014b3001063
:1026a0005896063b000000000000000000000000fb
:1026b00004b300101da179ee00000000000000002e
:1026c00000000000fcb20010ef743e490000000062
:0c26d000000000000000000000000000fe
:020000040000fa
:020000041000ea
:1026dc0000000000000000000000000000000000ee
:1026ec0000000000000000000000000000000000de
:1026fc0000000000000000000000000000000000ce
:020000041000ea
:04296400000000006f
:020000040000fa
:020000041000ea
:10296800000000000000000000000000000000005f
:10297800000000000000000000000000000000004f
:10298800000000000000000000000000000000003f
:10299800000000000000000000000000000000002f
:1029a800000000000000000000000000000000001f
:0429b800000000001b
:020000040000fa
:020000041000ea
:1029bc00000000000000000000000000000000000b
:1029cc0000000000000000000000000000000000fb
:1029dc0000000000000000000000000000000000eb
:1029ec0000000000000000000000000000000000db
:0c29fc00000000000000000000000000cf
:020000040000fa
:020000041000ea
:102a0800000080531cfb031000f80310000000575f
:102a1800000400520000005000000054000800525a
:102a2800001c00520040005100100051008000516d
:082a38000020005100000051d4
:020000040000fa
:020000041000ea
:102a40000000000000000000000000000000000086
:102a50000000000000000000000000000000000076
:042a60000000000072
:020000040000fa
:020000041000ea
:102a64000000000000000000000000000000000062
:082a740000000000000000005a
:020000040000fa
:020000041000ea
:0c2a7c000000000000000000000000004e
:020000040000fa
:020000041000ea
:042a8800000000004a
:020000040000fa
:020000041000ea
:102a8c00f0b5de4657464e464546e0b58fb00500dc
:102a9c000c000ff077fc0700ea69e169ad239b009d
:102aac00d150c54b9c46844460460090fb589b68b3
:102abc009847051e00d159e10023994602930193d2
:102acc009a469b4698463b004f461e001be05b46d1
:102adc000133dbb29b460ff055fc03681b6a0122e5
:102aec000aa998470004000c0c38019b9c466044d2
:102afc0083b201930137b04bf358db69290000987e
:102b0c009847051e3ad0280011f078fa8402a40fd9
:102b1c00280011f073fa0a90280011f06dfac368be
:102b2c000d93022cd3d014d8012ce4d1434601339d
:102b3c00dbb298460ff026fc03681b6a01220aa937
:102b4c0098470004000c0c38484483b2994601376e
:102b5c00d1e753460133dbb29a460ff013fc0368fe
:102b6c001b6a01220aa998470004000c0c38029b2e
:102b7c009c46604483b202930137bce733004e4657
:102b8c00b9461f0043465b4453441b0104331f22c8
:102b9c00934320330393434601335b0004939b0719
:102bac0000d5efe0049b9c466644b6b2f30603d016
:102bbc001f239e432036b6b2002306935b46002ba0
:102bcc0014d001335b0006939a0701d502330693a8
:102bdc00019b069a944663449bb2da0603d01f22eb
:102bec00934320339bb240339bb201930023079352
:102bfc005346002b15d05c00a31c07939a0702d5f3
:102c0c00231d9bb20793029b079a944663449bb285
:102c1c00da0603d01f22934320339bb240339bb27e
:102c2c0002933c009c3480225201ff21200010f0c2
:102c3c00cbff624abb5a01339bb2dc217b52bb52a5
:102c4c005f4bfb5cff2b00d1a0e03b00dc335c4a0c
:102c5c00ba5c9a705b4bfb5cff2b00d19ae03b009b
:102c6c00dc33584aba5cda703a00fc325649795c6b
:102c7c001170a0229a806a46908902002032b61800
:102c8c00b6b2de805b46002b00d189e03300a03366
:102c9c003a00dc321381019b53815346002b00d147
:102cac0084e03b00dc335a89a032b6189e81029a2c
:102cbc00da813b00dc339988da888a185d895219ed
:102ccc00dd89521992b21a8280256d01aa1a5a8294
:102cdc0000221a755a759a75da759a61da61661856
:102cec00039a94466144611808911a893032a218eb
:102cfc0009929b893033e318059343460b705b466e
:102d0c00002b00d013705346002b02d0059b52466b
:102d1c001a7030804b46b370274bfb589b68009859
:102d2c00984705003a00dc329188039b049884464e
:102d3c006344cb18e31801931389303306998c46fe
:102d4c006344e31802939389079a9446634430339f
:102d5c00e3180393002d00d10fe100239a4604934e
:102d6c0000243b005746b046994677e0002399462d
:102d7c000293019300269a469b469846023304938d
:102d8c001e330393049b023304930be70c4baa22d0
:102d9c00fa545ae7553b0b4abb540b4abb545ee7fb
:102dac003b00dc3300221a815a8176e73b00dc338e
:102dbc0000229a81da817ce738150000501500005a
:102dcc00531500005415000055150000280011f093
:102ddc0015f92601b346c3445b4658605f71280061
:102dec0011f00ef95b4642689a60280011f008f960
:102dfc005b468268da60280011f002f95b46c26813
:102e0c001a610ff0bffa311d414403681b6a01229d
:102e1c009847060001347b00099a94466344029952
:102e2c008a1a5a800137ffb2280011f0e5f8103edb
:102e3c00103001003200029b9b46180010f0d8fea7
:102e4c00dc46b44463460293504b4a46d358db6984
:102e5c00290000989847051e00d18ee0280011f03b
:102e6c00cdf88002800f0228b0d043d80128ebd1d6
:102e7c00280011f0c3f82601b346c3445b465860e2
:102e8c0004995971280011f0bbf85b4642689a60ae
:102e9c00280011f0b5f85b468268da60280011f062
:102eac00aff85b46c2681a610ff06cfa311d4144f1
:102ebc0003681b6a012298470600013404994b00f1
:102ecc00089a944663440198821a5a804b1cdbb2d0
:102edc000493280011f090f8103e010010313200dc
:102eec00019b9b46180010f083fedc46b4446346fd
:102efc000193a9e7280011f081f82601b346c344d9
:102f0c005b46586052465a71280011f079f85b46be
:102f1c0042689a60280011f073f85b468268da60a8
:102f2c00280011f06df85b46c2681a610ff02afa9e
:102f3c00311d414403681b6a012298470600013485
:102f4c0053465b00059a9446634403998a1a5a8047
:102f5c0053460133dbb29a46280011f04df8103e6f
:102f6c00103001003200039b9b46180010f040fe0d
:102f7c00dc46b4446346039366e705480fb03cbc9b
:102f8c0090469946a246ab46f0bdc04638150000a7
:042f9c002b88fa750f
:020000040000fa
:020000041000ea
:102fa000e6ab0010f2ab0010f2ab0010e6ab001085
:102fb000f2ab0010e6ab0010e6ab0010f2ab001075
:102fc000e6ab0010e6ab0010f2ab0010e6ab001071
:102fd000e6ab0010e6ab0010e6ab0010e6ab00106d
:102fe000f2ab0010f2ab001094ab0010f2ab00108b
:102ff000f2ab0010f2ab0010f2ab0010f2ab00101d
:1030000094ab0010f2ab0010f2ab0010f2ab00106a
:10301000f2ab0010f2ab0010f2ab0010f2ab0010fc
:1030200094ab0010f2ab0010f2ab001094ab0010a8
:1030300094ab0010f2ab001094ab001094ab0010f6
:1030400094ab001094ab001094ab001094ab001044
:1030500094ab0010f2ab001094ab001028320010bb
:103060002001000000002020300000009c300010f3
:103070008c010000000030204200000008340010e5
:1030800090000000000040201800000048330010ad
:10309000c0000000000010202000000001ffffff22
:1030a000ffffffffffffffffffffffffffffffff30
:1030b000ffffffffffffffffffffffffffffffff20
:1030c000ffffffffffffffffffffffffffffffff10
:1030d000ffffffffffffffffffffffffffff01fffe
:1030e000fffffffffffffffffffffffffffffffff0
:1030f000fffffffffffffffffffffffffffffffae5
:1031000051868783bf2f966b7fcc0148f709a5d0e6
:103110003bb5c9b8899c47aebb6fb71e91386409ef
:1031200000c6858e06b70404e9cd9e3ecb66239586
:10313000b4429c648139053fb521f828af606b4dde
:103140003dbaa14b5e77efe75928fe1dc127a2ffcc
:10315000a8de3348b3c1856a429bf97e7e31c2e561
:10316000bd66011839296a789a3bc0045c8a5fb44d
:103170002c7d1bd998f54449579b446817afbd1760
:10318000273e662c97ee72995ef42640c550b90131
:103190003fad0761353c7086a272c24088be94760e
:1031a0009fd1665001ffffffffffffffffffffff03
:1031b000ffffffffffffffffffffffffffffffff1f
:1031c000ffffffffffffffffffffffffffffffff0f
:1031d000ffffffffffffffffffffffffffffffffff
:1031e000fffffffffffc0051953eb9618e1c9a1f47
:1031f000929a21a0b68540eea2da725b99b315f3dc
:10320000b8b489918ef109e156193951ec7e937b5e
:103210001652c0bd3bb1bf073573df883d2c34f17a
:10322000ef451fd46b503f00ffffffffffffffff85
:10323000ffffffffffffffffffffffffffffffff9e
:10324000fffffffffffffffeffffffff000000008b
:1032500000000000ffffffffffffffffffffffff7a
:10326000ffffffffffffffffffffffffffffffff6e
:10327000c7634d81f4372ddf581a0db248b0a77ad5
:10328000ecec196accc52973aa87ca22be8b053714
:103290008eb1c71ef320ad746e1d3b628ba79b9849
:1032a00059f741e082542a385502f25dbf55296c26
:1032b0003a545e3872760ab73617de4a96262c6f75
:1032c0005d9e98bf9292dc29f8f41dbd289a147c6b
:1032d000e9da3113b5f0b8c00a60b1ce1d7e819d28
:1032e0007a431d7c90ea0e5fffffffffffffffffa9
:1032f000ffffffffffffffffffffffffffffffffde
:10330000fffffffffffffffeffffffff00000000ca
:1033100000000000fffffffcb3312fa7e23ee7e40f
:10332000988e056be3f82d19181d9c6efe814112d5
:103330000314088f5013875ac656398d8a2ed19d93
:103340002a85c8edd3ec2aefffffffff0000000144
:10335000000000000000000000000000ffffffff71
:10336000ffffffffffffffffffffffff0000000069
:10337000ffffffffffffffffbce6faada7179e842c
:10338000f3b9cac2fc6325516b17d1f2e12c424755
:10339000f8bce6e563a440f277037d812deb33a012
:1033a000f4a13945d898c2964fe342e2fe1a7f9bba
:1033b0008ee7eb4a7c0f9e162bce33576b315eced9
:1033c000cbb6406837bf51f5ffffffff000000019b
:1033d000000000000000000000000000fffffffff1
:1033e000fffffffffffffffc5ac635d8aa3a93e75d
:1033f000b3ebbd55769886bc651d06b0cc53b0f6d0
:103400003bce3c3e27d2604bffffffffffffffff9d
:10341000fffffffffffffffeffffffffffffffffbd
:10342000ffffffffffffffffffffffff99def83603
:10343000146bc9b1b4d22831188da80eb03090f6f3
:103440007cbf20eb43a18800f4ff0afd82ff10122d
:1034500007192b95ffc8da78631011ed6b24cdd5d1
:1034600073f977a11e794811fffffffffffffffff0
:10347000fffffffffffffffefffffffffffffffc60
:1034800064210519e59c80e70fa7e9ab7224304958
:08349000feb8deecc146b9b143
:020000040000fa
:020000041000ea
:10349800f0b5ce46474680b58fb004002b2102ab6d
:1034a8009c46614400230b700df0f8fc051e00d10a
:1034b80090e02023e35c2b2202a98c466244117819
:1034c8008b4261d0a4225a438218107c400604d053
:1034d8004020125c3138824306d10133dbb2994275
:1034e80000d181e02022a35410f040f907000368be
:1034f8009e68bf4bbf4a2821b04700286ad02023c6
:103508009946e35ca4267343eb189a6801921b68fa
:103518000093b94bb94aba4909900ef06ffa10f006
:1035280099f803689b690baa099998473b68db6877
:103538000b99380098474b46e35c5e43ae1940361a
:1035480033781b09042b00d177e00c2b42d10ef005
:103558001bff0200ab4bc0182023e15c84334b43b4
:10356800eb1841331978a74bd358db689847099073
:10357800002800d10ce110f043fd4001400f022863
:1035880000d184e0a04a04e100222023e254a36a87
:103598006362a262002b02d01b68002b1ad1ad23f4
:1035a8009b00e269d158002919d000250095002315
:1035b8000122964806f0d4fee269ad239b00d5505f
:1035c80010f04cf9002805d010f048f903681b6a80
:1035d8008f4998470fb00cbc90469946f0bd013111
:1035e8008a4808f05dfbebe700222023e254a36a37
:1035f8006362a262002b02d01b68002b0ed101214e
:10360800824808f04dfb10f029f90028e2d010f0ac
:1036180025f903681b6a7e499847dbe72b2602ab2e
:103628009c466644310020000df038fc050020233c
:10363800e25c33789a42cdd056e73b689e68754b7a
:103648006c4a30213800b047061ec3d00ef09cfeed
:1036580003685b6a9847704b1a682023e15c8433df
:103668004b43ed18ab6800210291c02109018c463b
:103678006044019005210091644930000cf012fa71
:103688000ff0e8ff03681b6931009847a2e7099823
:1036980010f0b8fc037b5b0701d05b4a79e009981e
:1036a80010f0b0fc027b70231a4201d0564a70e039
:1036b800099810f0a7fcc37b9b0601d4524a68e026
:1036c800099810f09ffcc37bdb0601d54e4a60e0e9
:1036d800099e300010f096fc437b202b07d0300069
:1036e80010f090fc437b302b01d0474a51e00998f9
:1036f80010f088fc037b5b0700d06be7099810f09b
:1037080081fc027b70231a4200d063e73b689e6805
:10371800424b384a44213800b047061e00d159e7c9
:10372800099f380010f06afc80460ef02dfe0368f1
:103738005b6a98478146380010f064fcc3680d93b3
:10374800354a10682022a15c84324a43ad18002112
:1037580007912a0044320692aa6805920490c02272
:1037680012014a44039202914246103201924222c7
:10377800aa5c5207520f0092244a294930000af0e5
:103788009dfe0ff067ff03681b693100984721e72a
:10379800244aad239b00e169c958002923d000259c
:1037a80000950023194806f0dbfde269ad239b0074
:1037b800d55010f053f8002805d010f04ff80368e2
:1037c8001b6a13499847114c04230093164b174a58
:1037d800174920000bf05efa164b174a17492000cc
:1037e8000bf074fbf6e61100084808f059fae0e718
:1037f80024a3727ec96dee350c694bb31b40ffde06
:1038080032cb175d38150000140000806ebb3fc82e
:1038180044c30d3bb09f6bb2202a00109e715833f1
:10382800167d6e151200008030cd7f4d2731d817d8
:10383800b857301496c4ecc38259bf603c736db856
:020000040000fa
:020000041000ea
:1038480010b582b00c00ca691379052b3dd010d988
:103858000b2b00d14ce126d90d2b00d1ade1f02b7b
:103868002dd153790b2b00d9b2e19b00c549cb5818
:103878009f46032b45d000d9ebe0002b04d15379a8
:10388800002b1ed0c04a00e0bf4a00230093e16924
:10389800be4806f065fd0ff069ffe1690368db6863
:1038a800984702b010bd062b07d15379062b00d9d3
:1038b80092e19b00b649cb589f46b34ae5e7b24a26
:1038c800e3e709f0c7ff02007ae15379042b00d936
:1038d8007ae19b00af4ad3589f4606f0cffa020020
:1038e8006ee105f09dfb02006ae105f0c5ff0200ec
:1038f80066e106f0fffb020062e107f03ffd02000f
:103908005ee15379072b00d960e19b00a249cb58af
:103918009f46210004f010fa020051e1210006f050
:1039280069f902004ce11288143a53425a41524252
:103938001e239a43994b9c466244a6e71288143a80
:1039480053425a4152421e239a43944b9c46624426
:103958009be7210008f04afe020031e1210006f051
:10396800b5f902002ce11288143a53425a415242e6
:103978001e239a43894b9c46624486e71288143a70
:1039880053425a4152421e239a43844b9c466244f6
:103998007be71288143a53425a4152421e239a43f3
:1039a8007e4b9c46624470e71288143a53425a414f
:1039b80052421e239a43794b9c46624465e712881b
:1039c800103a53425a4152421e239a43734b9c4623
:1039d80062445ae721000af0fdfb0200f0e02100f2
:1039e8000bf078f80200ebe01288103a53425a4183
:1039f80052421e239a43694b9c46624445e7210084
:103a08000af07ef80200dbe01288143a53425a4169
:103a180052421e239a43614b9c46624435e7128802
:103a2800143a53425a4152421e239a435b4b9c46d6
:103a380062442ae7210009f0dbfe0200c0e0210011
:103a48000bf06ef80200bbe0210009f035ff020020
:103a5800b6e05379062b00d9bce09b005049cb58ff
:103a68009f46210003f0eafa0200a9e01288203af2
:103a780053425a4152421e239a43484b9c46624441
:103a880003e712881c3a53425a4152421e239a4372
:103a9800424b9c466244f8e61288203a53425a4107
:103aa80052421e239a433d4b9c466244ede61288df
:103ab800143a53425a4152421e239a43374b9c466a
:103ac8006244e2e61288143a53425a4152421e2393
:103ad8009a43324b9c466244d7e61288203a5342b6
:103ae8005a4152421e239a432c4b9c466244cce6d0
:103af8005379012b0bd0002b05d0022b0bd0032bb5
:103b080014d0214ac1e605f00ffa020058e005f08a
:103b180001fb020054e01288183a53425a415242bb
:103b28001e239a431d4b9c466244aee61288183aff
:103b380053425a4152421e239a43184b9c466244b0
:103b4800a3e6210005f050fc020039e0210005f051
:103b5800eff8020034e01288183a53425a415242b0
:103b68001e239a430d4b9c4662448ee61288203ae7
:103b780053425a4152421e239a43084b9c46624480
:103b880083e6c04664a60010020000803c736db84e
:103b980094a60010b0a60010c4a600102100008052
:103ba800e4a600101288203a53425a4152421e237a
:103bb8009a430a4b9c46624467e603f09bf802006e
:103bc800012a00d16de660e6054a5ee6044a5ce635
:103bd800034a5ae6024a58e6014a56e6210000809e
:043be8000200008057
:020000040000fa
:020000041000ea
:103bec000000000000000000499a0010bb310110d9
:103bfc008dea00104dda00103d0901106909011021
:103c0c005c52aa4c583efa5a140000001c3c00109e
:103c1c00583efa5a01000000010000004c3f001011
:103c2c00543f0010db145923000000000300000077
:103c3c0000000000343f0010db75aad80000000023
:103c4c000600000000000000043f0010861d575db8
:103c5c00000000000200000000000000d43e001034
:103c6c00423357fb0000000004000000000000007d
:103c7c00b43e0010b50d7aed00000000020000000b
:103c8c0000000000843e0010c9ba01ff00000000d3
:103c9c000200000000000000743e00109c19d07a55
:103cac00000000000600000000000000443e001070
:103cbc00c0362d8b00000000050000000000000045
:103ccc001c3e001011b819fe00000000030000009b
:103cdc0000000000043e001096122ad900000000db
:103cec000200000000000000f43d0010bb7c4a8381
:103cfc00000000000200000000000000e43d001085
:103d0c00d017edff000000000200000000000000d2
:103d1c00d43d0010ebeb9ef300000000020000000d
:103d2c0000000000c43d0010ae6e5f930000000068
:103d3c000200000000000000b43d0010f27d06b14e
:103d4c00000000000100000000000000ac3d00106d
:103d5c003c4049730000000002000000000000001d
:103d6c00f43e0010a4b2ebe60000000002000000dc
:103d7c0000000000e43e00105586c05f000000000b
:103d8c000200000000000000a43e0010792765ee40
:103d9c00000000000200000000000000943e001033
:103dac004c357eb5583efa5a181722dc9c19d07a3d
:103dbc004c357eb5583efa5a6f81b237ae6e5f9372
:103dcc004c357eb5583efa5a6f81b237ebeb9ef309
:103ddc004c357eb5583efa5a98e0bb5bd017edffd8
:103dec004c357eb5583efa5ac58fe8d2bb7c4a8317
:103dfc004c357eb5583efa5ac58fe8d296122ad960
:103e0c0098e0bb5bd017edff4c357eb5583efa5aa7
:103e1c00fa52426811b819fec58fe8d296122ad907
:103e2c0098e0bb5bd017edff98e0bb5bebeb9ef330
:103e3c004c357eb5583efa5a5582c29ac0362d8bf7
:103e4c00fa52426811b819fec58fe8d296122ad9d7
:103e5c0098e0bb5bd017edff98e0bb5bebeb9ef300
:103e6c004c357eb5583efa5a39da30999c19d07acd
:103e7c004c357eb5583efa5aeafe39d5c9ba01ff1f
:103e8c004c357eb5583efa5afa524268b50d7aed69
:103e9c004c357eb5583efa5afa524268792765ee8f
:103eac004c357eb5583efa5a48daf2df5586c05f7b
:103ebc0074ced0aa792765ee39da30999c19d07a6c
:103ecc004c357eb5583efa5aeafe39d5423357fb8b
:103edc004c357eb5583efa5ac58fe8d2861d575dd3
:103eec004c357eb5583efa5ac58fe8d2a4b2ebe6f3
:103efc004c357eb5583efa5af59f3ba13c40497370
:103f0c00211f9479a4b2ebe648daf2df5586c05f44
:103f1c0074ced0aa792765ee39da30999c19d07a0b
:103f2c004c357eb5583efa5aeafe39d5db75aad81f
:103f3c0039da30999c19d07a4c357eb5583efa5afc
:103f4c00f73897cbf27d06b12b88fa75db14592321
:020000040000fa
:020000041000ea
:103f5c0030b5cb785b075b0fd8b2052800d971e17f
:103f6c009b00b948c3589f4688891030830700d1fd
:103f7c0067e103239843043063e10b7b5b075b0f22
:103f8c00dcb2012c78d05bb2002b15d01020032ca6
:103f9c0000d956e10b7b9b069b0fd8b2012876d03b
:103fac005bb2002b00d15be10238434258414042e6
:103fbc0018231840103044e10b7b9b069b0fd8b2a2
:103fcc00012811d05bb2002b10d00238444244417e
:103fdc0064014b7b1b071b0fd8b2082800d93be1af
:103fec009b009a48c3589f461824f2e71024f0e728
:103ffc002000103025e1200010304d7b0f232b408a
:10400c00052b0bd08b7b5b071fd5002a08d11030fa
:10401c008b7b9b0700d414e1103012e10019f1e7ff
:10402c004b7bdb0603d54b7b5b0600d510308b7bc3
:10403c009b0700d405e14b7b9b0600d401e14b7b35
:10404c00db0900d1fde01030fbe08b7b9b0700d43b
:10405c00f7e0002ae0d0eee710348b7b70221a4296
:10406c0004d05b065b0f01335b00e418c87b400790
:10407c00400f07300019e4e0087b000900d1ede0a7
:10408c00022383428041313398434430d9e04b7b47
:10409c005b0700d4e6e0002a00d1e5e04b7bdb07b0
:1040ac0000d4e3e0487b8007c00f434258414042b4
:1040bc00072398433030c4e00b7b5b075b0fdab20d
:1040cc00012a65d05bb2002b1cd0022a00d18ae0f9
:1040dc001020032a00d0b4e0887b0007800e041d5a
:1040ec004b7b5b06db0ddbb2043314305a008018bb
:1040fc00ca7b520600d50019ca7b920600d4a0e0f8
:10410c00c0189ee04a7b0b7b5b065b0fd8b2042881
:10411c0000d9ade09b004e48c3589f46cb7b102086
:10412c00db0603d55000801840001030cb7b5b06bb
:10413c0000d58018cb7b9b0600d482e052008018ff
:10414c007fe0900080181030cb7b5b0600d5801888
:10415c00cb7b9b0675d55200801872e0cb7b102070
:10416c005b0601d510001030cb7b9b0669d5520045
:10417c00801866e0c87b4006c00f4342584140425d
:10418c001f2398433030cb7b9b065ad5203058e008
:10419c000a7b9206920fd3b2012b1ad052b2002a8c
:1041ac001ad0023b5a4253415b0218001030ca7bb2
:1041bc00920605d5ca7bc018d20601d5180014305a
:1041cc00ca7b52063dd5ca7b7f2a07d85b00c01834
:1041dc0037e080235b00e8e78023e6e75a005b08c2
:1041ec00d318c0182de04b7b5b06db0d0433dbb220
:1041fc00ca7bd2060ad518001430ca7b920600d5a9
:10420c00c018ca7b52061cd5c0181ae058001030d2
:10421c00f3e70b7bdb06db0edab2102a2ad89b0005
:10422c000c4ad3589f4620200be0242009e02c2078
:10423c0007e0302005e0402003e0502001e08889b1
:10424c00103030bd1020fce7cca10010e4a1001010
:10425c0008a200101ca200101020f2e74020f0e78a
:10426c002820eee72820ece73020eae72820e8e7d2
:08427c001020e6e71020e4e742
:020000040000fa
:020000041000ea
:1042840070b505000c000b689b6808009847984bb4
:10429400984200d1e6e045d8964b984200d104e11b
:1042a40012d9954b984200d18ae02ed8934b98426c
:1042b40000d18be0924b984200d198e0914b984208
:1042c40000d1dbe0002054e08f4b984200d1f2e0b3
:1042d4000dd98e4b984200d1a8e08d4b984200d165
:1042e40068e08c4b984200d19ae0002041e08a4b70
:1042f400984200d1bce0894b984200d1e5e0884b5c
:10430400984200d1c5e0002033e0864b984200d1aa
:10431400a8e0854b98425fd0844b984200d18ae054
:10432400002026e0824b984200d16ce027d8814bd4
:10433400984262d00bd9804b984200d1afe07f4bba
:10434400984217d1280008f091fb002011e07c4b23
:10435400984200d175e07b4b984205d1210028009a
:104364000bf028fa002004e0774b984200d16ee06d
:10437400002070bd754b98426fd00020f9e7744b54
:1043840098422fd00bd8734b984242d0724b98422c
:1043940000d195e0714b984276d00020e9e7704b4c
:1043a400984265d06f4b984257d06f4b98424ed08d
:1043b4000020dee72100280004f0fcf80020d8e704
:1043c4002100280005f0ccfa0020d2e721002800c3
:1043d40007f0a0fe0020cce72100280008f028fd0b
:1043e4000020c6e721002800fef74efbc1e72100ac
:1043f400280009f065f90020bbe72100280008f037
:1044040029fc0020b5e72100280008f05ffc00200b
:10441400afe7ea69216aad239b00d1500020a8e7e9
:10442400210028000ff016fc0020a2e7280008f065
:1044340057f800209de72100280000f0fbff002032
:1044440097e72100280002f091f9002091e721006c
:10445400280002f085fa00208be728000cf002fb0c
:10446400002086e72100280002f072ff002080e788
:104474002100280009f0dafe00207ae72100280054
:1044840000f04afc002074e7280008f05bfc0020e0
:104494006fe72100280003f035fe002069e72100c2
:1044a400280003f0cbfe002063e72100280003f07e
:1044b40033fa00205de7280006f030f9002058e7c1
:1044c400280008f0d7f8002053e7ad239b00ea69e1
:1044d400d3581a790020052a00d04ae75b79042bc7
:1044e40000d046e7280006f09dff002041e7c046c3
:1044f400615c5d7302e13435053937569364785055
:1045040049fc4351e9ba983cce311d0e66beda230c
:1045140055aff1282fe7eb1a6a59070889817b0dfb
:10452400c6358b01a5057066de12676961141459de
:104534002315d4ca110650b941596bbe94cdd6c0c7
:10454400e13edda0881e8da1c62e81926a46f7bb8e
:10455400a09a52e7f73897cbe2a9e9d81ebd48cb19
:0c456400820f7ae9a27a9cf11eab00e9fc
:020000040000fa
:020000041000ea
:10457000f0b593b0040090490df054fe8f490b0044
:1045800008332360250020352031280009f0f8fb8e
:1045900058239c46a44463462100009360460cf0d7
:1045a0006dfc2700803738000df046ff26009c3652
:1045b000210030000df0c6fcbc218c46a4446146ad
:1045c000019160460df046ffd8208446a444604621
:1045d00002900df0d9fff4239c46a4446346039354
:1045e00060460df0a7ff882149008c46a44461462f
:1045f000049160460df03cff962040008446a444a0
:104600006046210005900df04dfca6235b009c4602
:10461000a4446346069360460df046ffb42149006a
:104620008c46a4446146079160460df067ffc220a6
:1046300040008446a444604608900df097ffd023c4
:104640005b009c46a44463462100099360460df03c
:10465000f9fae02149008c46a44461460a9160467b
:104660000df042feee2040008446a4446046210046
:104670000b900df087fbfe235b009c46a444634631
:1046800021000c9360460cf0b5fd882189008c4612
:10469000a444604621000d900cf018fc9121890083
:1046a0008c46a44461460e9160460df035ff98207b
:1046b00080008446a44460460f900df0affe9f2317
:1046c0009b009c46a4446346109360460df08afe0e
:1046d000a62189008c46a4446146119160460df0e4
:1046e00049fead239b000022e250009a3449280085
:1046f0000cf07bf93a00334928000cf076f93200cf
:10470000314928000cf071f9019a304928000cf069
:104710006cf9029a2e4928000cf067f9039a2d498a
:1047200028000cf062f9049a2b4928000cf05df97e
:10473000059a2a4928000cf058f9069a28492800b9
:104740000cf053f9089a274928000cf04ef9079a03
:10475000254928000cf049f9099a244928000cf051
:1047600044f90a9a224928000cf03ff90b9a214992
:1047700028000cf03af90c9a1f4928000cf035f982
:104780000d9a1e4928000cf030f90e9a1c49280099
:104790000cf02bf90f9a1b4928000cf026f9109aff
:1047a000194928000cf021f9119a184928000cf039
:1047b0001cf9200013b0f0bd85c5ce4bec3b0010ba
:1047c000583efa5adb145923db75aad8861d575d6b
:1047d000423357fbb50d7aedc9ba01ff9c19d07a67
:1047e000c0362d8b96122ad911b819fed017edffbd
:1047f000bb7c4a83ebeb9ef3ae6e5f93f27d06b11a
:104800003c404973a4b2ebe65586c05f792765ee5c
:020000040000fa
:020000041000ea
:10481000f0b5de4657464e464546e0b597b0050032
:104820000c002030b02200210ff0d4f92800d03045
:10483000602200210ff0cef99a235b000022ea509b
:10484000e36b139323689b6820009847944b98422e
:1048500000d184e02a003532ff32537840210b43e7
:1048600053704523e35c002b05d19a225200ab5cc8
:1048700010210b43ab544623e35c002b00d0e7e050
:104880009a225200ab5c20210b43ab544423e35cdf
:10489000012b00d176e0002b00d170e0022b00d17b
:1048a00079e0002314934623e35c002b00d0d9e089
:1048b000226be169e66a4523e35c584243415b426f
:1048c000142003400c33206a8346606a8246a06a43
:1048d0008146606b8046a06b8446002a00d1a2e02e
:1048e0000020129020301590129f381e00d09de0bd
:1048f000109012980f9015980e900d9210220c9215
:10490000139a0b9200220a92604609904046089042
:1049100007920692484605905046049058460390e8
:104920000293019600920023149a280002f08afe56
:10493000ee6923689b68200098477d36ff36306219
:104940006269f6235b00e969ca5028000bf022f87f
:1049500017b03cbc90469946a246ab46f0bd9a22a1
:104960005200ab5c01210b43ab5480239b00ea69ee
:10497000e16bd150eb69f133ff3313936ae71023f6
:10498000149390e79a225200ab5c08210b43ab547e
:104990001823149387e79a225200ab5c04210b433f
:1049a000ab54202314937ee74146c91a35008d404d
:1049b0005146d940294317e04146891a3d008d40b0
:1049c0002900159dd5402a000a432272083bdbb21c
:1049d0000130f82b10d01a00040020214942591848
:1049e000e2d43500cd4029002170202149425118e0
:1049f000e2d43a00ca40e8e765464c46e169e66a17
:104a0000b33be35c002b13d1236a9b46636a9a464f
:104a1000a36a9946636b9846a36b9c4620230022a9
:104a20000020159060e7129215925de710205fe775
:104a3000236a9b46636a9a46a36a9946636b9846c3
:104a4000a36b9c460c2300220020159010304fe7ea
:104a50004423e35c012b95d0002b90d0022b9ad0fd
:104a6000002314930df094fc03689b6a984706009a
:104a7000102200210ff0aef8a36b5a0f9446db0012
:104a80009a46a36a5f0fdb009946129630003823de
:104a9000202290466646ac464a461592a1469ae7c1
:044aa000bb2e603891
:020000040000fa
:020000041000ea
:104aa400f0b583b00500844b1b689a6adb6b834bbb
:104ab4001b689a6ada6b824a12689168926a5b6b25
:104ac400c669f4235b00f458002c2ad00ef050fe83
:104ad4000600a379062b22d89b007a4ad3589f4616
:104ae400102300e0142300930123012221007648bf
:104af40005f038fc3368db68210030009847ea6928
:104b0400f4235b000021d150704803b0f0bd18239a
:104b1400e9e72023e7e73023e5e74023e3e7002341
:104b2400e1e733007d33ff331b6a694a93426fd058
:104b34001bd9684a934200d1bce032d9664a9342f9
:104b440054d0664a93421bd1f62464003159644b15
:104b5400644a5d480af0bcf90022eb691a51eb691a
:104b64007d33ff331a625948cfe75f4a93422cd012
:104b74005e4a934200d18ae05d4a934200d197e0b5
:104b8400f62464003159564b5a4a4f480af0a0f9aa
:104b94000022eb691a51eb697d33ff331a624b48eb
:104ba400b3e7554a9342ebd1f624640031594c4b98
:104bb400524a45480af08cf90022eb691a51eb6914
:104bc4007d33ff331a6241489fe7f624640031596c
:104bd400434b4b4a3c480af07bf90022eb691a51db
:104be400eb697d33ff331a6238488ee7f6277f007e
:104bf400f159002400943a4b424a33480af04cf8e5
:104c0400eb69dc51eb697d33ff331c622f487ce791
:104c140080239b00f1583c4b1b688b421ad0300018
:104c2400f130ff3010220df0d7fc43425841c0b29e
:104c3400f624640031590090294b344a22480af082
:104c44002bf80022eb691a51eb697d33ff331a62aa
:104c54001e485ae72c4b1b681a68f8235b00f3586c
:104c64009a4210d13300f533ff3380229200b018fa
:104c740025490a6812681c68944206d104338342a9
:104c8400f7d10120d4e70020d2e70020d0e7f624b2
:104c940064003159124b1e4a0b480af019f90022dc
:104ca400eb691a51eb697d33ff331a6207482ce72d
:104cb40018482ae7174828e73c2a0010242a00103d
:104cc400282a00109cf50010eaebf924fa3108af09
:104cd400bb2e6038faee14ed03b880ed035744f7a9
:104ce40026a926146a46f7bb9bdf001acf2f11258d
:104cf400167d6e1589817b0d5b96c897e2a9e9d86c
:104d0400a27a9cf16a590708202a0010820f7ae9d6
:084d1400ce311d0ea40691de54
:020000040000fa
:020000041000ea
:104d1c00f0b5de4657464e464546e0b585b0050033
:104d2c000c000df02ffb0600ad239b00ea69e16a35
:104d3c00d1503123e15c002912d1676a3023e15c48
:104d4c00002921d0814bf358db68804ab018984772
:104d5c00002836d00ff050f90c239946814415e009
:104d6c007a4bc358db68794a80189847002804d0de
:104d7c000ff042f90c300700e0e7e869002300224d
:104d8c0073490af087fb15e0236a99463223e15cec
:104d9c00002900d178e06d4b9a46b244f358db6899
:104dac0050469847002813d0e8690023002269492f
:104dbc000af070fb05b03cbc90469946a246ab4647
:104dcc00f0bde8690023002261490af063fbf1e7ba
:104ddc000ef0cafc834603689b6898465e4b5f4a9c
:104dec002421c047031e03903bd0797829621031ef
:104dfc005b461b689b689846594b5a4a5846c047b5
:104e0c008046002833d0ad239b00ea69d3589b46db
:104e1c002a6a00210ef0d8fe00234246136053602c
:104e2c009360d3605b469b7c93703223e35c13707e
:104e3c0001235b4293602b6a9381296a10311368ba
:104e4c00039c20000cf0e2f9404bf3585b69210005
:104e5c005046984710239c46e0440ef085fc060013
:104e6c0020e0e869002240490af014fba2e75b4607
:104e7c001b68db68039958469847e86900230022b1
:104e8c0039490af007fb95e70df07cfa03685b6a79
:104e9c0098478023db00984680440ef065fc0600a2
:104eac00002f1ed04b46002b2dd033689c6800235e
:104ebc002e4a28213000a047041e35d00ef0c8fb26
:104ecc0006007b782b62434600933b004a462849f8
:104edc0020000bf067fc33681b69210030009847f9
:104eec0068e7002300222349e8690af0d3faad24cd
:104efc00a400eb6919593368db6830009847eb69fb
:104f0c0000221a5156e700221b49e8690af0c2fa3e
:104f1c00ad24a400eb6919593368db68300098475d
:104f2c00eb6900221a5145e7002300220e49e8697b
:104f3c000af0b0faad24a400eb6919593368db68a8
:104f4c0030009847eb6900221a5133e738150000fe
:104f5c001200008011000080c748a7c0b09c0197c8
:104f6c007cd18fd931b7ab5123000080c96dee35a0
:0c4f7c006ebb3fc80400008030000080c5
:020000040000fa
:020000041000ea
:104f88007c0b0110680b01106c0b0110700b0110e9
:104f9800700b0110740b0110740b0110780b0110c9
:104fa800780b0110780b0110780b01107c0b0110a5
:104fb8006c0b0110700b0110700b0110740b0110b9
:104fc800740b0110780b0110780b0110780b01108d
:104fd800780b0110f8060110e0060110e406011034
:104fe800e8060110ec060110f0060110f4060110a5
:104ff800e8060110ec060110f0060110f406011095
:10500800f8060110e4060110e8060110ec0601108c
:10501800f0060110f4060110e8060110ec06011074
:10502800f0060110f4060110240701100c07011006
:105038000c0701100c0701100c07011010070110d4
:105048001007011014070110180701101c070110a0
:1050580020070110240701100c0701100c0701108c
:105068000c07011010070110100701101407011098
:10507800180701101c070110200701108ef00010fe
:105088006cf0001072f0001076f000107cf0001048
:1050980082f0001088f000108ef000108ef00010e2
:1050a8008ef000108ef000108ef0001072f00010dc
:1050b80076f000107cf0001082f0001067452301a4
:1050c800efcdab8998badcfe10325476c3d2e1f04a
:1050d800c1059ed8367cd5073070dd17f70e5939d3
:1050e800ffc00b316858151164f98fa7befa4fa499
:1050f8006a09e667bb67ae853c6ef372a54ff53a61
:10510800510e527f9b05688c1f83d9ab5be0cd198c
:10511800cbbb9d5dc1059ed8629a292a367cd507ee
:105128009159015a3070dd17152fecd8f70e5939ff
:1051380067332667ffc00b318eb44a87685815114c
:10514800db0c2e0d64f98fa747b5481dbefa4fa496
:105158006a09e667f3bcc908bb67ae8584caa73b82
:105168003c6ef372fe94f82ba54ff53a5f1d36f1ad
:10517800510e527fade682d19b05688c2b3e6c1f89
:105188001f83d9abfb41bd6b5be0cd19137e217941
:1051980067452301efcdab8998badcfe103254760f
:1051a8000000000000000000850b011021310110f3
:1051b800d53e0110db3e0110e13e01108d0d0110be
:1051c800fbfb001065e500105d0b0110d506011012
:0851d8000107011061f0001055
:020000040000fa
:020000041000ea
:1051e000f0b5de4657464e464546e0b587b0070067
:1051f0008b464b6bdb080493dbb29946022b12d82b
:10520000c269f6235b00d15800230093834b844a84
:10521000844809f043fd002007b03cbc9046994605
:10522000a246ab46f0bd04002034b022002120008d
:105230000ef0d0fcd0239846b844602200214046ae
:105240000ef0c8fc9a2252000023bb500123bb542d
:105250003a003532ff32537039235a46d35c012b62
:1052600067d0002b77d0022b6cd0002302935b46d3
:105270001e6a4b465d004d446d00063debb2039344
:105280000121380006f0e8fb0125112292463a0080
:105290003532ff325146009104230021380009f0d5
:1052a00099f880231b01524613430093029b5a46f0
:1052b000926a0121380009f08df800950823320028
:1052c0000721380009f086f808229446b444624663
:1052d00005920095082365460821380009f07af800
:1052e000082332000121380009f0a0fa08232a001f
:1052f0000221380009f09afa380006f039f94a4bd1
:105300001a6814601c6842462261032363633c33bd
:10531000236303229246039b002b3dd01d00ff23f5
:10532000049a1340013b02934b46013bdbb20393cb
:105330001de09a225200bb5c08210b43bb5418238a
:10534000029394e79a225200bb5c04210b43bb54a6
:10535000202302938be71023029388e7e36bda079d
:10536000fcd49b07fad4013debb2002b14d0029978
:10537000280006f0dfffc9b2f3796b40f371002912
:1053800000d10399c9007118a023f9505033f95086
:105390005346a363e36be2e732687168234b1c005a
:1053a000544018004840044360424441e4b29a42e9
:1053b00008d05b4659690094184b194a194809f0fe
:1053c0006dfc28e79942f4d15b46586a184b1b687c
:1053d00083420ed05b461b6a8342ead0ff22049bc5
:1053e0001a40144b9c466244d20005990ef006fc0c
:1053f000dfe7ff21049b194049000229d9d9022384
:1054000002220b4d059e28689200925902600133da
:10541000dbb21a008b42f6d3cbe7c046c2b7e9cc69
:105420009c685774eaebf9243c2a0010a6a6a6a6ad
:08543000202a0010ffffff1ffe
:020000040000fa
:020000041000ea
:10543800f0b5de4657464e464546e0b58db0060007
:10544800ad239b000a6ac169ca50c269d3589946fc
:105458000cf09aff04004b46db795b0745d54b46b9
:10546800597c002941d07d4bc358db687b4a8018a2
:105478009847051e0cd00ef0c3fd4001400f0228ce
:105488000dd0f0690023002275490af005f8b5e04f
:10549800f06900230022734909f0feffaee02800fe
:1054a8000ef0b0fd037b5b0706d0f06900230022f5
:1054b8006b4909f0f1ffa1e028000ef0a3fd037b82
:1054c80070221a4206d0f06900230022644909f0cc
:1054d800e3ff93e028000ef091fdc3680a932800cb
:1054e8000ef08cfd1030050007e023685b6a200091
:1054f8009847c3680a93103005000ef037f9070083
:105508000aab1b785b0700d08be00aab1b785b0605
:105518005b0f00d079e00aabdb78db0607d50aab76
:1055280058784300c0184000c0b2099502e0002036
:10553800002309930aabdb789b0601d50230c0b281
:105548002d183b689b689846474b484a44213800c9
:10555800c0470890002800d179e04b46db79002647
:105568005b0615d50aab5b789f089b0765d00137aa
:1055780023685b6a2000984780231b01c618002314
:105588003b48026811689a00b1500133bb42f8d316
:105598004b469b795b075b0f9846354b1b689a46d1
:1055a8004b465b699b4623685b6a200098478146a7
:1055b80023685b6a200098470a9b0b930796802311
:1055c8001b014b4406935b46059353460493802383
:1055d800db009c4660440390099b02930195434677
:1055e80000930a9b234a2449089c200008f066ff80
:1055f8000ef030f803681b69210098470db03cbcd9
:1056080090469946a246ab46f0bdf06900230022b9
:10561800134909f041ff3b68db6849463800984761
:10562800ece7f069002300220d4909f035ff3b68db
:10563800db68494638009847e0e723685b6a200042
:10564800984780231b01c618002f98d1a0e7f0695e
:1056580000230022094909f01fffcfe73815000091
:10566800140000801200008071c26e78c96dee359a
:10567800202a00106ebb3fc8faee14ed230000800c
:020000040000fa
:020000041000ea
:10568800f0b583b00ef072f804000df0e3ff0500ea
:10569800814b1b681e680196730700d471e0002ccb
:1056a80000d16ee0002800d16be023689f687b4b37
:1056b8007b4a20212000b847071e08d002227949da
:1056c8000cf04afd2b685b6939002800984701ab4c
:1056d8005b785b065dd401ab5b78db0900d1a0e0a9
:1056e80023689f68704b6e4a20212000b847071e28
:1056f80008d009226d490cf02ffd2b685b69390031
:105708002800984701ab9b78db0700d591e001abf7
:105718009b789b075ed401ab9b785b0700d4afe016
:10572800002c29d0002d27d023689f68604b5c4a45
:1057380020212000b847071e08d00c225d490cf034
:105748000bfd2b685b6939002800984701ab9b78f3
:105758001b0711d523689f68574b514a2021200009
:10576800b847041e08d00d2252490cf0f5fc2b68ee
:105778005b69210028009847474b1b689e6103b06e
:10578800f0bd01ab5b785b0642d5002c40d0002d04
:105798003ed023689f68494b414a20212000b847e2
:1057a800071e08d0082241490cf0d6fc2b685b691b
:1057b80039002800984701ab5b78db0900d08fe7f8
:1057c80001ab9b78db0732d401ab9b789b07a2d552
:1057d800002c50d0002d48d023689f68384b304aa1
:1057e80020212000b847071e08d00b2231490cf0b1
:1057f800b3fc2b685b6939002800984701ab9b789c
:105808005b0700d590e701ab9b781b0740d4b3e753
:1058180001ab5b78db0904d0002c02d0002d00d04e
:105828005ee701ab9b78db07ced5002c23d0002d9b
:105838001bd023689f68234b194a20212000b847b2
:10584800071e08d00a221b490cf086fc2b685b69ee
:1058580039002800984701ab9b789b07bcd401ab63
:105868009b785b0700d55de70ae001ab9b785b0797
:1058780000d581e704e001ab9b785b0700d57be7a7
:1058880001ab9b781b0700d476e7002c00d173e7a7
:10589800002d00d05ee76fe7182a0010ebafe5cacd
:1058a800c96dee3532cb175d485c75011143369fe3
:1058b800c33cbc22eaebf92432bee2caded18445fd
:0858c80042d188387164d568f3
:020000040000fa
:020000041000ea
:1058d000f0b5d6464f464646c0b582b006000c002d
:1058e0008f6b002f00d183e04b7f9946b944002590
:1058f00023689b6820009847794b984271d0002319
:10590000984631227f239d431543637f013bdbb2e1
:105910001b02744a15401d4380235b051d43db00b9
:105920001d434346002b5cd0636a9a4643469a7aed
:10593000120912056c4b1d4015432900300005f07b
:1059400013f943465b68627f0121019100913900a0
:10595000300007f035fa23689b6820009847604bb9
:10596000984200d180e0627f0092534608213000c7
:1059700009f04afa627f53469b18009209213000d1
:1059800009f042fa636b594a12689a420dd0627f5d
:1059900000920a21300009f037fa627f636b9b188e
:1059a00000920b21300009f02ffaf56923689b68fb
:1059b000200098477d35ff352862f3697d33ff333a
:1059c000627f5a62f3697d33ff33626b9a62f369d7
:1059d000ae33ff3301221a70f369a26a7d33ff33bd
:1059e000da62002002b01cbc90469946a246f0bd87
:1059f0004b7f202b63d017d9302b69d0b946422b6f
:105a000000d074e73a4b102290469844394b99469f
:105a10001f00423f002523689b6820009847304bb9
:105a2000984240d031226de7b946182b00d05ee78e
:105a300000250b689b6808009847294b984209d0bd
:105a40002b4b2022904698442b4b99461f00183f21
:105a5000113257e7264b202290469844264b994610
:105a60001f00183f10324de7627f00925346062117
:105a7000300009f0c9f9e36b002b06d0627f009279
:105a80000721300009f0c0f98fe7637f4a46616b58
:105a9000300005f079fa627f0092636b07213000d5
:105aa00009f0b2f981e7657f013dedb22d023023a7
:105ab0001d4380235b051d43db001d4334e70c4b76
:105ac0003022904698440d4b99461f00203fa1e795
:105ad000074b98460a4b99461f00303f9ae7c0464d
:105ae000faee14edff00ffffffff0fff202a00106a
:105af0005c300010de3000102034001068330010dd
:045b00005832001007
:020000040000fa
:020000041000ea
:105b0400f0b5de4657464e464546e0b589b0060038
:105b14008846096a0a6807921004000ec5b2d200ca
:105b2400d20f00d0b0e0202d00d1dfe009d9302d14
:105b340000d1e0e0422d20d1714f1037714b9a46cd
:105b44001ee0182d15d122246b1edbb21b021c4350
:105b540080235b051c43db001c43694b9b6a1c438d
:105b6400002a00d0a6e0664f2037674b9a460123ef
:105b740013e0002700239a4602e0002700239a46f8
:105b840022246b1edbb21b021c4380235b051c43d7
:105b9400db001c43bb681c43012304aad27b92068e
:105ba40002d540001b18dbb29b00ca180392414681
:105bb400c96989469944bb7a1b091b05534a144099
:105bc4001c432100300004f0cdffe400e40fe1b2f7
:105bd4008b467b680122019200912a0051463000d5
:105be40007f0ecf85946002969d00095039b2a0078
:105bf4000e21300009f006f900954b462a000c21cd
:105c0400300009f0fff84b465b1900952a000d217e
:105c1400300009f0f7f83e4f3b683e4a1a603e48b0
:105c24003e4b3f4a010009f053f93b6803229a6056
:105c34000ef08ef80368db680c219847f6235b00ae
:105c4400f26941464969d150f3697d33ff33354ade
:105c54001a62f3697d33ff335d62f3697d33ff3389
:105c64004246526a9a62f369ae33ff331c70f2699a
:105c74000021f4235b00d150002009b03cbc9046c5
:105c84009946a246ab46f0bd0b1d9a4622246b1ed4
:105c9400dbb21b021c4380235b051c43db001c435b
:105ca40000239b681c430027420012185200013253
:105cb400d3b272e7124f2037134b9a46f4e700959c
:105cc400039b2a000e2130000bf06afb00954b4623
:105cd4002a000c2130000bf063fb4b465b19009546
:105ce4002a000d2130000bf05bfb94e7044f3037a2
:105cf4000d4b9a4644e7024f0c4b9a4640e7c04688
:105d04005c3000109c30001008340010ffff0fffbf
:105d1400382a00100c0e0600eaebf924cf0800081c
:105d2400a40691de88bf6771483300102832001042
:020000040000fa
:020000041000ea
:105d3400f0b585b006000cf029fb04006f4bc55c80
:105d4400012d00d1c8e06e4bc718202239006d48e0
:105d54000cf042fc00282ed0002d00d0c6e0012318
:105d6400b377664aa354684cb37f002b03d0f37f08
:105d74000020002b1dd10df0fbfc03689d6800235f
:105d8400624a3021a84705000020002d11d00023cd
:105d940002930197043300933c3322005c492800aa
:105da40009f082fe0df058fc03681b69290098472e
:105db400002005b0f0bd2300dc332903554a944686
:105dc4006144fc2212011d0018000df015ff002390
:105dd400514a52494e4809f07bf8aa78504be25494
:105de400ea78504be2542300fc331a784e4be254c9
:105df4004e4b4f4a4f49504809f06af8dc23e25aa7
:105e04004e4be252ab78aa2b2bd0ff2b2bd0013b6d
:105e14005a4253419b000022019200930023484ab6
:105e240045493b4808f00afe2300dc33da780223b4
:105e3400aa2a1ad00022019200930023414a3e4923
:105e4400334808f0fbfd404b1b68002b19d022009f
:105e5400dc32d288002a14d01b68002b11d03b48b6
:105e6400a7e70323d7e70223d5e72300fc331b78f6
:105e7400aa2b04d0ff3b5a1e93410133dae70123d6
:105e8400d8e72c4e224f0023314a3100380009f064
:105e94001ff8294d00230193013300930023294a5d
:105ea4002900380008f0cafdaa231e4aa3541e4a3a
:105eb400a3541e4b1e4a3100280009f009f8dc34b3
:105ec400e388002b06d13800224a390009f000f893
:105ed40000206ee71d486ce7094bc71820223900e3
:105ee4001d480cf079fb002800d164e70123f37707
:105ef400024b0022e254074c36e7c046521500001c
:105f04009c1000008000006040100060c96dee35f8
:105f14006ebb3fc840000060f43ab2411357722789
:105f2400531500005415000055150000b473cd6ed0
:105f34000025d5ea3c736db8b857301450150000ed
:105f4400964e2d8b2731d817102a00100d5d44c0b2
:0c5f54005e85f50de1d30826801000608a
:020000040000fa
:020000041000ea
:105f6000f0b5de4657464e464546e0b587b00700d9
:105f70008a464b6bdb080393dbb29b46022b12d89d
:105f8000c269f6235b00d15800230093734b744a17
:105f9000744808f083fe002007b03cbc9046994648
:105fa000a246ab46f0bd012105f056fd9a235b00e9
:105fb0000022fa503b003533ff3301325a70392347
:105fc0005246d35c012b6bd0002b7bd0022b70d0c0
:105fd0000023029353465b6a984605931e000836d9
:105fe00053465a6b083a196a30000df007fe5b46bb
:105ff0005b005b445b00063bdbb299465a4a5a4b56
:1060000041460a604b60012411253a003532ff32c7
:10601000009504230021380008f0dcf980231b01df
:106020001d430095029b5246926a0121380008f0f8
:10603000d1f90094082342460721380008f0caf934
:106040000094082332000821380008f0c3f908231f
:1060500042460121380008f0e9fb08233200022102
:10606000380008f0e3fb380005f082fa3f4b1a686d
:106070003900203111601c683b00d03323610323b9
:1060800063633c3323634b46002b40d00125ff2341
:10609000039a1340013b02933b004746984620e099
:1060a0009a225200bb5c08210b43bb541823029375
:1060b00090e79a225200bb5c04210b43bb5420237f
:1060c000029387e71023029384e7e36bda07fcd49b
:1060d0009b07fad4fb795e40fe710135ebb299451e
:1060e00015d3eeb20299280006f024f9c9b20029ae
:1060f00002d15b46591ec9b2c9007918a023424695
:10610000d1505033d150ed3ba363e36bdee7184b26
:106110001b685246526a934209d05346596901237b
:1061200000930e4b0e4a0f4808f0b8fd33e7ff20ee
:10613000039b18404000f0d0002200230c4c216843
:106140009b0006adac466344043b1b680b60013208
:10615000d2b213008242f2d3dfe7c046c2b7e9cc25
:1061600053fb18f2eaebf924a6a6a6a63c2a0010d7
:04617000202a0010d1
:020000040000fa
:020000041000ea
:10617400f0b583b0714da026b6013200002128008d
:106184000df026fd6e486f4b1860802292010021ad
:106194000df01efd0bf0f4fc0df030fb04006a4a18
:1061a40005230193130030330093042331002800a6
:1061b40008f0fef90af052fb2368012600965d6997
:1061c4000123002261492000a8470af089fb2368c3
:1061d4001d690df045fb0100002300222000a847a3
:1061e4000af06efd23681e2500955f6900230122d5
:1061f40057492000b84709f0fdff23681f690bf0d9
:1062040067ff0100002300222000b847236800959f
:106214005f69002301224f492000b84709f0f2fdcd
:1062240023681f690bf08cff01000023002220006b
:10623400b847236800955f6900230122464920007e
:10624400b847236800965f69002300224349200071
:10625400b84709f073fe23681f690cf00bf80100be
:10626400002300222000b847236800955f690023bb
:1062740001223b492000b84709f0d4ff23681f6975
:106284000bf042ff0100002300222000b8472368de
:1062940000955f690023012232492000b84709f0c4
:1062a400e1fc23681f690bf0f7fe010000230022c4
:1062b4002000b847236800955f69002301222a491a
:1062c4002000b84709f0eefe23681f690bf0d6fee4
:1062d4000100002300222000b847236800955f696d
:1062e4000023012221492000b84709f071fd2368e9
:1062f4001f690bf017ff0100002300222000b8479c
:10630400236800955d690023012219492000a847ec
:10631400236800965d690023002216492000a847df
:1063240009f040fe23681d690cf030f801000023d9
:1063340000222000a84703b0f0bdc04660af0310a0
:1063440060d703100018001084bb0010da4a82c022
:10635400a308e560a686ffa0379bbe37fa7a397892
:10636400e9202c28d161548d94a784bd86b075177b
:0863740065eaa4af8ccc37ca26
:020000040000fa
:020000041000ea
:10637c00f0b5d6464f464646c0b584b005000c0075
:10638c003823cf5cc6690b689b68080098477d363c
:10639c00ff363062f6235b00ea696169d150bc3b81
:1063ac000022ea50062f00d973e0bb006e4ad35886
:1063bc009f4698225200ab5c01210b43ab5409233e
:1063cc009a460321280005f041fb13262a0031329e
:1063dc00ff32009604230021280007f0f5ff503609
:1063ec000096236ae2690121280007f0edff0bf00b
:1063fc004ffe03681b6a390098470390603e3923af
:10640c00e35c002b48d10096a36a626a0221280043
:10641c0007f0daffe26a039b0021280008f000fa7b
:10642c00280005f09ff8280009f0aefa04b01cbc57
:10643c0090469946a246f0bd98225200ab5c0221d0
:10644c000b43ab5409239a46bbe798225200ab5c32
:10645c0004210b43ab5409239a46b2e7982252000d
:10646c00ab5c08210b43ab5409239a46a9e798224d
:10647c005200ab5c10210b43ab5411239a46a0e79e
:10648c0098225200ab5c20210b43ab5411239a464b
:10649c0097e700239a4694e70bf074ff03685b6a56
:1064ac0098478023db00984680440bf0f1fd03688d
:1064bc009b6a390098478146616a2c4b1b688b425a
:1064cc003dd0a26a40460df093fba06a4b465a00a1
:1064dc00121a404400210df077fba26a4b469b1a1e
:1064ec009a4500d94b44802140468154676bf80093
:1064fc004246d218a16a511805398c46790f674665
:10650c003970a16a51180439070e0f70a16a51181d
:10651c000339070c0f70a16a51180239070a0f7062
:10652c00a16a8c466244013a1070a26a9446634494
:10653c00009642460221280007f046ff6ae7a36a4c
:10654c0098089b070cd001304246002307498c4623
:10655c0061460968096802c201338342f8d3b4e783
:10656c000028f1d1b1e7c046fce70010202a00104a
:020000040000fa
:020000041000ea
:10657c00f0b5d6464f464646c0b590b080460c00a6
:10658c00cb6909930b6a0f930e930c930bf0fafee5
:10659c000500636b002b02d0db795b072ad42b68d8
:1065ac005b6a280098478023db00c518002d00d1ba
:1065bc00b2e000239946636a002b05d0226b53008e
:1065cc009b185b00a946ed18636bda7f00218a46a5
:1065dc00920603d5226b5200aa46ad18da7f5206fa
:1065ec0068d5db79db0966d0226ba16a28000df037
:1065fc00fffa60e00df0b8f80600636bd97c504be5
:10660c00eb58db684e4aa818984700280cd0434634
:10661c00d869002300224b4908f03cff616b3368ba
:10662c00db683000984777e033689f68464b474af1
:10663c0024213000b847071e1dd02b681b6a00228e
:10664c0009a928009847010033689d68404b414ace
:10665c003000a847051e1bd0636b09a99a7c8a7071
:10666c001a7c0a70db7c5b075a0fcb7807208343bc
:10667c001343cb709de7616b3368db683000984740
:10668c004346d86900230022334908f003ff43e056
:10669c003368db68390030009847616b3368db681e
:1066ac00300098474346d869002300222a4908f055
:1066bc00f1fe31e000250df057f8060003689f68e5
:1066cc000023264a3c21b847071e2bd00c9b0d9368
:1066dc00626b00230693537f0593d37f9b06db0fde
:1066ec000493d379db09012253400393534602935d
:1066fc0001954b4600930c9b099a194907f0b4fe7f
:10670c000cf0a6ff03681b69390098474346da6909
:10671c00616bad239b00d15010b01cbc90469946c8
:10672c00a246f0bd616b3368db6830009847434686
:10673c00d86900230022084908f0acfeece7c046fb
:10674c003815000011000080c748a7c0b09c019705
:10675c007cd18fd931b7ab5123000080c96dee3598
:04676c006ebb3fc8f9
:020000040000fa
:020000041000ea
:10677000f0b5d6464f464646c0b58ab00400ad23b4
:106780009b000a6ac169ca50c269d7580bf000fe63
:106790000600fb795b0744d5797c002941d0684b22
:1067a000c358db68664a80189847051e0cd00df068
:1067b0002bfc4001400f02280dd0e069002300228d
:1067c000604908f06dfe87e0e069002300225e4921
:1067d00008f066fe80e028000df018fc037b5b07e4
:1067e00006d0e06900230022564908f059fe73e004
:1067f00028000df00bfc037b70221a4206d0e069e2
:10680000002300224f4908f04bfe65e028000df000
:10681000f9fbc368089328000df0f4fb1030050065
:1068200007e033685b6a30009847c368089310300c
:1068300005000cf09fff804608ab1b785b076bd10f
:1068400008ab1b785b065b0f59d108abdb78db0626
:1068500007d508ab58784300c0184000c0b2a9461d
:1068600002e000200023994608abdb789b0639d56f
:10687000aa46824443461b689d68344b344a4421ef
:106880004046a847051e54d0bc796407640f33689e
:106890005b6a300098472f4b1a6879691b68089e1d
:1068a0000996002607960693059104928023db0043
:1068b0009c46604403904b460293534601930094d8
:1068c000089b254a2549280007f0fcfd0cf0c6fe70
:1068d00003681b69290098470ab01cbc904699467a
:1068e000a246f0bde06900230022164908f0d8fd59
:1068f00043461b68db68390040469847ece7e0698f
:10690000002300220f4908f0cbfd43461b68db68db
:10691000390040469847dfe7e06900230022094933
:1069200008f0befd43461b68db68390040469847c7
:10693000d2e7e06900230022094908f0b1fdcbe766
:106940003815000014000080120000805533f23c1e
:10695000c96dee35202a00106ebb3fc8167d6e153e
:046960002300008090
:020000040000fa
:020000041000ea
:10696400f0b5c64600b58ab00700ad239b000a6a9d
:10697400c169ca50c269d458e3795b0700d577e08e
:106984000bf004fd03685b6a98470990a3793c22e5
:106994001a4200d1c0e09b079b0fdab2012a5fd0f4
:1069a4005bb2002b0ad00026022a0ed10bf0eefcbb
:1069b40003685b6a98472030060006e00bf0e6fcab
:1069c40003685b6a984710300600554b1b6898466d
:1069d4000cf0cefe03689d680023524a3c21a84770
:1069e400051e00d191e06279002a00d187e0013ac6
:1069f400531e9a4152424c4b1a404c4b9c466244a3
:106a0400a3799b061b0f012b00d17ae0023b58426d
:106a140058414000a3799b079b0f012b00d172e0e2
:106a2400023b5942594149003d4b1f681b68246988
:106a340006940591049041460391029609990191a7
:106a440000933b003a49280007f01efb0cf004febb
:106a540003681b69290098470ab004bc9046f0bd3e
:106a64000bf094fc03685b6a984718300600ace7a7
:106a74000bf08cfc03002f4a8018617d9b58db6867
:106a84009847051e0cd00df0bdfa4001400f0128b7
:106a94000dd0f86900230022274908f0fffcdbe74a
:106aa400f86900230022254908f0f8fcd4e72800ff
:106ab4000df0aafa037b5b0706d0f86900230022d5
:106ac4001d4908f0ebfcc7e7a679b607b60f280006
:106ad4000df09afa037b9b069b0fb34206d0f8692c
:106ae40000230022144908f0d9fcb5e728000df072
:106af40087fa1030099000239846002668e7104a68
:106b04007ee7012086e701218ee7f8690023002251
:106b14000c4908f0c3fc9fe700239846002657e77a
:106b2400202a0010c96dee35fda8bb08035744f7b1
:106b34006ebb3fc8381500001400008012000080ae
:086b44009bdf001a2300008012
:020000040000fa
:020000041000ea
:106b4c00f0b5ce46474680b583b007000c004d6ac1
:106b5c00002d00d08ce00b6b202b00d1a2e00dd9c6
:106b6c00302b00d1a6e0422b00d07de0554e1036e4
:106b7c00554d42235b429846a84409e0182b00d09f
:106b8c006fe0504e2036514d18235b429846a84476
:106b9c003823e35c002b00d072e0a36a99463923ba
:106bac00e35c002b57d04b46002b54d02221236b97
:106bbc00013bdbb21b02194380235b051943db004d
:106bcc001943002e47d0b37a1b091b051943380013
:106bdc0003f0c4ff7368012501950095226b4146b3
:106bec00380006f0e7f8236b00934b46226b062126
:106bfc00380008f003f9364b1a68364911601b68e7
:106c0c0003229a603448354b354a010008f05cf990
:106c1c000df09af80368db680c219847f6235b00ab
:106c2c00fa696169d150fb697d33ff332d4a1a62d1
:106c3c00fb697d33ff33226b5a62fb697d33ff3373
:106c4c00e26a9a62fb69ae33ff331d70fa69616bbd
:106c5c00f4235b00d150002003b00cbc9046994645
:106c6c00f0bd0023984607e000250023984603e07a
:106c7c00a8460b6b9c466544002d11d0002687e777
:106c8c000bf080fb03685b6a984780231b019946d5
:106c9c008144236b2a004946380004f06ff97ee7e3
:106cac002e007ae7074e30360f4d20235b42984674
:106cbc00a8446de7034e0d4d30235b429846a84423
:106ccc0066e7c0465c300010de3000102034001047
:106cdc00382a001002060800eaebf924cf08000855
:106cec00a40691de80074fe1683300105832001083
:020000040000fa
:020000041000ea
:106cfc00f0b5c64600b58ab0cc692388202b04d0e9
:106d0c005b480ab004bc9046f0bde3790f22934374
:106d1c00202b00d1a2e0e37d002b02d0a37d002b21
:106d2c0003d1a368002b00d19ae0237cdb072fd47e
:106d3c00e368002b00d195e0a268216805f088fb80
:106d4c0001282fd00027002398460cf081fc060068
:106d5c000cf00afd03689d68464b474a3421a8474e
:106d6c00051e00d182e0454b1968e37da27d049499
:106d7c000391414602910197e17c0091404908f052
:106d8c0081f833681b692900300098470120b8e767
:106d9c00e368002b68d1a268002acdd1002700231c
:106dac009846d2e70bf0eefa03685b6a9847050049
:106dbc0006aad37807218b4302210b43d3700023ff
:106dcc000793013b0893e37d002b24d0002600237e
:106ddc009846a37d0027002bb7d1284b1b68b60023
:106dec00af191b683b6009930bf0ccfa03681b6a64
:106dfc00012206a998471038810883072bd001314e
:106e0c00301d281800231d4d2a68126804c0013358
:106e1c008b42f9d399e7194b1b681b6803600993e4
:106e2c000bf0b0fa03681b6a012206a998471038c8
:106e3c00860883070cd00136002310480268013302
:106e4c0011689a00a950b342f8d30136a846c0e79e
:106e5c000328f1d8f9e70328d2d876e7094850e798
:106e6c0009484ee709484ce709484ae7094848e70a
:106e7c0021000080a7ef242dc96dee35202a0010cb
:106e8c003c736db8020000801a000080190000806d
:086e9c001b00008023000080b0
:020000040000fa
:020000041000ea
:106ea400f0b5de4657464e464546e0b585b00bf094
:106eb4006dfa07009c239b4683440300dc339a88c5
:106ec4005a4492461a8930325a4402929b8930338a
:106ed4005b44039353469b78002b00d17ae05346de
:106ee400043300930023994636e03b00dc33998851
:106ef40053461b88c9185944019b5b785b00cb1827
:106f04005b88c918002905d0300010302200103adf
:106f14000cf072fe2b689b6898463f4b3f4a242135
:106f24002800c04700284fd0019b1b683200210075
:106f340004000af06ff93a4bfb585b692100384aa8
:106f4400b818984701239c46e144009b10330093f2
:106f540053469b784b453dd9009901913b681b6a88
:106f6400002288463800984704000cf001fc050014
:106f74002404240c03689e682a4b2b4a2100b04742
:106f8400061edfd0102241460cf036fe4b461b0194
:106f940053449a7930231340102ba6d0202b0ad0c7
:106fa400302bb7d1019b5b785b00039a9446634412
:106fb40059886144a6e7019b5b785b00029a94467a
:106fc4006344598861449de72b68db6831002800dd
:106fd4009847b7e73b68db6a3800984700280cd02d
:106fe40012480023124a010007f072ff05b03cbcae
:106ff40090469946a246ab46f0bd0c4c00230d4a80
:107004002100200007f064ff00230b4a0b492000f5
:1070140007f05effeae7c046c748a7c0b09c0197e7
:10702400381500007cd18fd931b7ab516ebb3fc846
:107034000025d5eae1d308265e85f50d3c736db8cd
:020000040000fa
:020000041000ea
:10704400f0b5d6464f464646c0b58eb0cc692388c7
:10705400202b06d055480eb01cbc90469946a2463b
:10706400f0bda368002b00d19ce0e368002b01d1a4
:107074004f48f0e70cf0f0fa07000cf079fb06003b
:1070840003689d684b4b4c4a3421a847051e00d128
:107094008ae0e368a26849490020039002900191c4
:1070a4002068400d40050090280008f019fd3b6859
:1070b4009b6908aa29003800984705000899002907
:1070c40003d03368db6830009847002d67d009aae5
:1070d400e07c07210840d3780726b3430343d370e9
:1070e40060690a90a0690b90e0690c900b40022b38
:1070f4002ad00027002399460cf03afb06000cf036
:10710400abfa804633689b689a462d4b2a4a3c2149
:107114003000d047061e40d0e3690d930694627f89
:107124000592049703950022029249460191009228
:10713400099a244907f0ecf943461b681b6931009e
:1071440040469847012086e7e779ff0900239946de
:10715400002fd1d00bf01af903685b6a9847814677
:1071640009adeb7b20229343eb730bf00ff903681b
:107174001b6a0022290098470200103a92080ad09c
:107184004b4692004a4410480168096802c393427e
:10719400fad10025b0e70025aee70c485be7802074
:1071a400000658e70a4856e7084854e721000080db
:1071b4001b000080a9f4805cc96dee3505b2a117ef
:1071c400a7ef242d3c736db8202a00102300008003
:0471d4001a0000801d
:020000040000fa
:020000041000ea
:1071d800f0b583b00400504b1a68d368036a4f496e
:1071e8008b4200d178e02dd94d4a93424cd04d4a7c
:1071f800934244d13123c35c002b40d0856ac069d7
:107208001c30636a0a22290008f0daff636ae91869
:10721800e0691c300b2208f0d3ff434ff6267600b6
:10722800e3699959414d3b00414a280007f04efe59
:107238003b00404a2900280007f048fe0023e26985
:1072480093511ce03c498b4219d1d368364ef6273e
:107258007f00c269d159354d384a13405a425341cb
:1072680000933300364a280007f014fd0023e26932
:10727800d35133002f4a2900280007f027fe0023a6
:107288002362002003b0f0bd3123c35c002bf6d08d
:10729800856ac0691c30636a0822290008f090ffdb
:1072a800636ae918e0691c30092208f089ff1e4f5b
:1072b800f6267600e36999591c4d3b00214a2800bf
:1072c80007f004fe3b001b4a2900280007f0fefdda
:1072d8000023e2699351d2e73123c35c002bced05f
:1072e800c0691c30636a0622a16a08f069ff0e4f64
:1072f8000e4d3b000f4a2900280007f0e7fdf6264f
:107308007600e36999593b000f4a280007f0defd33
:107318000023e2699351b2e7382a001088bf6771e9
:1073280080074fe1faee14ed26a92614eaebf924ba
:1073380094cdd6c0fa3108af167d6e15f03f000027
:0c734800881e8da166beda231ebd48cb56
:020000040000fa
:020000041000ea
:10735400f0b5de4657464e464546e0b58fb00500cb
:10736400ad239b000a6ac169ca50c269d6580cf0a1
:10737400fff90400f3795b0751d500239846994639
:1073840000270d9323689b689b460023474a4821a6
:107394002000d847041e00d180e07279022a00d16f
:1073a40078e0033a531e9a415242414b1a40414bf2
:1073b4009c466244b3799b079b0f012b6cd0023b24
:1073c40059424b415b003c490d68086809688a468c
:1073d400b179c9090a91b1794906c90f099108938c
:1073e40053460793b3690693434605934b46049368
:1073f400039733690293019500900d9b2f49200058
:1074040005f070fe0cf028f903681b692100984709
:107414000fb03cbc90469946a246ab46f0bd0af07c
:10742400b5ff03685b6a98470d90b3799b079b0f80
:10743400dab2012a28d05bb2002b28d0023a534298
:107444005a41530198460af0a1ff03685b6a9847c2
:1074540040440700184b1b689946b37920224244e4
:1074640093465b0602d50c2343449b46002398466f
:10747400b369002b00d185e70af088ff03685b6ad3
:107484009847584480467de718239846dbe7102345
:107494009846d8e70a4a8de7012394e7e869002370
:1074a4000022084907f0faffb2e7c046c96dee357d
:1074b40045d19fc7bb2e6038202a00106ebb3fc841
:0874c40003b880ed23000080f5
:020000040000fa
:020000041000ea
:1074cc00f0b585b004000af05dff050007009c379d
:1074dc006022ff2138000cf077fb60223900404815
:1074ec000bf076f8060043424341237760223900c3
:1074fc003c480bf06df84342434163770023a3777c
:10750c00e377064313d0384b0022ea54237f002b39
:10751c003bd1637f002b5cd1314b1a88314b1b88dc
:10752c009a425ad2304b0122ea542e4e32e02f4c62
:10753c002f4b304a2100200007f0c6fc2e4b2f4a5f
:10754c002f49200007f0c0fc2e4b2f4a2f4920005a
:10755c0007f0bafcff232e4aab542e4aab542e4aea
:10756c00ab542e4d0196fd3b00932d4b2d4a29001b
:10757c00200007f05ffa0196012300932a4b2b4a57
:10758c002900200007f056fa21e00123164aab54db
:10759c00a377144e0cf0e8f803689c680023244a87
:1075ac003021a047041e12d000230293214b9c468d
:1075bc0065440195042300933c3332000b4908f0d9
:1075cc006ffa0cf045f803681b692100984705b069
:1075dc00f0bd0123e377024edce7014edae7c0464b
:1075ec004000006040100060521500006ebb3fc8a8
:1075fc0044765af8e1d3082626a0bd235e85f50d06
:10760c003c736db89cad4fbef43ab2411357722720
:10761c00531500005415000055150000b8573014d0
:10762c00f62b9624964e2d8b1535234a2731d817d9
:08763c00c96dee359c10000041
:020000040000fa
:020000041000ea
:10764400f0b5c64600b582b004000e0017001d0058
:10765400012104f0fff90f2398461121220035324d
:10766400ff3200910b3b0021200006f0b1fe4d4992
:1076740000913b0032000121200006f0a9fe4a4996
:1076840000910a9b099a0221200006f0a1fe4749b5
:107694000091089b2a000321200006f099fe412155
:1076a40000910f9b0e9a3d39200006f091fe412176
:1076b4000f9b119a944663441f005d4243461d404c
:1076c4002b02194353190091109a0521200006f04a
:1076d4007ffe01210d9b5e4243461e403302194347
:1076e40000910d9b0b9a0721200006f071fe0121e9
:1076f400149b5b4242461a409046129b002b02d0d8
:1077040013021943149b0091129a0921200006f0d8
:107714005ffe01210091189b179a0931200006f0a1
:1077240057fe7b1900220021200007f07df80d9bf5
:107734009b072ad003230d9f9f4304373b000c9ad9
:107744000121200007f070f80d9b9d19eb1b00220e
:107754000221200007f068f8149b139a03212000eb
:1077640007f062f8434600220421200007f05cf889
:10777400169b159a0521200007f056f8200003f007
:10778400f5fe02b004bc9046f0bd0d9b0c9a01219d
:10779400200007f049f8330000220221200007f0fe
:1077a40043f8d9e71108000011280000114800002f
:020000040000fa
:020000041000ea
:1077b400f0b5de4657464e464546e0b593b0050063
:1077c4000c002030b02200210cf002fa2800d03046
:1077d400602200210cf0fcf99a235b000022ea509d
:1077e40023689b68200098474a4b984219d0382355
:1077f400e35c012b24d0002b1ad0022b2ed039238a
:10780400e35c012b38d0002b3fd00022022b3dd16a
:107814009a225200ab5c04210b43ab54153aff3a55
:1078240034e09a225200ab5c01210b43ab54dee7f7
:107834002a003532ff32537801210b435370dee7bf
:107844009a225200a9184b78022003434b70ab5c78
:1078540010210b4320210b43ab54d0e79a22520052
:10786400a9184b78042003434b70ab5c10210b43e5
:1078740020210b43ab54c2e79a225200ab5c08218f
:107884000b43ab541d3aff3a00e01022a36a9b4617
:10789400e06a071e00d01027236a9846636a994657
:1078a400636b9a46266bb446002e01d010239c4687
:1078b400002310930f9361460e910d960c930b9336
:1078c4000a930993089307930693514605914946f1
:1078d4000491414603910297019000935946280070
:1078e400fff7aefeee6923689b68200098477d365b
:1078f400ff3630626269f6235b00e969ca502800ea
:1079040008f046f813b03cbc90469946a246ab46f4
:08791400f0bdc046035744f723
:020000040000fa
:020000041000ea
:10791c00f0b5d6464f4680b587b00500ad239b0029
:10792c000a6ac169ca50c269d6580af02bfd040014
:10793c00f3795b0726d5337ddb0723d5717d474b68
:10794c00c358db68454a80189847071e0bd00cf0cb
:10795c0055fb4001400f0dd0e8690023002240493f
:10796c0007f098fd4de0e869002300223d4907f03f
:10797c0091fd46e038000cf03ffb0700103783897f
:10798c00994606e023685b6a20009847071d038828
:10799c0099460af07dfbb17903689b6a984705907c
:1079ac0023685b6a200098478023db009a46824458
:1079bc00059c2200002150460cf006f94c4518d2cb
:1079cc000bf0d2fe03689c68274b284a3021a04755
:1079dc00041e37d0b3790d2b32d017d905220f2bbb
:1079ec001cd0103b5a4253415b4202221a400432d3
:1079fc0014e04a46390050460cf0faf8280003f01f
:107a0c000dfd07b00cbc91469a46f0bd0c3b5a429a
:107a1c0053415b42012293431a0004320023029328
:107a2c005346019300924b463a001149200008f04e
:107a3c0037f80bf00dfe03681b6921009847e0e74f
:107a4c000322ebe7002300220a49e86907f022fd34
:107a5c00ea69ad239b000021d150d2e73815000014
:107a6c001400008012000080fe558be6c96dee35c7
:087a7c006ebb3fc8230000802f
:020000040000fa
:020000041000ea
:107a8400f0b58bb0050049490af0cafb484b0833ee
:107a94002b602f001c37380009f098fb3c239c46d0
:107aa400ac446346019360460af0a8fc58218c4616
:107ab400ac446146029160460af084fc742084461a
:107ac400ac44604603900af0dffc9024a446ac4426
:107ad4006446049460460af063fdac26b446ac44a4
:107ae40066460596604609f003facc239c46ac44ee
:107af4006346069360460af003fce8218c46ac44d6
:107b04006146079160460af04ffc681dff300890fb
:107b14000af020fc90246400a446ac446446099412
:107b240060460af0dbfc903630000af0f7fb38348c
:107b34002049200006f022f93a001f49200008f0ed
:107b440052ff32001d49200008f04dff019a1c49e4
:107b5400200008f048ff059a1a49200008f043ff66
:107b6400089a1949200008f03eff099a1749200095
:107b740008f039ff029a1649200008f034ff039aee
:107b84001449200008f02fff069a1349200008f03a
:107b94002aff079a1149200008f025ff049a10498a
:107ba400200008f020ff28000bb0f0bdf86eb223cf
:107bb400dcb20010f0250010275a6f0bc1a52ded83
:107bc400f6cd5bb461dc017bcae9e7ec6a22eb0f1a
:107bd400e52bb60b4ee79ea65896063b1da179ee03
:047be400ef743e49b3
:020000040000fa
:020000041000ea
:107be80030b583b004004b69454a934234d020d85d
:107bf800444a934235d0444a934237d0434a934249
:107c080039d0a369002b48d04022a369002b01d0aa
:107c180093420cd13e4b1b68002b02d01b68002bf3
